:020000040000FA
:1000000078090020550100002B1100002D10000080
:1000100029110000530B00005D20000000000000CB
:10002000000000000000000000000000EF1E0000C3
:100030002D0D0000000000004D150000651F0000A0
:100040006F0100006F0100006F0100006F010000F0
:100050006F0100006F0100002F0D00006F01000014
:100060006F010000590D00006F0100006F010000DA
:100070006F0100006F0100006F010000610D0000C2
:100080006F0100006F0100006F0100006F010000B0
:100090006F0100006F0100006F0100006F010000A0
:1000A0006F0100006F010000000000006F01000000
:1000B0006F0100006F0100006F0100006F01000080
:1000C0006F0100006F0100006F0100006F01000070
:1000D0006F010000000000000000000000000000B0
:1000E000000000006F0100006F0100006F010000C0
:1000F0006F0100006F0100006F0100006F01000040
:100100006F0100006F0100006F0100006F0100002F
:100110006F0100006F010000000000006F0100008F
:100120006F0100006F0100006F0100006F0100000F
:100130006F0100006F0100006F010000000000006F
:1001400000000000000000000000000000000000AF
:100150006F0100000648804706480047FEE7FEE7BB
:10016000FEE7FEE7FEE7FEE7FEE7FEE7FEE7FEE767
:10017000691F000079010000DFF80CD000F094FB4B
:1001800000480047F935000078090020D2B201E0AC
:1001900000F8012B491EFBD270470022F6E710B58C
:1001A00013460A4604461946FFF7F0FF204610BDE5
:1001B000F0B480EA0102D40F4200B2EB410F02D248
:1001C0000246084611464A0042D0C30DDDB2C1F3D3
:1001D000C752AD1A202D35DAC1F3160141F40002E1
:1001E00004B15242C5F1200602FA06F12A41104438
:1001F000B3EBD05F23D0C4B1012DA0EBC35009DC19
:10020000F0BC4FF0004202EAC35200F50000DBB23E
:1002100000F017BA400000F1807000EBC350A0F16D
:10022000807040EAD170490009E0490841EAC07194
:10023000A0EBC35000F50000400800EBC350F0BC39
:1002400000F0F6B96142012202EB4101001BF6E722
:10025000F0BC704781F00041AAE780F00040A7E7BA
:1002600080EA010210B502F00043400026D04A00A7
:1002700023D04FEA106101EB1261C0F35600C2F3C4
:10028000560240F4000042F40002A0FB0220A1F15B
:100290007F014FEA0040140401D000F1010050EA50
:1002A000124001D44000491EC2B20C0604EBD0102B
:1002B000401C4008802A02D003E0002010BD20F03E
:1002C0000100002900DA0020184310BD30B480EA94
:1002D000010202F0004530F0004221F0004015D04C
:1002E000A0B1C0F3C753C2F3C754C2F31601C0F3A1
:1002F0001600E41A41F4000140F400027D349142FA
:1003000001D3641C00E04900002C02DA30BC00205C
:1003100070474FF400000023914201D3891A034330
:1003200040084FEA4101F7D151B1914202D14FF05B
:10033000004105E002D24FF0010101E06FF0010140
:1003400003EBC450284430BC00F072B92DE9FE4FD5
:1003500081EA030404F0004421F0004100944FF0CE
:10036000000B23F0004350EA010402D052EA0304D8
:1003700004D10020014603B0BDE8F08FC3F30A5456
:10038000C1F30A552C44A4F2F3340194A0FB0254A7
:10039000C1F3130141F48011C3F3130343F4801339
:1003A00001FB024400FB034E840A970A44EA81548D
:1003B00047EA8357A4FB076802958D0A05FB07856A
:1003C0004FEA932C04FB0C542705029D4FEA065874
:1003D00047EA1637B5EB08056EEB070C870E920E51
:1003E00047EA811742EA8312A7FB0201B6EB0B0131
:1003F00064EB00042B0D43EA0C335E1844EB1C50F5
:10040000DA465146E7FB0201C5F313044FEA0B330A
:1004100043EA14534FEA0432019C43EA0603A4F171
:100420000C040294009CCDE900B400F044F9A2E76A
:100430002DE9F04D81EA030404F0004B21F0004562
:1004400014464FF0000A23F0004150EA050220D084
:1004500054EA01021DD0C5F30A570246C5F313033F
:10046000C1F31300C1F30A5640F4801543F480131E
:10047000A7EB0608101BD64608F2FD3873EB050003
:1004800002D308F1010801E092185B41B8F1000FB6
:1004900003DA00200146BDE8F08D00204FF4801102
:1004A000064684460EE0171B73EB050705D3121BA7
:1004B00063EB050306434CEA010C49084FEA3000A0
:1004C00092185B4150EA0107EDD152EA030012D0C5
:1004D00082EA040083EA0501084303D100224FF0B9
:1004E000004308E0101BAB4102D20122002302E0CE
:1004F0006FF0010253101AEB06004CEB085110EBA1
:100500000A0041EB0B01BDE8F04D00F0C7B870B533
:1005100021F0004303430CD0C1F30A550024D5EB6E
:10052000040564EB0403D617AD1AB34102DB0020C7
:10053000014670BD201841EB025170BD0EB5C10FD0
:1005400080EAE0700844CA07002140F233438DE896
:100550000E000A460B4600F0AEF803B000BD00F0F6
:10056000004220F00040C10DC0F3160040F400002E
:100570007F2901DA00207047962903DCC1F196013A
:10058000C84001E096398840002AF4D040427047C4
:1005900000F0004230F000400AD0C10D01F560715A
:1005A000C0F3160042EA0151C208400711437047E8
:1005B00000200146704701F0004330B421F00041B3
:1005C00050EA010206D00A0DA2F56072C1F31301D0
:1005D000002A02DC30BC00207047440F44EAC1040A
:1005E000C100E01830BC00EBC25000F021B80000A0
:1005F000002801DBC0F10040002901DBC1F100410E
:100600008842704730B50B46014600202022012465
:1006100009E021FA02F59D4205D303FA02F5491BD0
:1006200004FA02F52844151EA2F10102F1DC30BDE6
:100630000029A8BF7047401C490008BF20F00100F6
:10064000704710B4B0FA80FC00FA0CF050EA0104D4
:1006500004BF10BC704749B1CCF1200421FA04F466
:1006600011FA0CF118BF012121430843A3EB0C013F
:10067000CB1D0106000A002BBEBF002010BC704736
:1006800000EBC35010440029A4BF10BC7047401CAD
:10069000490008BF20F0010010BC704710B5002BC6
:1006A00008DA401C41F1000192185B411A4301D164
:1006B00020F0010010BD2DE9F04D92469B4611B18E
:1006C000B1FA81F202E0B0FA80F22032904600F0F6
:1006D000FDF804460F4640EA0A0041EA0B01534682
:1006E0005A46084303D120463946BDE8F08D1146ED
:1006F00053EA010015D0C8F14002504600F0F5F869
:1007000005460E4650465946424600F0DFF808437B
:1007100001D0012000E00020054346EAE0762C43AA
:1007200037430A984FEA4453A0EB08004FEAD42419
:100730000A304FF0000244EA47544FEAD72502D569
:1007400000200146D1E7010510196941DDE908459E
:1007500000196941BDE8F04DA0E72DE9FE4F804644
:1007600081EA0300C00F0C46009021F0004123F005
:100770000045B8EB0200A94105D24046214690460B
:100780001C460B46024623F00040104304D140466D
:10079000214603B0BDE8F08F270DC7F30A00C3F36D
:1007A0000A510290401A0190402866DAC3F3130000
:1007B00040F4801B0098924620B10023D2EB030A3C
:1007C00063EB0B0B01985946C0F14002504600F014
:1007D0007DF806460D4650465946019A00F095F8B8
:1007E00010EB08006141002487EA115284EAE773A4
:1007F0001A433BD0009A3AB3019A012A4FEA0752B2
:1008000010DC001B61EB02014FF0004202EA0752CC
:10081000CDE90042001C41F5801132462B46FFF71E
:100820004AFFB6E7001B61EB0201001C41F5801393
:1008300000185B412018A2F5001747EB030140EABE
:10084000D570B6196D4111E06D084FEA360645EADC
:10085000C0754FEA0752001B61EB0201001C41F515
:10086000801149084FEA30000019514132462B46A9
:1008700003B0BDE8F04FFFF711BF00980122400020
:100880000023D0EB020263EBE073009821464FEAAD
:10089000E074B8EB000061EB0401E9E783F000438A
:1008A0005BE781F0004158E7064C074D06E0E06841
:1008B00040F0010394E8070098471034AC42F6D3A7
:1008C000FFF75EFCCC3D0000EC3D0000202A04DB7D
:1008D000203A00FA02F1002070479140C2F1200353
:1008E00020FA03F3194390407047202A04DB203A92
:1008F00021FA02F00021704721FA02F3D040C2F140
:1009000020029140084319467047202A06DBCB1786
:10091000203A41FA02F043EAE07306E041FA02F3BA
:10092000D040C2F1200291400843194670470EB5ED
:1009300040F2334102910021CDE900110A460B46F5
:10094000FFF7B9FE03B000BD70B5C1F30A5201F064
:1009500000450024C1F3130140F2FF3341F480113C
:100960009A4201DA002070BD40F233439A42A2F26B
:10097000334203DC5242FFF7B8FF00E090402C43C3
:10098000F1D0404270BD000010B50022072802D906
:1009900001220838C0B2064B03EB820213688000C4
:1009A0000F248440A34381401943116010BD00000F
:1009B000002002402DE9F0479146164A4FF0FF0A09
:1009C00002EBC005002200240AFA02F02346084286
:1009D00019D04FF0010C00200CFA02FC4FF00F0868
:1009E00021FA00F616EA0C0F06D0860008FA06F780
:1009F0003C4309FA06F73B43401C0828F0D328681B
:100A0000A043184328602D1D0832082ADBDDBDE80D
:100A1000F0870000202002402DE9F047154D00200E
:100A200000EB400101EBC00671194978532904D04D
:100A3000401C0328F4DBBDE8F0870E4F0024DFF8EC
:100A400038906FF00E08303706EB44002844408899
:100A500000B2FFF773FD4246FFF759FD00224B46F7
:100A6000FFF774FCFFF7A7FD47F82400641C032C74
:100A7000EADBE0E720070020008066402DE9F04730
:100A8000154D002000EB400101EBC00671194978BB
:100A9000522904D0401C0328F4DBBDE8F0870E4F38
:100AA0000024DFF838906FF00E083C3706EB440066
:100AB0002844408800B2FFF741FD4246FFF727FD7A
:100AC00000224B46FFF742FCFFF775FD47F8240074
:100AD000641C032CEADBE0E72007002000409F4075
:100AE0002DE9F041144D002000EB400101EBC00660
:100AF00071194978512904D0401C0328F4DBBDE862
:100B0000F0810D4F00246FF00E08243706EB4400EF
:100B10002844408800B2FFF711FD4246FFF7F7FC7A
:100B20000422FFF7F4FCFFF746FD47F82400641C9D
:100B3000032CEBDBE3E700002007002010B5FFF7F4
:100B4000CFFFFFF769FFFFF799FFBDE8104000F006
:100B50009DB8FEE770B5124E0446706B850F00F02D
:100B600023F82060012D05D00E48022D02D0032D60
:100B700000D000206060316AC840A0603168C1F3D5
:100B8000015120FA01F1E160B16AC1F30241072984
:100B900002D0C840206170BD0621B0FBF1F0F9E73A
:100BA0000080084000127A000C49D1F8A400002807
:100BB00013D0086A0A48D1F8FC1301290DD0094A5C
:100BC0009169C1F3C55101B940219269C2F3415302
:100BD00001229A40B0FBF2F04843704700001043F6
:100BE00000127A000080084000B585B06846FFF723
:100BF000B1FF039805B000BDF0B5074F7C6AFD6AF0
:100C00003E6B84438D43964313B104430D43164317
:100C10007C62FD623E63F0BD0080084010B517A005
:100C200001F03EFA174802F0DBFCC4B2154802F0AE
:100C3000D7FCC0B26F2CF2D16B28F0D1114802F072
:100C4000CFFCC4B20F4802F0CBFCC0B2612C0BD079
:100C5000772CE4D17428E2D1BDE8104000224FF493
:100C60000071094800F05DB96328D8D1054802F049
:100C7000B7FCC0B23028D2D110BD00006161610A5A
:100C800000000000FC00002000400B402DE9F04176
:100C90008EB0242101A8FFF780FA002426460DF12A
:100CA00028080020414641F82060401C0328FADB58
:100CB0004FF07E571C4D41F82470009600233A46B1
:100CC00001A8296800F044FC05F118020AA901A84E
:100CD00000F02CF900963B46002201A8696800F05C
:100CE00037FC0AAA05F1180101A800F01FF90097C6
:100CF00000231A4601A8A96800F02AFC05F1180291
:100D00000AA901A800F012F905F118000C3D81684C
:100D100055F82400FFF79EFA45F82400641C032CC4
:100D2000BFDB0EB0BDE8F08150070020704710B562
:100D3000012000F06BF800280DD0012100220846A8
:100D400000F08CF8012000F043F8BDE810404FF4AB
:100D5000FA7001F043BF10BD012000F031B800006F
:100D600070B50221072000F03DF8F8B1124C21784F
:100D7000124819B12178012913D017E00421054642
:100D800000F09FF84021284600F0C9F801212170A9
:100D90004021284600F0C3F80421284600F0BFF89F
:100DA00004E0402100F08DF802202070BDE8704082
:100DB000072000F005B800005100002000200B4083
:100DC0000121814001484164816470470040024034
:100DD0000121814002488165BFF34F8F70470000B9
:100DE00000400240074B10B502465B6C0020012416
:100DF0009440234205D0044B53F822208A4200D06D
:100E0000012010BD0040024000094842044A01464A
:100E10000020926D01238B401A4200D001207047C0
:100E2000004002400179027BC90741EA02718268F1
:100E300000681143014A42F8201070470040024008
:100E4000054B01228240186C012902D0904318649E
:100E500070471043FBE700000040024010B501233B
:100E6000084C8340012A02D0206D984305E0606D54
:100E700029B118436065206D1843206510BD984363
:100E8000F8E700000040024005490128086D03D042
:100E900020F000400865704740F00040FAE700008D
:100EA0000040024010B54FF4FA7001F097FE0122A5
:100EB00011461046FFF7D2FFBDE81040012000F0B8
:100EC000D3BA81627047002A026801D00A4300E069
:100ED0008A4302607047002A426801D00A4300E05A
:100EE0008A434260704742B1012A09D082688A432E
:100EF0008260C2688A43C260704782680A43F7E72B
:100F0000C2680A43C26082688A4382607047C069CF
:100F1000084000D001207047C06980B2704741622C
:100F200070470AB141627047816270472DE9F0470E
:100F3000002416460F468046A14646F82490002518
:100F400005EB4500011957F8250058F82110FFF767
:100F500087F956F82410FFF72BF96D1C46F824008A
:100F6000032DEDDB641C032CE7DBBDE8F0870000FC
:100F70002DE9FF4104462C488846065D103030F8C4
:100F80001450801D50F82670304601F068F826484D
:100F90002946C01C025D3046FFF70CFD294602229F
:100FA0003846FFF7A0FF294600223846FFF78BFF9F
:100FB000294601223846FFF78EFFB8F1010F2FD1E5
:100FC00000250095019502954FF4004101232A4622
:100FD00028460395FFF710FE134FBF1D385D0090A4
:100FE0008DF804500295ECB102208DF80C00684693
:100FF000FFF718FF3146385DFFF7C6FC385D012169
:10100000FFF71EFF385D0121083040B200F01F02DB
:10101000914040094FF0E02202EB8000C0F800113F
:10102000BDE8FF810320E0E75A3C0000FEE7000036
:101030002DE9FE438846044600254FF480410F0405
:10104000194E2846BC4202D14FF4824103E0B4421B
:1010500001D14FF4844101232A46FFF7CDFDBC4264
:1010600002D106220C2103E0B44204D10622302131
:101070000020FFF79FFC0120ADF80400ADF80850F8
:10108000CDF80080ADF80650ADF80A50694620460C
:1010900000F0A7FF0121204600F0D6FF01212046E5
:1010A00000F0BCFFBDE8FE830000044070B54FF0C7
:1010B0007E551A4CFFF742FD2068294620F000407B
:1010C000FFF796FA0FD36068294620F00040FFF73B
:1010D0008FFA08D304F118001149806820F000400D
:1010E000FFF786FA18D2A0680146FFF7B9F805465F
:1010F00060680146FFF7B4F8064620680146FFF72E
:10110000AFF83146FFF754F82946FFF751F8054983
:10111000884201DD012070BD002070BD4407002021
:101120000000484433335340FEE770470149002034
:10113000487070475000002070B500F095FA00210B
:101140004FF4C02001230A46FFF756FD0F4C012241
:101150007D212046FFF7B7FE0D4D0022FF212846D6
:10116000FFF7B1FE0122FF212846FFF7BCFE012256
:10117000FF212846FFF7AFFE10212046FFF7A1FE12
:101180002046BDE870404021FFF7C9BE00200B405B
:1011900000400B4003484078022801D000207047EF
:1011A0000120704750000020F8B500248DF8004061
:1011B0008021122000F0A8FB00280BD00B22012177
:1011C000684600F069FA002804D09DF80000212844
:1011D00001D00020F8BD094DAE1E0AE005EB440029
:1011E000417815F8140000F08FFB0028F2D0641C41
:1011F000A4B230788442F1D30120F8BD520000201F
:1012000010B5032403E0FFF7CFFF012802D0641ECE
:10121000601CF8D110BD00007FB500244FF40036EB
:101220002246012311463046FFF7E6FC164D002208
:1012300080212846FFF747FE012280212846FFF73C
:101240004AFE002280212846FFF74DFE0F4BB510C5
:101250001D604FF44041012322463046FFF7CCFC8D
:101260000720009002208DF80C008DF804400294B5
:101270006846FFF7D7FD01210720FFF785FB012115
:101280000720FFF7DDFD7FBD00200B4000E100E0FF
:10129000062801D2074A00E0074A01D3A0F1060060
:1012A00000EB8000136801FA00F143EA01031360C8
:1012B00070470000280109402C0109400A4A00EB50
:1012C000400002EBC000D1E904231A438B691A43A2
:1012D00002600A6842604A688260CA68098942EA14
:1012E00001410161704700000000094030B5002451
:1012F000224687B0102001231146FFF77DFC124DD6
:101300000121284600F094FE10486946CDE90050BE
:101310004FF4486006906815059021200290012046
:10132000CDE903040720FFF7C9FF012209210720A7
:1013300000F03AF80121072000F00AF80121072007
:1013400000F04AF807B030BD00000440200700203C
:10135000084A00EB400002EBC00000F07042C0F30E
:10136000130002EB401000F1007001B10121016097
:101370007047000000000940062801D2084A00E03A
:10138000084A01D3A0F1060000EB8000126801FAC0
:1013900000F10A4201D00120704700207047000090
:1013A0002001094024010940062801D2084B00E031
:1013B000084B01D3A0F10600002A00EB80001A6858
:1013C00001FA00F101D00A4300E08A431A60704735
:1013D0003001094034010940084A00EB400002EBAB
:1013E000C00000F07042C0F3130002EB401000F1A7
:1013F000007001B101214160704700000000094008
:101400000F4A0E48012111600E4903E0D1F808216E
:10141000272A03D0401EF9D101207047D1F82402B9
:10142000D1F82432C043C1F82402D1F824228242E8
:10143000F9D1C1F824320020704700000051250284
:101440000083084000A0064006480121C0F80411AE
:10145000D0F804110029FBD1D0F800110029FBD1EC
:101460007047000000A0064070B50C490C680B4D99
:1014700048352B6801220A6000222A60084E32613A
:1014800032600C6007490A6842F004020A6010B139
:1014900030BF2B6070BD20BFFBE700001806104373
:1014A0008C20D44210ED00E02DE9F05F06460020CC
:1014B0006221401C06F8011B0328FADB1F4FDFF8EE
:1014C0008090DFF880B000244FF00A0A57F824001B
:1014D00010F1FF4F06D380F0004047F8240099F840
:1014E000010001E099F8000004EB440106F8110046
:1014F00057F824001449FEF7B3FE47F824000525E9
:1015000004EB440857F82400FFF729F890FBFAF29F
:101510000AFB120106EB480019F80110415557F873
:1015200024005946FEF7D2FE6D1E47F82400012D17
:10153000E8DA641C032CC9DBBDE8F09F44070020F7
:10154000000000200000204100007A4470470000A5
:101550002DE9FF4F044681B00846FFF719F8002235
:101560003E4BFEF765FF3E4A3E4BFEF7EFFEFFF7B0
:1015700022F8FFF70DF80F46054602F079FAFFF75B
:101580001AF806462846394601F00AFAFFF713F81A
:10159000054601464FF07E50FEF75CFE0090039931
:1015A000FEF75EFE07460399FEF75AFE2946FEF750
:1015B000FFFD206030460E99FEF752FE8146C84678
:1015C00038460499FEF74CFE82464146FEF7F0FD90
:1015D000606030460499FEF743FE804638460E9917
:1015E000FEF73EFE83464146FEF734FEA0604946C4
:1015F0005046FEF72FFEE06004990098FEF730FE9B
:1016000007460499FEF72CFE2946FEF7D1FD20611E
:1016100030460399FEF724FE064638460E99FEF73B
:101620001FFE07463146FEF7C3FD6061414658463E
:10163000FEF7BEFDA06131463846FEF70BFEE061C5
:101640000E990098FEF70CFE0E99FEF709FE29464A
:10165000FEF7AEFD206205B0BDE8F08F0080664069
:101660004AD8124DFB21094010B500214FF400204B
:1016700001230A46FFF7C0FA064C0122302120461A
:10168000FFF721FC20460122BDE810403021FFF782
:1016900022BC000000600B4070B516460C460546A3
:1016A00000F0B6F800281AD0422000F083F800F0CD
:1016B000F9F888B1304600F07DF800F0F3F800F05A
:1016C000D3F800F0A5F8002809D0432000F072F804
:1016D00000F0E8F81A4E20BB00F0C6F8002070BDFC
:1016E00000F030F82870012C4FF0100130461ED069
:1016F000FFF7E7FB00F027F920213046FFF7E1FB79
:1017000000F021F910213046FFF709FC00F01BF929
:1017100010213046FFF7D5FB00F015F96D1C641E53
:10172000A4B2002CDCD100F09FF8012070BDFFF7BF
:10173000C8FB00F008F920213046FFF7F0FBDFE797
:1017400000600B4070B51A4E082500242021304659
:10175000FFF7E5FB002220213046FFF7B4FB00F045
:10176000F2F814E06006040E10213046FFF7A9FBE2
:1017700000F0E9F810213046FFF7D1FB00F0E3F864
:1017800020213046FFF7C3FB08B144F001042800D4
:10179000A5F10105EDB2E5D110213046FFF791FB2F
:1017A000012220213046FFF78EFB204670BD00004D
:1017B00000600B4070B505460824144E17E0FFF793
:1017C00080FB00F0C0F828064FF02001304602D51B
:1017D000FFF7A5FB01E0FFF774FB6806050E00F0BC
:1017E000B2F810213046FFF79AFB00F0ACF8200069
:1017F000A4F10104E4B24FF010013046DFD1FFF74D
:1018000060FBBDE8704000F09EB8000000600B4037
:1018100010B5144C20212046FFF781FB00F093F80F
:1018200010212046FFF77BFB00F08DF82021204699
:10183000FFF76DFB00280BD020212046FFF741FB6E
:1018400000F081F820212046FFF761FB08B100205D
:1018500010BD10212046FFF734FB00F074F8012082
:1018600010BD000000600B4010B50D4C102120464B
:10187000FFF727FB00F067F820212046FFF721FB48
:1018800000F061F810212046FFF749FB00F05BF8FB
:1018900020212046FFF743FBBDE8104000F053B87D
:1018A00000600B4070B5174D10212846FFF709FB6B
:1018B00000F049F820212846FFF731FB00F043F8FB
:1018C000002220212846FFF7FEFA00F03CF8102104
:1018D0002846FFF724FB00F036F820212846FFF7C2
:1018E00016FB08B1002400E0012410212846FFF770
:1018F000E8FA00F028F8012220212846FFF7E3FA51
:10190000204670BD00600B4070B50D460446FFF7E1
:101910007FFF002812D04220FFF74CFFFFF7C2FFE5
:1019200068B1E0B2FFF746FFFFF7BCFF2846FFF7BC
:1019300041FFFFF7B7FFFFF797FF012070BDFFF7EB
:1019400093FF002070BD4FF4C870401E0004000CCF
:10195000FBD1704710B56FF010014FF0402000F040
:10196000BCFABDE81040FF2000F03ABA70B5054659
:101970004FF6FF7401E0641EA4B2FF2000F030FABD
:10198000A84202D0002CF6D102E00CB1002070BDBC
:10199000FF2070BD2DE9F8437F2000F049FA0024B4
:1019A000FF2000F01DFA641C0A2CF9DB4E4E1424B3
:1019B00000219522084600F022F90546012805D0AD
:1019C0002000A4F10104A4B2F2D17EE087224FF4FA
:1019D000D571082000F013F94FF6FE78012820D0C9
:1019E00001220021372000F00AF9012200212920DC
:1019F00000F005F9012850D8022030704446012239
:101A00000021372000F0FBF801220021292000F0FE
:101A1000F6F8050050D02000A4F10104A4B2EED1E4
:101A20004AE000246F46FF2000F0DAF93855641CC4
:101A3000042CF8DB9DF80200012846D19DF8030034
:101A4000AA2842D144464FF0804801220021372085
:101A500000F0D5F801224146292000F0D0F8050019
:101A600004D02000A4F10104A4B2EED16CB3012291
:101A700000213A2000F0C3F838BB0024FF2000F01A
:101A8000AFF93855641C042CF8DB9DF800004006C3
:101A900001D5062018E0042016E0012030704446ED
:101AA00001220021104600F0AAF8050004D0200011
:101AB000A4F10104A4B2F3D12CB1012251021020EF
:101AC00000F09DF808B100203070FFF743FF0320BD
:101AD00000F0AEF9307810B10020BDE8F8830DB108
:101AE0002846FAE7AA20F8E74A0000202DE9F0414D
:101AF0000646184815460078062800D049024FF4DB
:101B00000077012D4FF0010219D0122000F077F874
:101B10003946304600F020F86D1E044606F5007682
:101B200015F0FF0501D0012CF2D0012200210C207C
:101B300000F065F8FFF70EFF2046BDE8F0811120A8
:101B400000F05DF80400F5D13946304600F004F8A5
:101B50000446EFE74A00002070B504460D46FE201B
:101B6000FFF704FF28B1002070BD00F039F904F838
:101B7000010B2800A5F10105ADB24FF0FF00F4D133
:101B800000F02EF9FF2000F02BF9012070BD00F0CD
:101B9000EDB810B510214FF0402000F09EF900F094
:101BA00075F808B1012010BDFFF7D4FE002010BD6C
:101BB00070B50C46054600F069F800281CD0204698
:101BC00000F00EF9FD2C18D000244FF40076285DAB
:101BD00000F006F9641CA4B2B442F8D3FF2000F070
:101BE000FFF8FF2000F0FCF8FF2000F0F9F800F00B
:101BF0001F00052801D0002070BD012070BD70B508
:101C000016460C460546FFF7A5FEFFF7C2FFB8B122
:101C100045F0400000F0E4F8200E00F0E1F8C4F3D5
:101C2000074000F0DDF8C4F3072000F0D9F8E0B277
:101C300000F0D6F8304600F0D3F80C2D02D004E0C6
:101C4000FF2070BDFF2000F0CBF81F24FF2000F024
:101C5000C7F80106F5D52100A4F10104E4B2F5D1DD
:101C600070BD70B505244FF4FA7502E0284600F007
:101C7000B5FF641E002C04DDFFF78CFE0028F5D1B3
:101C800000E00CB1012070BD002070BD70B50024D3
:101C90006FF07F4504E0FF2000F0A2F8FF2804D099
:101CA000641CAC42F7D3002070BD012070BD000061
:101CB00070B506461D4815460C460078062800D02B
:101CC0004C02012D13D0012809D001220021372018
:101CD000FFF795FF012229461720FFF790FF012209
:101CE00021461920FFF78BFF04000AD01AE00122D9
:101CF00021461820FFF783FF040013D1FE21304650
:101D00000DE0FC213046FFF753FF6D1E06F500760F
:101D100015F0FF0501D00128F3D0FD210020FFF7C9
:101D200047FF0446FFF716FE204670BD4A0000201C
:101D300010B54FF080440121204600F04DF90028F5
:101D4000F9D02046BDE8104000F065B970B50446F2
:101D5000C1B24FF08045284600F074F94021284672
:101D600000F03AF90028F9D0204670BD10B50024E3
:101D70004FF40020102101232246FEF73DFF0022F0
:101D80004FF400711448FFF7AEF805224FF4F051FC
:101D90000320FEF70FFE11484FF48041C0E9001404
:101DA0000821C0E90214046144618461C461042112
:101DB0000462C0E9094101464FF04024204600F08A
:101DC00058F80121204600F07CF82046BDE810407C
:101DD000012100F03DB8000000600B40F406002037
:101DE00070B50646C8244FF0402503E0641E14F089
:101DF000FF041AD00121284600F034F80028F5D05D
:101E00003146284600F067F8C82403E0641E14F049
:101E1000FF040AD00421284600F024F80028F5D059
:101E2000284600F04BF8C0B270BD002070BD000025
:101E300010B506494FF040248862204600F019F89A
:101E40002046BDE81040012100F002B8F406002051
:101E50000029016802D041F0010101E021F00101F7
:101E6000016070470246002052690A4200D00120FA
:101E7000704730B5D1E90543E4B14FF40072DA4060
:101E800022438C680B682343D1E903452C43234349
:101E9000CC692343134343604B6A4A681A430B6A75
:101EA00042EA03128261896A4FF0FF3202EB51016C
:101EB000C16030BD4FF480729A40E2E7006980B2A1
:101EC00070470029016802D041F0080101E021F0CB
:101ED000080101607047016170471131016802D04B
:101EE00041F0100101E021F01001016070477047DE
:101EF0004FF0E0210428086903D020F004000861B5
:101F0000704740F00400FAE710B56FF00400FFF7E7
:101F1000EFFF42F2283000F021F8BDE81040012028
:101F200000F010B84FF0E02130B10128086906D068
:101F300020F001000861704700208861704740F080
:101F40000100F7E74FF0E0210028086902D040F0D7
:101F5000020001E020F00200086170474FF0E0212C
:101F60004861704700F02EB813480121C0F80013F3
:101F7000124AC2F8A810D2F80831002BFBD0002377
:101F800013624FF010638361C2F8A410D2F80431D9
:101F9000002BFBD00A4A136823F00703DB1C1360F5
:101FA0000162426822F00302521C4260426BB1EBB4
:101FB000927FFBD170470000008008400000104372
:101FC0000002084003480168002902D00168491E48
:101FD000016070474C0000208069084000D001205B
:101FE000704770B505460C46C88889882A69084339
:101FF000218922F01F02114308432861686A618920
:1020000020F0030008436862FEF7EEFD2168B0FB94
:10201000F1F0A86370BD006880B270470029C16804
:1020200002D041F4007101E021F40071C1607047F9
:102030000029416A02D041F0200101E021F0200195
:1020400041627047016070470029C16802D041F4C5
:10205000807101E021F48071C1607047FEE71CB51A
:1020600000220092012301920DF800309DF800102B
:10207000104661F310409DF8011061F351409DF846
:10208000021061F392409DF8031061F3D3409DF874
:10209000041061F314509903FEF7AEFD1CBD00005F
:1020A0000FB4054B10B503A9044A029800F05CFB7D
:1020B00010BC5DF814FB0000DF340000F8000020C5
:1020C0000FB4084B10B504A902AA039800F04CFB0A
:1020D000044602A9002000F023FC204610BC5DF855
:1020E00014FB000021290000490050EAC12018BF5C
:1020F00004204A0D18BF40F0010040F2FF72B2EB1D
:10210000515F08BF40F00200012808BF052070475A
:102110002DE9F74F144696B00021C4E90211179932
:10212000089121F00045CA498D4206DC1799C4E99F
:10213000000119B00020BDE8F08FC649DFF818A3F0
:10214000A9423CDD0899C54E0029C54FC54A1799DB
:10215000534619DDFEF7A2FB554506D0C24AC34BD4
:10216000FEF79CFBC4E900010AE04FF0D352BF4BDD
:10217000FEF794FB32463B46FEF790FBC4E90001B4
:1021800019B00120BDE8F08FFEF7E7FA554506D0FB
:10219000B54AB64BFEF7E1FAC4E900010AE04FF098
:1021A000D352B24BFEF7D9FA32463B46FEF7D5FA88
:1021B000C4E9000119B04FF0FF30BDE8F08FAC4921
:1021C000A942179978DB21F000488346A94AAA4B17
:1021D0004146FEF7BBF80022A84BFEF7BEFAFEF719
:1021E000B3FB0990FEF7AAF906460F469D4A5346EF
:1021F000FEF7ACF85A464346FEF753FB80468A4644
:10220000994A9A4B30463946FEF7A0F82A0D012527
:102210000B9242465346FEF744FB032DC4E90001EE
:1022200039D00B98C1F30A51401A05EB4511113909
:10223000814230DA9248C346784400EB0510CDF86D
:102240001CA00C90D0E9002330463946FEF77EF8FA
:10225000CDE9020102460B4658460799FEF71EFBE0
:1022600080468A4602460B4658460799FEF716FBFB
:10227000DDE90223FEF712FB83460C9803913946F1
:10228000D0E902233046FEF761F85A46039BFEF779
:1022900005FB6D1CBDE708980028A2BF099819B07E
:1022A000BDE8F08F616881F000416160099819B064
:1022B0004042BDE8F08FFFE7C1F3130141F4801104
:1022C0000E911799C1F30A51A1F2F532511102F0A2
:1022D0001F08C8F12002129200220C920D92694A46
:1022E0007A4402EB810101F1140C0DA95FF006079D
:1022F000DCF80020DCF8045002FA08F3129AD1F856
:1023000000A025FA02F21A430E9BA2FB0356A2FB81
:1023100000329A4415449A4534BF4FF0010B4FF0F8
:10232000000B51F8043C05EB0B0E7344954234BF8F
:10233000012200221644BBF1000F02D0AB4202D9A9
:1023400003E0AB4201D2012200E000223244C1F896
:1023500000A041E90223091FACF1040C7F1EC7D184
:102360000898DDE90A6500F10050800F1190089887
:10237000099F8000FEF7E2F880468A463846FEF75D
:10238000D6FA6FF01D02FEF7C2F8074630460591F7
:10239000FEF7CDFA6FF03D02FEF7B9F8CDE9031074
:1023A0002846FEF7C4FA6FF05D02FEF7B0F8064665
:1023B00002460B460191DDE90310FEF7CEF93A46DD
:1023C000059BFEF7CAF942465346FEF7C6F90020C0
:1023D0000D46834642465346FEF760FA3A46059B51
:1023E000FEF75CFADDE90332FEF758FA3246019B4C
:1023F000FEF757FADFF89480234A4346FDF7A6FF1D
:1024000006460F46224A234B58462946FDF79EFFB3
:1024100032463B46FEF7A1F90F4606464FF0A8426A
:10242000434658462946FDF791FF32463B46FEF7A4
:1024300094F9179A12F0004F04D0119A81F00041DC
:1024400052421192C4E90001119819B0BDE8F08F11
:10245000FB21E93F7CD90240FB21F93F7370032E39
:102460008A19A33B000040543163621A61B4D03D25
:10247000FB21394183C8C96D305FE43F0000E03F74
:102480009C1A0000241A0000182D4454FB21F93D29
:102490003326A611460B113C2DE9FF4D21F00048D3
:1024A00007460C46B8F1795F08DAFEF74DFA0028C6
:1024B00001BF0020324904B0BDE8F08D3A46234602
:1024C00010461946FDF742FF054602462D480E46C6
:1024D0000B460621784400F05DF82A463346FDF7A6
:1024E00035FFDDE9022382468B4638462146FDF75B
:1024F0002DFF04460F4652465B4628463146FDF7FF
:1025000025FF22463B46FEF7C9F907468A464FF0AB
:10251000FF3228463146FDF7FAFF1B4A90450ADA9A
:102520003A465346FEF7BAF904B00022BDE8F04D32
:10253000134BFEF7B6B9154A4245A8BFA8F50015DA
:102540004FF00004B8BF124D22462B46FEF7A6F905
:102550000646884622462B4600200949FEF79EF98A
:1025600004460D463A46534630464146FEF796F934
:1025700004B022462B46BDE8F04DFEF792B90000AC
:102580000000F03FD01700003333D33F0000E93F95
:102590000000D23F2DE9F0414F1E00EBC701044679
:1025A000D1E9000115461E4637F006020DD02A4635
:1025B0003346FDF7CBFE7F1E04EBC703D3E90023B0
:1025C000FEF7CBF837F00602F1D1022F25D0042F09
:1025D00013D0062F18BFBDE8F0812A463346FDF719
:1025E000B5FED4E90A23FEF7B8F82A463346FDF7CC
:1025F000ADFED4E90823FEF7B0F82A463346FDF7CE
:10260000A5FED4E90623FEF7A8F82A463346FDF7CF
:102610009DFED4E90423FEF7A0F82A463346FDF7D1
:1026200095FED4E90223FEF798F82A463346FDF7D3
:102630008DFED4E90023BDE8F041FEF78EB800001E
:102640002DE9FF4D054621F0004084B00C46B0F165
:10265000795F0BDA2846FFF747FD042808BF00F032
:1026600065F8284608B02146BDE8F08D2A460B469D
:102670001046FDF76BFE06460F462A462346FDF739
:1026800065FE804626488A4632463B460521784408
:10269000FFF780FF83461098029160B3214A224BD6
:1026A00040465146FDF752FECDE900015A464046EC
:1026B0005146029BFDF74AFE82468846DDE9060147
:1026C0004FF0FF32FDF723FF52464346FEF7E6F890
:1026D00032463B46FDF73AFEDDE90623FEF7DEF81B
:1026E000DDE90023FEF7DAF808B02A462346BDE804
:1026F000F04DFEF7D6B80B465A4630463946FDF740
:1027000025FE084A084BFEF728F842465346FDF7D7
:102710001DFE08B02A462346BDE8F04DFEF71DB861
:102720000E170000495555555555C5BF024A0020A2
:102730001107FDF7ECBE000001FDFFFF02E008C835
:10274000121F08C1002AFAD170477047002001E02B
:1027500001C1121F002AFBD1704700000149086027
:1027600070470000000100202DE9FF4F8BB09A4612
:102770000F4605460026C9E0252837D100246D1CE8
:102780006649A04601222B78203B02FA03F008425A
:1027900002D004436D1CF6E728782E2817D115F8CF
:1027A000010F44F004042A280ED06FF02F0228787D
:1027B000A0F1300109290AD808EB880102EB410198
:1027C00000EB01086D1CF2E757F8048B6D1C2878AC
:1027D00069283FD006DC002871D063280CD064281B
:1027E00004D137E0732811D075284ED052460D9988
:1027F000904706F1010688E017F8040B8DF80000F9
:1028000000208DF80100E946012003E057F8049B01
:102810004FF0FF3061074FF0000401D40AE0641C60
:1028200044450DDA8442FADB19F804100029F6D188
:1028300006E0641C8442FCDB19F804100029F8D17E
:10284000264404E019F8010B52460D999047641E86
:10285000F8D25AE001CF4FF00A0B002804DAC0F199
:1028600000004FF02D0102E0210504D52B218DF849
:102870002410012103E0E10705D02021F7E70DF145
:10288000200908910CE00021F9E701CF4FF00A0B75
:10289000F9E75946FDF7B6FE01F1300209F8012DBE
:1028A0000028F6D1ADEB090000F1200B600701D440
:1028B0004FF00108D84503DDA8EB0B0001E029E04B
:1028C00000208046002406E009A85246005D0D99CC
:1028D0009047761C641C08988442F5DB04E03020A5
:1028E00052460D999047761CB8F10001A8F10108F5
:1028F000F5DC05E019F8010B52460D999047761C5E
:10290000BBF10001ABF1010BF4DC6D1C2878002851
:102910007FF432AF0FB03046BDE8F08F09280100D8
:102920000A68531C0B6010707047000010B5044615
:1029300000202071401EE062204600F0FEFE08B13B
:10294000032010BDB4F82E02A0F52A41553901D05C
:10295000022010BD94F86600B4F8671040EA012127
:102960000848B0EB012F08D094F88210B4F8832007
:1029700041EA0221B0EB012F01D1002010BD01205E
:1029800010BD0000004641544269891E921E8A42D1
:1029900001D800207047826A807801FB00207047D0
:1029A00000B5284B21F0004287B09A42DCBF0022DC
:1029B000134631DD244B9A420DD168B94FF0010026
:1029C000FFF7CCFE002207B01346104611465DF813
:1029D00004EBFDF72DBD06DB07B04FF001025DF8FB
:1029E00004EBFDF794BD02AAFFF792FB10F0030180
:1029F00004BF0DF1080CBCE80F000DD00120012927
:102A00000ED0022914D00DF1080C0090BCE80F0084
:102A1000FFF716FE07B000BDFFF73EFD07B000BD93
:102A20000DF1080C0090BCE80F00FFF709FE05E06F
:102A30000DF1080CBCE80F00FFF72EFD07B081F088
:102A4000004100BDFB21E93F0000F07F2DE9F0418E
:102A50000F00064606D000F044FD022809D20120EE
:102A6000BDE8F081F56815B17069A84207D8012565
:102A700005E0411CF4D071698142F1D83D462C46F5
:102A80007069641CA04202D80224022D0AD3214698
:102A9000304600F026FD38B1411CE1D00128DFD0DE
:102AA000AC42EDD10020DBE76FF0704221463046AA
:102AB00000F05CFE30B957B122463946304600F08E
:102AC00055FE20B101280DD001242046C8E7F4604E
:102AD0003069411CF9D0401E3061707940F001002E
:102AE0007071F2E74FF0FF34EFE700002DE9F04797
:102AF00089460C6800E0641C21782F29FBD05C29F2
:102B0000F9D085690B222021284600F00FFE002015
:102B1000024617464FF0080CE15D7F1C20292ED994
:102B20002F292CD05C292AD02E2901D060450AD328
:102B3000BCF1080F30D12E292ED1082091064FF07C
:102B40000B0C0A0EE8E7802926D220A300E05B1CCC
:102B50001E7816B18E42FAD11EE0A1F14103192B65
:102B600002D842F0020207E0A1F16103192B03D859
:102B7000203942F00102C9B22954401CCCE73C4440
:102B8000C9F80040202901D8042100E0002118B133
:102B90002878E52803D004E00620BDE8F08705206A
:102BA0002870BCF1080F01D19006020E02F003005C
:102BB000012801D141F01001C2F38100012801D1A7
:102BC00041F00801E9720020E7E70000222A2B2CDF
:102BD0003A3B3C3D3E3F5B5D7C7F000010B50446C8
:102BE0000120FFF79FF906490C6008680028FCD116
:102BF000801EFFF797F9BDE810400020FFF792B95B
:102C00004C0000202DE9F041C78804467F1C3804A1
:102C10000E46000C2CD0206950B339075AD1401C05
:102C20002061E168206829B18278521E12EA171FDC
:102C300004D04FE00089B8421AD94BE000F051FCB3
:102C40000546012819D9681C30D020684169A9427D
:102C50003AD86EB1E168FFF7F9FE05000BD0012DFF
:102C60000BD0681C22D0206800F0BAFFF0B906E053
:102C70000420BDE8F0810720FBE70220F9E7206887
:102C80004FF400723030002100F050FD29462068DA
:102C9000FFF77AFE216800264FF00108C8620CE0B9
:102CA00080F80480206800F09BFF08B10120E0E775
:102CB0002068C16A491C761CC16220688178B142D3
:102CC000EED8C16A891BC162E56029462068FFF71A
:102CD0005BFE2061E78007F00F013022206802EBE5
:102CE0004111084460610020C3E770B50446012625
:102CF000002100F032F888B900252169206800F031
:102D00001CFD58B961690978E5290AD049B1002547
:102D100001212046FFF776FF0028EED0042804D0DA
:102D200004E06D1CB54201D0F2E70720050012D186
:102D30002169206800F001FD05000CD1202200214E
:102D4000606900F0F3FCD4E905010B2200F0E6FC19
:102D5000216801200871284670BD70B5C180836864
:102D60000D460446012B34D020684169994230D980
:102D700023B90178032904D1436A13B1807806018D
:102D800010E00189A94224D9406A11E000F0A9FBB2
:102D90000346401C1BD0022B1BD32068406998427D
:102DA00017D9AD1B2068B5421946EFD2FFF7ECFDED
:102DB000E36070B100EB1510206105F00F013022C7
:102DC000206802EB411108446061002070BD0120C1
:102DD00070BD022070BD10B518B9FEF7DBFD0028EC
:102DE00000D0012010BD002800D00420704770B52D
:102DF00014460D4630B9DAB221462846FEF776FE73
:102E0000012801D0042070BD002070BD002800D032
:102E10000120704770B514460D4630B9DAB221462C
:102E20002846FEF745FF012801D0042070BD002090
:102E300070BD10B5044600F002F9002806D1204606
:102E400000F0F7FE002801D10021216010BD000034
:102E500017B581B0144602980090684600F0A2FBB6
:102E6000002802DA0B2004B010BD0B4B002253F8EF
:102E7000201001B10A700199002900D00A7043F8AE
:102E8000201001D0012C01D00020ECE7002202A983
:102E900001A800F0B3F9E6E7F40000202DE9F74FB0
:102EA0008CB006000CD0002002F01F07306027F025
:102EB00001020DA9684600F0A1F9050004D0BCE0AC
:102EC00009200FB0BDE8F08F08A8069068460D995C
:102ED00000F0B0FA059C050001D104B9062517F0F1
:102EE0001C0F7DD055B1042D03D16846FFF7FDFEC0
:102EF0000546059C47F0080745B19EE0E07A10F0D2
:102F0000110F7CD1780701D5082596E038077CD5CC
:102F100000F046FBA073C0F30721E173C0F3074242
:102F20002274030E6374A075E17522766376002027
:102F3000E07220776077A077E0772146009800F074
:102F400051FB83460021204600F0EAFD0099012054
:102F5000BBF1000F087156D00098009DDA46C06A98
:102F60000790BBF1020F02D36969514501D80220D5
:102F700019E04FF0000922E00146284600F0B1FABE
:102F80005FEA00081FD0B8F1010FF0D018F101007E
:102F900008D000225146284600F0E8FB5FEA00090D
:102FA00011D102E0012081460DE02869411C05D0C5
:102FB000401C2861687940F001006871C246696967
:102FC00050465145D8D85FEA090536D10099ABF192
:102FD0000100C8600799009800F0AFFB050002E00F
:102FE00003E00CE011E00CD027E035BBE07AC1062D
:102FF00001D5042521E0B90703D5C00701D0072575
:103000001BE0380701D547F0200700982146C06A29
:10301000C6E90704B7710027F771009800F0E2FADB
:103020003061207FD4F81D1040EA0120C6E902700B
:10303000B76100983060C088B080284641E770B51D
:10304000044600F0F6FD002834D1A179890631D577
:10305000E169206800F071FB00282BD1256AE87A2D
:1030600040F02000E872207B2877A089000A68776A
:10307000E068000CA877E068000EE8772846216930
:1030800000F04EFD00F08CFAA875010AE975010CFC
:103090002976000E68760020A874E874A07920F0E4
:1030A0002000A0712168012008712068BDE87040EF
:1030B00000F03EBD70BD2DE9F05F894600219A46C3
:1030C00016460446196000F0B4FD002806D1E079E8
:1030D000002803D1A079800702D40720BDE8F09F23
:1030E000A0684FF0010B8119814279D376E0A06886
:1030F000C1054BD122689178491E01EA502111F097
:10310000FF0512D108B1616902E0206928B90021E8
:103110001046FFF79BFC002862D0012824D0411CF8
:1031200041D06061216901B920612068A269C16A4A
:10313000914202D100F054FDA8BB61692068FFF7FD
:1031400023FC88B100EB0508770A12D02068EA1941
:1031500081788A4200D94F1B40783B464246494617
:10316000FFF758FEF8B902E00220E071B6E77D02F1
:103170002AE0D4E90201884206D3206800F030FD3D
:1031800088B92168C1F82C80C4F818802089C0F360
:103190000800C0F50075B54200D93546A169206820
:1031A00000F0CBFA18B184F807B0012096E7208927
:1031B0002168C0F30800303008442A46494600F030
:1031C000ADFA216881F804B0A068A9442844A06041
:1031D000DAF800004119761BCAF80010002E86D1DB
:1031E000D4E90201884200D9E060A07940F02000D3
:1031F000A071002072E7FEF79BBD00002DE9FF479C
:103200004FF000090746C0F800901646084600F047
:10321000C9F9051E03DA0B2004B0BDE8F087824827
:1032200050F825408CB13C60207820B16078FFF7E1
:10323000EDFDC1070BD084F80090E8B26070FFF795
:10324000CAFDC10708D00320E6E70C20E4E70EB171
:10325000400704D40020DFE71EB1400701D50A2053
:10326000DAE7002529462046FFF760FB012821D137
:1032700000206E4604EB001101F5F7710A792AB1BE
:103280000A7AD1F8091042EA012100E0002146F84B
:103290002010401C0428EDD3002756F8275025B1F4
:1032A00029462046FFF742FB00E0022040B17F1C88
:1032B000042FF2D3032801D0F0BB01E00120ABE7DB
:1032C000B4F83B00B0F5007F5DD1B4F8461029B9E1
:1032D00094F85400D4F8551040EA0121A16194F803
:1032E00040C084F803C0BCF1010F02D0BCF1020F52
:1032F00049D194F83D600CFB01FCA670E6B1701E4C
:10330000064240D1B4F84120228110073BD1B4F8E5
:10331000430028B994F85000D4F8513040EA032013
:10332000E38F4BB103EB0C0707EB1217B8422AD31C
:10333000C01BB0FBF6F000E025E020B3012640F60C
:10334000F678404500D302264FF6F678404500D384
:103350000326801C2F44A7622B446061C4E90753F5
:10336000032E12D07AB103EB0C026262022E17D048
:1033700000F0010200EB400002EB500000F2FF10F1
:10338000B1EB502F0ED20D2046E7002AFBD194F866
:103390005C20D4F85D30800042EA03226262EDE7EF
:1033A0004000EBE74FF0FF302061E060802060716B
:1033B000032E30D1B4F8600001282CD1691C2046BE
:1033C00000F0BBF938BB84F80590B4F82E02A0F5E4
:1033D0002A4155391FD194F83000D4F8311040EA11
:1033E00001201249884216D194F81402D4F815121B
:1033F00040EA01200E4988420DD194F81802D4F811
:10340000191240EA0120206194F81C02D4F81D1220
:1034100040EA0120E06004492670091F0888401C2A
:103420000880E08016E70000F4000020525261415D
:103430007272416173B50446019908782F2801D052
:103440005C2801D1491C01910025A56001980078F4
:10345000202805D200212046FFF77FFC65617CBD56
:1034600001A92046FFF742FB0028F8D100212046A1
:10347000FFF773FCF8B92169206800F05EF9D0B954
:1034800061690A7872B1CA7A12070ED40B25A26953
:1034900000236D1E08D311F8013B12F8016B9B1B32
:1034A000F7D002E0042006E02BB100212046FFF710
:1034B000A9FB0028DFD0A169C97A28B10428CED1A0
:1034C0004907CCD405207CBD4907FCD46169C87A82
:1034D000C006F7D5206800F085F8A060C0E7FEF7C9
:1034E00035BC2DE9F0410D46044602290BD3606935
:1034F000A84208D920784FF0FF36012807D00228CB
:103500002BD0032836D001263046BDE8F081206A52
:1035100005EB550700EB5721204600F00EF9002877
:10352000F2D1C7F3080020447F1C90F83080206A55
:1035300000EB5721204600F000F90028E4D1C7F342
:103540000800204490F8301048EA0120E90701D033
:103550000609D9E7C0F30B06D6E7206A00EB152170
:10356000204600F0EAF80028CED1E8B204EB400093
:10357000068EC9E7206A00EBD511204600F0DDF881
:103580000028C1D140F2FF1000EA8500204490F8E5
:103590003010D0F8310041EA002020F07046B3E747
:1035A0000020704710B503464FF0FF301C68002C18
:1035B00013D0214600E0491C0A78212A0ED33A2A6A
:1035C000F9D114F8012B303A0A2A06D28C4204D1E0
:1035D000002A02D1491C1046196010BD002010BD00
:1035E000FFF709BE0246488B1278032A02D1898A66
:1035F00040EA01407047000086B00024FEF784FCDA
:103600004FF416514FF08040FDF712FD4FF4E131B9
:103610003D48FDF70DFDFDF769FEFEF7B8FAFEF730
:1036200020FB00F041F9FDF787FDFDF7E9FDFDF70F
:10363000F3FD4FF40078354E0122454641463046B1
:10364000FDF741FC002229463046FDF76AFC37159C
:10365000002239463046FDF736FC01223946304615
:10366000FDF741FC012239463046FDF734FC00F0FD
:10367000F7F8FDF717FCFDF739FE012508210720B3
:10368000FDF77AFE012833D12148007855282BD147
:1036900039463046FDF73BFC01280AD1641C0A2C50
:1036A00007DB6846FDF700FF69461AA0FEF7F8FC45
:1036B0000024FDF7FBFC012816D1012241463046CB
:1036C000FDF72FFC6846FDF7EFFE694611A0FEF7F7
:1036D000E7FC002400F0F8F83220FFF77FFA641CC2
:1036E0000A2CF7DBFDF79AFA08210720FDF7D0FD39
:1036F0006420FFF773FA02210748FDF708FC012850
:10370000B7D0002DBAD1B4E70000044000400B4010
:103710002007002025730A0000800B4003E011F809
:10372000013B00F8013B521EF9D27047C9B201E0DB
:1037300000F8011B521EFBD2704770B50446C06AE8
:103740000E460025B0420FD0204600F049FA050091
:103750000AD160780123324604F13001FFF747FBBC
:1037600008B16E1E0125E662284670BD2DE9F047BE
:1037700016460D460446022902D36069A84202D8C3
:103780000220BDE8F087207806F0FF084FF001091D
:10379000012820D0022850D00328F1D1206A00EB64
:1037A000D5112046FFF7C9FF0028EAD140F2FF11EA
:1037B00001EA8501214430314FF07043D1F80120F6
:1037C00003EA022232430A70130A4B70130C8B7007
:1037D000120ECA7041E0206A05EB550700EB572135
:1037E0002046FFF7AAFF0028CBD1C7F308002044EA
:1037F00030307F1CE90703D0017868F31F1100E027
:103800003146017084F80490206A00EB572120466D
:10381000FFF793FF0028B4D1C7F3080121443031EA
:10382000EA0702D0C6F3071205E00A78C6F30323BD
:1038300002F0F0021A430A700FE0206A00EB152133
:103840002046FFF77AFF00289BD1E9B204EB410143
:10385000320A81F8308081F8312084F8049090E7B2
:1038600010B540240020224661020123FDF7C4F96F
:10387000FDF7C6FD00B1FEE7FDF7E6FD00210120E2
:10388000FDF776FB04210120FDF77EF80448047063
:1038900004480460BDE810400120FDF7F5BA0000BF
:1038A00006E400E000E100E0054810B541680122AF
:1038B0000448FFF7CDFA08B1002010BD012010BD6B
:1038C0000C0000200401002000B50F4889B00078EA
:1038D000002817D0FDF75EFC002813D00B480288A3
:1038E000A2F5E441B0390DD0511C018008A1684611
:1038F000FEF7E6FBF0224FF4A071684600F00CF8EA
:10390000FDF714FC09B000BD4A0000200C000020A7
:103910002F25642E626D70002DE9F04F8DB00D469D
:1039200000210B91E91705EB917121F00301691A50
:10393000C9B21746099105FB07F101EB410209994C
:10394000363207FB01224649130A8A70CB70130CEA
:103950000B71120E4A718D742A0ACA742A0C0A75E8
:103960002A0E4A758F753A0ACA753A0C0A763A0ECB
:103970004A7601460A226846FFF790FA30B90AAB48
:10398000362237496846FFF796FB18B100200DB084
:10399000BDE8F08FDFF8CCA0082154465046FDF773
:1039A00090FA20212046FDF78CFA20212046FDF7D1
:1039B000B6FA08212046FDF7B2FA20212046FDF78D
:1039C00080FA20212046FDF7AAFA00203FE00026D9
:1039D000344629E020215046FDF7A1FA2021504627
:1039E000FDF76FFADFF880B05846FDF795FA4FEA19
:1039F000002920215046FDF792FA20215046FDF77C
:103A000060FA5846FDF788FAC0B2184940EA090042
:103A1000C2000A55C0F3451292002144C00AC000FA
:103A20004A70761C8870E41CAE42D3DB05EB45027D
:103A30000AAB0E496846FFF73EFB099828B10246DB
:103A40000AAB0BA96846FFF736FB08F10100804678
:103A5000B842BCDB6846FFF7ECF9012097E70000AD
:103A60001400002000200B4000400B4034030020D5
:103A700000B5294B21F0004287B09A4203DC0022B6
:103A80001346009233E0254B9A420DD168B94FF0AE
:103A90000100FEF763FE002207B0134610461146F0
:103AA0005DF804EBFCF7C4BC06DB07B04FF0010285
:103AB0005DF804EBFCF72BBD02AAFEF729FB10F022
:103AC00003014FF001000DD0012914D002291AD0B2
:103AD0000DF1080CBCE80F00FEF7DEFC07B081F02A
:103AE000004100BD0DF1080C0090BCE80F00FEF78E
:103AF000A7FD07B000BD0DF1080CBCE80F00FEF7F4
:103B0000CBFC07B000BD0DF1080C0090BCE80F0025
:103B1000FEF796FDE2E70000FB21E93F0000F07FA1
:103B200081760A0AC2760A0C0275090E4175704741
:103B300070B5044600F054F805004FD120780328F2
:103B400045D16079012842D1420204F130000021C0
:103B50000646FFF7EBFD552084F82E02AA2084F8D4
:103B60002F02522084F8300084F83100612284F85A
:103B70003220412084F83300722184F8141284F832
:103B8000151284F8160284F81722206984F81802A6
:103B9000010A84F81912010C84F81A12000E84F834
:103BA0001B02E06884F81C02010A84F81D12010C53
:103BB00084F81E12000E84F81F02E2690123521CD1
:103BC000E26260783146FFF725F90020607100223B
:103BD00060781146FFF707F900B10125284670BD4E
:103BE0002DE9F041044600790027F8B1E66A04F1B6
:103BF00030016078012332468846FFF70BF908B19F
:103C0000012713E000202071206AA169301A884240
:103C10000CD2E57808E0A0690123064460783246BA
:103C20004146FFF7F7F86D1E022DF4D23846BDE885
:103C3000F08110B560B1016851B10A7842B1CA880B
:103C40008088824204D14878FFF7E0F8C00700D0AE
:103C5000092010BD0303000000000204040100005D
:103C60000F01020080000001000400800200040037
:103C700000000B4000200B4000400B4000600B4058
:103C800000800B400000004000000400060000001F
:103C900008000600001000400200000206000200BA
:103CA00000040600000000004C5555555555A53F31
:103CB0007751C1166CC156BF9015CB19A001FA3EC1
:103CC000AD529C804F7E92BEC4B1B4BD9EEE213EEB
:103CD000D43888BEE9FAA8BD00004054FB21F93F62
:103CE0003163621A61B4D03D0000601A61B4D03D06
:103CF0007370032E8A19A33B0000002E8A19A33B80
:103D0000C14920259A837B39000000000000000093
:103D10006E83F9A22915444ED15727FCC0DD34F536
:103D2000999562DB4190433CAB6351FE61C5BBDEBC
:103D30003A6E24B7E0D24D42EA2E49061C92D109D0
:103D40001CEB1DFE3EA729B1F53582E88444BB2E4D
:103D500026709CE9417E5FB439D69139F43953839A
:103D60008B5F849C3B28F9BDFF97F81F0F9805DEF9
:103D70008B112FEF1F6D0A5ACF7E366DB709CB27F7
:103D8000663F464F2DEA5F9EC7BA27757BF1E5EB8C
:103D9000F739073DEA92528AB15FFB6B085D8D1FD0
:103DA000A6F810111111813FD561C119A0012ABFD8
:103DB0007DFEB157E31DC73EEB9C2B8AE6E55ABE5C
:103DC0007CD5CF5A3AD9E53D00000000EC3D00001B
:103DD00000000020040100003C270000F03E00002D
:103DE00004010020740800004C27000030313233F9
:103DF000343536373839000000000000C83D000077
:103E0000424D0000000000000000360000002800C5
:103E10000000000000000000000001001800000089
:103E20000000000000000000000000000000000092
:103E30000000000000000000000000004E00110023
:103E40001246173F185019031A78320029502C785F
:103E50002A00427F4D0963E064FF65206600670029
:103E600013F00D810FC5142122FF23012434253CBA
:103E700026A12B006BAA13FF695D900A91019201A4
:103E80009301945F95539611971A983D995A9A1EEB
:103E90009B009C25A765A8659E81A6067E0C7F16C3
:103EA000802A814E8261836F847B8586868E879788
:103EB00088A489AF8AC58BD78CE88D20A980AA8079
:103EC000ACFF3300229923034A00491347084B14DF
:103ED0004C1746050C903D030EF500000000000055
:103EE00000000000000000000000000000000000D2
:0400000500000155A1
:00000001FF
