:020000040000FA
:100000000803002055010000530A0000D109000038
:10001000510A0000310600008715000000000000B2
:100020000000000000000000000000008713000036
:10003000FD06000000000000050D0000FD1300009B
:100040006F0100006F0100006F0100006F010000F0
:100050006F0100006F010000010700006F01000048
:100060006F010000450700006F0100006F010000F4
:100070006F0100006F0100006F0100004D070000DC
:100080006F0100006F0100006F0100006F010000B0
:100090006F0100006F0100006F0100006F010000A0
:1000A0006F0100006F010000000000006F01000000
:1000B0006F0100006F0100006F0100006F01000080
:1000C0006F0100006F0100006F0100006F01000070
:1000D0006F010000000000000000000000000000B0
:1000E000000000006F0100006F0100006F010000C0
:1000F0006F0100006F0100006F0100006F01000040
:100100006F0100006F0100006F0100006F0100002F
:100110006F0100006F010000000000006F0100008F
:100120006F0100006F0100006F0100006F0100000F
:100130006F0100006F0100006F010000000000006F
:1001400000000000000000000000000000000000AF
:100150006F0100000648804706480047FEE7FEE7BB
:10016000FEE7FEE7FEE7FEE7FEE7FEE7FEE7FEE767
:100170000114000079010000DFF80CD000F09EF9B6
:1001800000480047F51A000008030020F0B480EA98
:100190000102D40F4200B2EB410F02D202460846E0
:1001A00011464A0042D0C30DDDB2C1F3C752AD1AA9
:1001B000202D35DAC1F3160141F4000204B1524298
:1001C000C5F1200602FA06F12A411044B3EBD05FD4
:1001D00023D0C4B1012DA0EBC35009DCF0BC4FF01B
:1001E000004202EAC35200F50000DBB200F0DAB8C8
:1001F000400000F1807000EBC350A0F1807040EA35
:10020000D170490009E0490841EAC071A0EBC35030
:1002100000F50000400800EBC350F0BC00F0B9B896
:100220006142012202EB4101001BF6E7F0BC70477E
:1002300081F00041AAE780F00040A7E780EA0102D0
:1002400010B502F00043400026D04A0023D04FEA08
:10025000106101EB1261C0F35600C2F3560240F484
:10026000000042F40002A0FB0220A1F17F014FEA4E
:100270000040140401D000F1010050EA124001D402
:100280004000491EC2B20C0604EBD010401C4008CE
:10029000802A02D003E0002010BD20F001000029D8
:1002A00000DA0020184310BD70B521F0004303436D
:1002B0000CD0C1F30A550024D5EB040564EB04030C
:1002C000D617AD1AB34102DB0020014670BD2018DD
:1002D00041EB025170BD0EB5C10F80EAE0700844D9
:1002E000CA07002140F233438DE80E000A460B4650
:1002F00000F092F803B000BD01F0004330B421F0EB
:10030000004150EA010206D00A0DA2F56072C1F365
:100310001301002A02DC30BC00207047440F44EA7D
:10032000C104C100E01830BC00EBC25000F031B88D
:100330002DE9F05F0546002092469B46884606461A
:10034000814640241BE0284641464746224600F0AD
:10035000D6F853465A46C01A914110D31146184652
:10036000224600F0BDF82D1A67EB01084F462246E1
:100370000120002100F0B4F817EB00094E41201EC7
:10038000A4F10104DFDC484631462A464346BDE875
:10039000F09F0029A8BF7047401C490008BF20F00B
:1003A0000100704710B4B0FA80FC00FA0CF050EA7B
:1003B000010404BF10BC704749B1CCF1200421FAFC
:1003C00004F411FA0CF118BF012121430843A3EBF7
:1003D0000C01CB1D0106000A002BBEBF002010BC83
:1003E000704700EBC35010440029A4BF10BC7047F5
:1003F000401C490008BF20F0010010BC704710B538
:10040000002B08DA401C41F1000192185B411A43AD
:1004100001D120F0010010BD2DE9F04D92469B4620
:1004200011B1B1FA81F202E0B0FA80F220329046C6
:1004300000F056F804460F4640EA0A0041EA0B0174
:1004400053465A46084303D120463946BDE8F08D4D
:10045000114653EA010015D0C8F14002504600F0A1
:100460004EF805460E4650465946424600F038F8CA
:10047000084301D0012000E00020054346EAE07671
:100480002C4337430A984FEA4453A0EB08004FEA45
:10049000D4240A304FF0000244EA47544FEAD725EB
:1004A00002D500200146D1E7010510196941DDE9B7
:1004B000084500196941BDE8F04DA0E7064C074D1D
:1004C00006E0E06840F0010394E807009847103424
:1004D000AC42F6D3FFF754FEA81C0000C81C000075
:1004E000202A04DB203A00FA02F1002070479140F4
:1004F000C2F1200320FA03F3194390407047202AE9
:1005000004DB203A21FA02F00021704721FA02F3BD
:10051000D040C2F1200291400843194670470000C4
:1005200010B50022072802D901220838C0B2064BB4
:1005300003EB8202136880000F248440A3438140B0
:100540001943116010BD0000002002402DE9F04762
:100550009146164A4FF0FF0A02EBC0050022002424
:100560000AFA02F02346084219D04FF0010C00208D
:100570000CFA02FC4FF00F0821FA00F616EA0C0FF5
:1005800006D0860008FA06F73C4309FA06F73B4313
:10059000401C0828F0D32868A043184328602D1D6C
:1005A0000832082ADBDDBDE8F08700002020024089
:1005B0002DE9F0411C4E002404EB440000EBC40084
:1005C00030444078512829D1708800B2FFF783FE6B
:1005D0006FF00E073A46FFF767FE0422FFF764FE4E
:1005E000FFF78AFE114D2860B08800B2FFF773FE56
:1005F0003A46FFF759FE0422FFF756FEFFF77CFE4E
:100600006860F08800B2FFF766FE3A46FFF74CFEDE
:100610000422FFF749FEFFF76FFEA860641C032C5D
:10062000CADBBDE8F0810000E0000020A40000204B
:10063000FEE7000070B5124E0446706B850F00F0A7
:1006400023F82060012D05D00E48022D02D0032D85
:1006500000D000206060316AC840A0603168C1F3FA
:10066000015120FA01F1E160B16AC1F302410729A9
:1006700002D0C840206170BD0621B0FBF1F0F9E75F
:100680000080084000127A000C49D1F8A40000282C
:1006900013D0086A0A48D1F8FC1301290DD0094A81
:1006A0009169C1F3C55101B940219269C2F3415327
:1006B00001229A40B0FBF2F048437047000010431B
:1006C00000127A000080084000B585B06846FFF748
:1006D000B1FF039805B000BDF0B5074F7C6AFD6A15
:1006E0003E6B84438D43964313B104430D4316433D
:1006F0007C62FD623E63F0BD0080084070470000F0
:1007000010B5012000F070F8002810D0012100225F
:10071000084600F09FF8012000F050F84FF4FA70FE
:1007200001F0D2F9BDE8104001A000F07DBF10BD7E
:1007300057414B455550424F54544F4E2E2E2E0A82
:1007400000000000012000F031B8000070B5072063
:1007500000F03EF8002824D0124C2178124819B13C
:100760002178012913D017E00421054600F0A5F8EF
:100770004021284600F0CCF8012121704021284674
:1007800000F0C6F80421284600F0C2F804E0402139
:1007900000F093F802202070BDE87040072000F0C0
:1007A0000DB870BDA300002000200B400121814046
:1007B000014841648164704700400240012181404A
:1007C00002488165BFF34F8F704700000040024030
:1007D000044A01460020D26C01238B401A4200D00B
:1007E0000120704700400240044A01460020926DFB
:1007F00001238B401A4200D0012070470040024084
:100800000179027BC90741EA0271826800681143DD
:10081000014A42F82010704700400240054B012277
:100820008240186C012902D090431864704710432D
:10083000FBE70000004002400122824004480129F9
:1008400003D0C16C9143C1647047C264704700001B
:100850000040024010B50123084C8340012A02D019
:10086000206D984305E0606D29B118436065206DE7
:100870001843206510BD9843F8E70000004002408F
:1008800005490128086D03D020F000400865704735
:1008900040F00040FAE700000040024010B54FF47D
:1008A000FA7001F011F9012211461046FFF7D2FF4C
:1008B000BDE81040012000F005BA81627047002AAF
:1008C000026801D00A4300E08A4302607047002AB0
:1008D000426801D00A4300E08A434260704742B157
:1008E000012A09D082688A438260C2688A43C26052
:1008F000704782680A43F7E7C2680A43C2608268A9
:100900008A4382607047C069084000D00120704768
:10091000416270472DE9FF4104462C488846065D38
:10092000103030F81450801D50F82670304600F01A
:100930005BFE26482946C01C025D3046FFF706FED6
:10094000294602223846FFF7CAFF294600223846C8
:10095000FFF7B5FF294601223846FFF7B8FFB8F187
:10096000010F2FD100250095019502954FF400410C
:1009700001232A4628460395FFF7AEFE134FBF1DFD
:10098000385D00908DF804500295ECB102208DF88E
:100990000C006846FFF734FF3146385DFFF7C0FDB5
:1009A000385D0121FFF73AFF385D0121083040B280
:1009B00000F01F02914040094FF0E02202EB80005E
:1009C000C0F80011BDE8FF810320E0E75E1C0000D5
:1009D000FEE700002DE9FE438846044600254FF45B
:1009E00080410F04194E2846BC4202D14FF4824187
:1009F00003E0B44201D14FF4844101232A46FFF7BA
:100A00006BFEBC4202D106220C2103E0B44204D1A9
:100A1000062230210020FFF799FD0120ADF80400E7
:100A2000ADF80850CDF80080ADF80650ADF80A508A
:100A30006946204600F06DFD0121204600F099FD39
:100A40000121204600F07FFDBDE8FE830000044048
:100A5000FEE7704710B500F057F900214FF4003061
:100A600001230A46FFF738FE0A4C01227D21204669
:100A7000FFF725FF00224FF47F412046FFF71FFFBD
:100A800010212046FFF719FF2046BDE81040402105
:100A9000FFF73EBF00200B40F8B500248DF8004062
:100AA0008021122000F06CFA00280BD00B220121CB
:100AB000684600F041F9002804D09DF80000212884
:100AC00001D00020F8BD094D6E1E0AE005EB440080
:100AD000417815F8140000F053FA0028F2D0641C95
:100AE000A4B230788442F1D30120F8BD090000207F
:100AF000062801D2074A00E0074A01D3A0F1060008
:100B000000EB8000136801FA00F143EA010313606F
:100B100070470000280109402C0109400A4A00EBF7
:100B2000400002EBC000D1E904231A438B691A4349
:100B300002600A6842604A688260CA68098942EABB
:100B400001410161704700000000094030B50024F8
:100B5000224687B0102001231146FFF7BDFD012179
:100B60008D07284600F0F9FC0F486946CDE9005092
:100B70004FF44860069068150590212002900120EE
:100B8000CDE903040220FFF7C9FF01220921022059
:100B900000F038F80121022000F008F801210220BD
:100BA00000F048F807B030BDE0000020084A00EB34
:100BB000400002EBC00000F07042C0F3130002EBF3
:100BC000401000F1007001B1012101607047000088
:100BD00000000940062801D2084A00E0084A01D373
:100BE000A0F1060000EB8000126801FA00F10A4251
:100BF00001D001207047002070470000200109400B
:100C000024010940062801D2084B00E0084B01D31B
:100C1000A0F10600002A00EB80001A6801FA00F13A
:100C200001D00A4300E08A431A607047300109404E
:100C300034010940084A00EB400002EBC00000F01C
:100C40007042C0F3130002EB401000F1007001B1DC
:100C50000121416070470000000009400F4A0E4822
:100C6000012111600E4903E0D1F80821272A03D0A1
:100C7000401EF9D101207047D1F82402D1F8243266
:100C8000C043C1F82402D1F824228242F9D1C1F82C
:100C900024320020704700000051250200830840E4
:100CA00000A0064006480121C0F80411D0F8041144
:100CB0000029FBD1D0F800110029FBD170470000BA
:100CC00000A0064070B50C490C680B4D48352B68E8
:100CD00001220A6000222A60084E326132600C60F4
:100CE00007490A6842F004020A6010B130BF2B6065
:100CF00070BD20BFFBE70000180610438C20D442D3
:100D000010ED00E07047000010B500214FF4002006
:100D100001230A46FFF7E0FC064C01223021204661
:100D2000FFF7CDFD20460122BDE810403021FFF73E
:100D3000CEBD000000600B402DE9F04114460E4688
:100D4000074600F0A5F800281BD0422000F074F8F8
:100D500000F0E8F890B1204600F06EF800F0E2F8FC
:100D600000F0C2F800F094F800280AD0432000F008
:100D700063F800F0D7F8DFF8BC80E8BB00F0B4F807
:100D80000020BDE8F0810825002420214046FFF71F
:100D9000BFFD14E06006040E10214046FFF78DFDF4
:100DA00000F00DF910214046FFF7B2FD00F007F901
:100DB00020214046FFF7A7FD08B144F001042800B8
:100DC000A5F10105EDB2E5D1102145464046FFF7FA
:100DD00074FD3C70012E4FF01001284620D0FFF723
:100DE0006CFD00F0ECF820212846FFF766FD00F0CE
:100DF000E6F81021284600E00CE0FFF789FD00F03E
:100E0000DEF810212846FFF758FD00F0D8F87F1CC7
:100E1000761EB6B2002EB6D100F066F80120B0E71B
:100E2000FFF74BFD00F0CBF820212846FFF770FDBF
:100E3000DDE7000000600B4070B505460824134E46
:100E400017E0FFF73AFD00F0BAF828064FF020014E
:100E5000304602D5FFF75CFD01E0FFF72EFD680686
:100E6000050E00F0ACF810213046FFF751FD00F000
:100E7000A6F82000A4F10104E4B24FF010013046BE
:100E8000DFD1BDE87040FFF718BD000000600B40E7
:100E900010B5144C20212046FFF73AFD00F08FF8E2
:100EA00010212046FFF734FD00F089F8202120466C
:100EB000FFF729FD00280BD020212046FFF7FDFC7D
:100EC00000F07DF820212046FFF71DFD08B100202D
:100ED00010BD10212046FFF7F0FC00F070F8012053
:100EE00010BD000000600B4010B50D4C10212046D5
:100EF000FFF7E3FC00F063F820212046FFF7DDFC5C
:100F000000F05DF810212046FFF702FD00F057F8D1
:100F100020212046FFF7FCFCBDE8104000F04FB850
:100F200000600B4070B5154D002410212846FFF7D6
:100F3000C4FC00F044F820212846FFF7E9FC00F04B
:100F40003EF810212846FFF7E3FC00F038F80022B5
:100F500020212846FFF7B3FC20212846FFF7D3FCC9
:100F600000B90124012220212846FFF7A8FC102106
:100F70002846FFF7A2FC204670BD000000600B4031
:100F800070B50D460446FFF783FF002812D04220BB
:100F9000FFF752FFFFF7C6FF68B1E0B2FFF74CFF63
:100FA000FFF7C0FF2846FFF747FFFFF7BBFFFFF73C
:100FB0009BFF012070BDFFF797FF002070BD4FF42D
:100FC000C870401E0004000CFBD1704710B56FF0D4
:100FD00010014FF0402000F0CCF9BDE81040FF2098
:100FE00000F04AB92DE9F8437F2000F06DF90024A4
:100FF000FF2000F041F9641C0A2CF9DB4E4E14244A
:1010000000219522084600F0AAF80546012805D0DF
:101010002000A4F10104A4B2F2D17EE087224FF4B3
:10102000D571082000F09BF84FF6FE78012820D0FB
:1010300001220021372000F092F80122002129200E
:1010400000F08DF8012850D802203070444601226B
:101050000021372000F083F801220021292000F030
:101060007EF8050050D02000A4F10104A4B2EED116
:101070004AE000246F46FF2000F0FEF83855641C5B
:10108000042CF8DB9DF80200012846D19DF80300EE
:10109000AA2842D144464FF080480122002137203F
:1010A00000F05DF801224146292000F058F80500C3
:1010B00004D02000A4F10104A4B2EED16CB301224B
:1010C00000213A2000F04BF838BB0024FF2000F04C
:1010D000D3F83855641C042CF8DB9DF8000040065A
:1010E00001D5062018E0042016E0012030704446A7
:1010F00001220021104600F032F8050004D0200043
:10110000A4F10104A4B2F3D12CB1012251021020A8
:1011100000F025F808B100203070FFF757FF0320DA
:1011200000F0D2F8307810B10020BDE8F8830DB19E
:101130002846FAE7AA20F8E70100002000F062B88C
:1011400010B510214FF0402000F013F900F039F8ED
:1011500008B1012010BDFFF739FF002010BD70B5A8
:1011600016460C460546FFF731FFFFF7E9FFB8B119
:1011700045F0400000F080F8200E00F07DF8C4F348
:10118000074000F079F8C4F3072000F075F8E0B2EA
:1011900000F072F8304600F06FF80C2D02D004E039
:1011A000FF2070BDFF2000F067F81F24FF2000F033
:1011B00063F80106F5D52100A4F10104E4B2F5D1EC
:1011C00070BD70B500246FF07F4504E0FF2000F093
:1011D00053F8FF2804D0641CAC42F7D3002070BD44
:1011E000012070BD70B50446C1B24FF0804528465D
:1011F00000F0BDF94021284600F086F90028F9D01A
:10120000204670BD10B500244FF4002010210123AA
:101210002246FFF761FA00224FF400711448FFF7ED
:101220005EFB05224FF4F0510320FFF78FF91148C0
:101230004FF48041C0E900140821C0E902140461A0
:1012400044618461C46104210462C0E9094101462A
:101250004FF04024204600F058F80121204600F0CD
:101260007CF82046BDE81040012100F03DB80000A8
:1012700000600B40B400002070B50646C8244FF053
:10128000402503E0641E14F0FF041AD00121284613
:1012900000F034F80028F5D03146284600F067F811
:1012A000C82403E0641E14F0FF040AD00421284679
:1012B00000F024F80028F5D0284600F04BF8C0B222
:1012C00070BD002070BD000010B506494FF04024ED
:1012D0008862204600F019F82046BDE81040012140
:1012E00000F002B8B40000200029016802D041F0EB
:1012F000010101E021F00101016070470246002078
:1013000052690A4200D00120704730B5D1E9054347
:10131000E4B14FF40072DA4022438C680B68234337
:10132000D1E903452C432343CC6923431343436052
:101330004B6A4A681A430B6A42EA03128261896A5D
:101340004FF0FF3202EB5101C16030BD4FF48072AB
:101350009A40E2E7006980B270470029016802D034
:1013600041F0080101E021F00801016070470161CE
:1013700070471131016802D041F0100101E021F005
:1013800010010160704770474FF0E02104280869A0
:1013900003D020F004000861704740F00400FAE731
:1013A00010B56FF00400FFF7EFFF42F2283000F0B5
:1013B00021F8BDE81040012000F010B84FF0E02106
:1013C00030B10128086906D020F00100086170479B
:1013D00000208861704740F00100F7E74FF0E021FE
:1013E0000028086902D040F0020001E020F002006D
:1013F000086170474FF0E0214861704700F02EB857
:1014000013480121C0F80013124AC2F8A810D2F8FC
:101410000831002BFBD0002313624FF0106383616F
:10142000C2F8A410D2F80431002BFBD00A4A13688A
:1014300023F00703DB1C13600162426822F0030201
:10144000521C4260426BB1EB927FFBD170470000AF
:101450000080084000001043000208400348016873
:10146000002902D00168491E016070470400002075
:1014700070B505244FF4FA7505E00CA000F0D4F81F
:10148000284600F021FB641E002C04DDFFF7AAFDB6
:101490000028F2D100E024B10CA000F0C5F8012032
:1014A00070BD12A000F0C0F8002070BD534420436E
:1014B000617264204572726F7221506C6561736550
:1014C00020636865636B210D0A000000496E697432
:1014D00020534420436172642073756363657373A2
:1014E00066756C6C79210D0A000000006661696CFC
:1014F000656420746F20696E6974205344204361D1
:101500007264202E0D0A00008069084000D001207E
:10151000704770B505460C46C88889882A69084313
:10152000218922F01F02114308432861686A6189FA
:1015300020F0030008436862FFF7C6F82168B0FB9B
:10154000F1F0A86370BD0029C16802D041F40071B8
:1015500001E021F40071C16070470029416A02D0A6
:1015600041F0200101E021F020014162704701605B
:1015700070470029C16802D041F4807101E021F474
:101580008071C1607047FEE770B500244FF40035EC
:101590002246012311462846FFF79EF800228021AB
:1015A0000F48FFF78CF94FF44041012322462846AB
:1015B000FFF792F801210720FEF7B2FF0122002178
:1015C0000720FFF747F901210720FFF727F901213D
:1015D0000720FFF731F90348A910016070BD000032
:1015E00000200B4000E100E01CB500220092012326
:1015F00001920DF800309DF80010104661F3104084
:101600009DF8011061F351409DF8021061F3924082
:101610009DF8031061F3D3409DF8041061F314505A
:101620009903FFF759F81CBD0FB4054B10B503A97A
:10163000044A029800F018F810BC5DF814FB000092
:10164000F11A0000B000002002E008C8121F08C113
:10165000002AFAD170477047002001E001C1121F33
:10166000002AFBD1704700002DE9FF4F8DB00F46D7
:1016700005460026DEE1252874D100246D1CF149C1
:10168000A246A14601222B78203B02FA03F0084231
:1016900002D004436D1CF6E728782A2810D06FF09A
:1016A0002F022878A0F13001092915D80AEB8A0108
:1016B00002EB410144F0020400EB010A6D1CF0E76B
:1016C00057F804ABBAF1000F03DA44F40054CAF13E
:1016D000000A44F002046D1C28782E2817D115F852
:1016E000010F44F004042A280ED06FF02F0228784E
:1016F000A0F1300109290AD809EB890102EB410167
:1017000000EB01096D1CF2E757F8049B6D1C28786B
:101710006C280FD006DC4C2817D068280DD06A281A
:1017200014D104E0742810D07A280FD10DE044F4CD
:1017300000140AE044F4801401E044F44014697891
:10174000814202D16D1C04F580146D1C2A786E2A2A
:1017500020D00DDC632A33D005DC002A6FD0582A54
:1017600012D1A2E011E0642A6AD0692A0CD167E0A4
:10177000732A2FD004DC6F2A6FD0702A04D199E02D
:10178000752A6BD0782A6AD01046DDE90F1290478F
:10179000761C4EE1C4F30250022806D003280AD07A
:1017A000042801CF0AD0066043E101CF4FEAE67179
:1017B000C0E900613DE101CF06803AE1067038E101
:1017C00017F8040B8DF8000000208DF80100EB469F
:1017D000012003E057F804BB4FF0FF3061074FF0E2
:1017E000000102D40DE008F10101884649450FDAF5
:1017F0008045F8DB1BF808100029F4D108E008F157
:10180000010188468142FADB1BF808100029F6D155
:10181000DDE90F23AAEB08008146214600F03BF9E1
:10182000304400EB080604E0DDE90F121BF8010B61
:101830009047B8F10108F7D221464846F4E0FDE0B0
:101840000A21C4F302534FF0000B0891022B07D07A
:1018500001CFC117032B09D00AE034E023E024E0D4
:10186000FF1D27F00707F7E8020105E000B2C117E6
:10187000042B01D140B2C117002907DA4FF0000C48
:10188000D0EB0C006CEB01012D2302E0230504D505
:101890002B238DF82430012303E0E30701D020231C
:1018A000F7E7984650E00A210EE010204FF0000BB9
:1018B00008900CE010214FF0000B44F004044FF0AE
:1018C0000809089103E008214FF0000B0891C4F3C8
:1018D0000253022B04D001CF0021032B06D006E0D7
:1018E000FF1D27F00707F7E8020103E080B2042B91
:1018F00000D1C0B24FF00008230725D5702A2AD0A6
:10190000DDF820C08CF0100C5CEA0B0C09D150EA19
:10191000010306D030238DF824308DF825200223D2
:101920009846DDF820C08CF0080C5CEA0B0C0BD15B
:1019300050EA010301D1630706D530238DF8243026
:101940004FF00108A9F10109582A09D03EA20B92D3
:1019500008AA0A9211E040238DF824300123DFE722
:101960003EA2F4E75B46089AFEF7E2FC0B9B9B5C09
:101970000A9AA2F101020A92137050EA0102F1D10F
:101980000A98ADEB000000F1200B600702D524F4AB
:10199000803401E04FF00109D94502DDA9EB0B00CD
:1019A00000E0002000EB0B0141440890AAEB010A83
:1019B000E00306D4DDE90F232146504600F06BF822
:1019C0000644002008E009A911F80900DDE90F121A
:1019D0009047761C09F1010081464045F3DBE003A6
:1019E0000CD5DDE90F232146504600F054F806449B
:1019F00004E0DDE90F1230209047761C0899481E5C
:101A000008900029F5DC08E00A980A990078491C3A
:101A10000A91DDE90F129047761CBBF10001ABF192
:101A2000010BF1DC21465046DDE90F2300F020F8E0
:101A300006446D1C287800287FF41DAE11B0304696
:101A4000BDE8F08F092801003031323334353637A4
:101A500038396162636465660000000030313233FA
:101A6000343536373839414243444546000000009A
:101A70002DE9F041044600251E461746880405D48A
:101A800006E039462020B04705F10105641EF8D56F
:101A90002846BDE8F0812DE9F041044600251E46A8
:101AA0009046C80301D5302700E02027880405D5DB
:101AB00006E041463846B04705F10105641EF8D5F9
:101AC0002846BDE8F081000010B504460120FFF76C
:101AD00075FC06490C6008680028FCD1801EFFF7E1
:101AE0006DFCBDE810400020FFF768BC040000203A
:101AF000FFF778BB334C00252570FFF751FC4FF4FE
:101B0000E13631467005FEF765FFDFF8BCA03146CF
:101B10005046FEF75FFFFFF719F8FFF70FFBFFF7DF
:101B2000A7FCFEF797FF4FF4FA7605E027A0FFF732
:101B30007BFD3046FFF7C8FFFEF7AEFF0128F5D169
:101B400028A0FFF771FDFFF71FFD2C48057000F07E
:101B50005FF8B1464FF00108FEF7A0FE207801289B
:101B60002AD108210220FFF735F8012823D1FEF7FA
:101B70001FFD08210220FEF7BBFF2148016808462F
:101B8000FEF75CFB07461F4801680846FEF756FB58
:101B900006461D4801680846FEF750FB3146FEF731
:101BA000F5FA3946FEF7F2FA1849884203DD552165
:101BB0005046FFF7DCFC257084F800804846FFF7AC
:101BC00083FFC9E70000002000000440496E6974EB
:101BD000206F7637373235206572726F722E0D0A9C
:101BE00000000000496E6974206F76373732352067
:101BF000737563636573732E0D0A0000A3000020E4
:101C0000AC000020A8000020A40000200000164323
:101C100010B540240020224661020123FEF75CFD3E
:101C2000FFF71CF800B1FEE7FFF73CF800210120A8
:101C3000FEF770FE04210120FEF772FC04480470D8
:101C400004480460BDE810400120FEF719BE000002
:101C500006E400E000E100E00303000000000204ED
:101C6000040100000F010200800000010004008058
:101C70000200040000000B4000200B4000400B401D
:101C800000600B4000800B4000000040000004009A
:101C900006000000080006000010004002000002DC
:101CA0000600020000040600C81C0000000000201E
:101CB000B4000000481600007C1D0000B4000020A5
:101CC0005402000058160000000000000000000050
:101CD0004D11001246173F185019031A7832002987
:101CE000502C782A00427F4D0963E064FF6520662E
:101CF00000670013F00D810FC5142122FF2301247A
:101D000034253C26A12B006BAA13FF695D900A9134
:101D10000192019301945F95539611971A983D99FA
:101D20005A9A1E9B009C25A765A8659E81A6067EE3
:101D30000C7F16802A814E8261836F847B85868624
:101D40008E879788A489AF8AC58BD78CE88D20A908
:101D500080AA80ACFF3300229923034A004913472D
:101D6000084B144C1746050CD00EF500000000007F
:0C1D700000000000000000000000000067
:0400000500000155A1
:00000001FF
