:020000040000FA
:1000000058040020550100004F040000AF03000019
:100010004D040000B9020000070A000000000000C3
:10002000000000000000000000000000DB080000ED
:10003000850300000000000051040000DD080000FE
:100040006F0100006F0100006F0100006F010000F0
:100050006F0100006F0100006F0100006F010000E0
:100060006F0100006F0100006F0100006F010000D0
:100070006F0100006F0100006F0100006F010000C0
:100080006F0100006F0100006F0100006F010000B0
:100090006F0100006F0100006F0100006F010000A0
:1000A0006F0100006F010000000000006F01000000
:1000B0006F0100006F0100006F0100006F01000080
:1000C0006F0100006F0100006F0100006F01000070
:1000D0006F010000000000000000000000000000B0
:1000E000000000006F0100006F0100006F010000C0
:1000F0006F0100006F0100006F0100006F01000040
:100100006F0100006F0100006F0100006F0100002F
:100110006F0100006F010000000000006F0100008F
:100120006F0100006F0100006F0100006F0100000F
:100130006F0100006F0100006F010000000000006F
:1001400000000000000000000000000000000000AF
:100150006F0100000648804706480047FEE7FEE7BB
:10016000FEE7FEE7FEE7FEE7FEE7FEE7FEE7FEE767
:10017000E108000079010000DFF80CD000F038F849
:1001800000480047A10D0000580400202DE9F05F51
:100190000546002092469B468846064681464024F6
:1001A0001BE0284641464746224600F042F85346A7
:1001B0005A46C01A914110D311461846224600F003
:1001C00029F82D1A67EB01084F462246012000212D
:1001D00000F020F817EB00094E41201EA4F10104A5
:1001E000DFDC484631462A464346BDE8F09F000022
:1001F000064C074D06E0E06840F0010394E8070074
:1002000098471034AC42F6D3FFF7BAFFD00D000088
:10021000F00D0000202A04DB203A00FA02F1002051
:1002200070479140C2F1200320FA03F31943904034
:100230007047202A04DB203A21FA02F0002170479F
:1002400021FA02F3D040C2F120029140084319463E
:10025000704700002DE9F0479146164A4FF0FF0A1B
:1002600002EBC005002200240AFA02F023460842ED
:1002700019D04FF0010C00200CFA02FC4FF00F08CF
:1002800021FA00F616EA0C0F06D0860008FA06F7E7
:100290003C4309FA06F73B43401C0828F0D3286882
:1002A000A043184328602D1D0832082ADBDDBDE875
:1002B000F087000020200240FEE7000070B5124EDB
:1002C0000446706B850F00F023F82060012D05D0E7
:1002D0000E48022D02D0032D00D000206060316A4C
:1002E000C840A0603168C1F3015120FA01F1E1601A
:1002F000B16AC1F30241072902D0C840206170BD34
:100300000621B0FBF1F0F9E70080084000127A0006
:100310000C49D1F8A400002813D0086A0A48D1F883
:10032000FC1301290DD0094A9169C1F3C55101B9E6
:1003300040219269C2F3415301229A40B0FBF2F08E
:10034000484370470000104300127A0000800840C4
:1003500000B585B06846FFF7B1FF039805B000BD52
:10036000F0B5074F7C6AFD6A3E6B84438D4396432C
:1003700013B104430D4316437C62FD623E63F0BD3E
:1003800000800840704742B1012A09D082688A4340
:100390008260C2688A43C260704782680A43F7E796
:1003A000C2680A43C26082688A4382607047FEE77F
:1003B0002DE9FE438846044600264FF480410F0491
:1003C000214D3046BC4202D14FF4824103E0AC42A1
:1003D00001D14FF4844101233246FFF7C1FFBC42F3
:1003E00002D106220C2103E0AC4204D106223021C6
:1003F0000020FFF72FFF0120ADF80400ADF80860E2
:10040000CDF80080ADF80660ADF80A60BC420AD1B4
:100410006946384600F0C7FA0121384600F0E9FA8B
:10042000012138460BE0AC420BD16946284600F06A
:10043000BAFA0121284600F0DCFA0121284600F032
:10044000CCFABDE8FE83000000000440FEE77047E0
:10045000704710B56FF010014FF0402000F033FAF4
:10046000BDE81040FF2000F0B1B970B505464FF669
:10047000FF7401E0641EA4B2FF2000F0A7F9A842B7
:1004800002D0002CF6D102E00CB1002070BDFF209C
:1004900070BD00002DE9F8437F2000F0BFF9002473
:1004A000FF2000F093F9641C0A2CF9DB4E4E142453
:1004B00000219522084600F0FBF80546012805D0EA
:1004C0002000A4F10104A4B2F2D17EE087224FF40F
:1004D000D571082000F0ECF84FF6FE78012820D006
:1004E00001220021372000F0E3F801220021292019
:1004F00000F0DEF8012850D8022030704446012276
:100500000021372000F0D4F801220021292000F03A
:10051000CFF8050050D02000A4F10104A4B2EED120
:100520004AE000246F46FF2000F050F93855641C63
:10053000042CF8DB9DF80200012846D19DF8030049
:10054000AA2842D144464FF080480122002137209A
:1005500000F0AEF801224146292000F0A9F805007C
:1005600004D02000A4F10104A4B2EED16CB30122A6
:1005700000213A2000F09CF838BB0024FF2000F056
:1005800025F93855641C042CF8DB9DF80000400662
:1005900001D5062018E0042016E001203070444602
:1005A00001220021104600F083F8050004D020004D
:1005B000A4F10104A4B2F3D12CB101225102102004
:1005C00000F076F808B100203070FFF742FF0320FA
:1005D00000F024F9307810B10020BDE8F8830DB1A7
:1005E0002846FAE7AA20F8E7000000202DE9F041AC
:1005F0000646184815460078062800D049024FF4F0
:100600000077012D4FF0010219D0122000F050F8B0
:100610003946304600F020F86D1E044606F5007697
:1006200015F0FF0501D0012CF2D0012200210C2091
:1006300000F03EF8FFF70DFF2046BDE8F0811120E5
:1006400000F036F80400F5D13946304600F004F8E1
:100650000446EFE70000002070B505460C46FE207A
:10066000FFF703FF28B1002070BD00F0AFF805F8D8
:10067000010B2000A4F10104A4B24FF0FF00F4D15B
:1006800000F0A4F8FF2000F0A1F8012070BD00F0F8
:1006900063B810B510214FF0402000F014F900F0BD
:1006A00039F808B1012010BDFFF7D3FE002010BDBE
:1006B00070B516460C460546FFF7CBFEFFF7E9FF7F
:1006C000B8B145F0400000F081F8200E00F07EF84F
:1006D000C4F3074000F07AF8C4F3072000F076F87E
:1006E000E0B200F073F8304600F070F80C2D02D044
:1006F00004E0FF2070BDFF2000F068F81F24FF20F9
:1007000000F064F80106F5D52100A4F10104E4B27B
:10071000F5D170BD70B500246FF07F4504E0FF2077
:1007200000F054F8FF2804D0641CAC42F7D300203A
:1007300070BD012070BD70B50446C1B24FF0804558
:10074000284600F054F94021284600F027F90028F7
:10075000F9D0204670BD000010B500244FF40020F1
:1007600044F2100101232246FFF7FAFD00224FF464
:1007700000711448FFF707FE05224FF4F0510320E3
:10078000FFF768FD10484FF48041C0E900140821CC
:10079000C0E90214046144618461C46104210462FB
:1007A000C0E9094101464FF04024204600F057F8C7
:1007B0000121204600F07BF82046BDE810400121D1
:1007C00000F03CB800600B402C02002070B50646DB
:1007D000C8244FF0402503E0641E14F0FF041AD033
:1007E0000121284600F034F80028F5D0314628468B
:1007F00000F067F8C82403E0641E14F0FF040AD078
:100800000421284600F024F80028F5D0284600F0FE
:100810004BF8C0B270BD002070BD000010B5064995
:100820004FF040248862204600F019F82046BDE8C9
:100830001040012100F002B82C02002000290168BC
:1008400002D041F0010101E021F001010160704797
:100850000246002052690A4200D00120704730B59C
:10086000D1E90543E4B14FF40072DA4022438C68C9
:100870000B682343D1E903452C432343CC6923432D
:10088000134343604B6A4A681A430B6A42EA0312F5
:100890008261896A4FF0FF3202EB5101C16030BDC5
:1008A0004FF480729A40E2E7006980B270470029F5
:1008B000016802D041F0080101E021F00801016067
:1008C0007047016170471131016802D041F0100199
:1008D00001E021F01001016070477047704700008F
:1008E00013480121C0F80013124AC2F8A810D2F828
:1008F0000831002BFBD0002313624FF0106383619B
:10090000C2F8A410D2F80431002BFBD00A4A1368B5
:1009100023F00703DB1C13600162426822F003022C
:10092000521C4260426BB1EB927FFBD170470000DA
:1009300000800840000010430002084070B54FF6E8
:10094000FF750AE00BA000F0A9F82C466E20401EAF
:100950000028FCDC641E002CF8DCFFF79BFD00285F
:10096000F0D109A000F09AF8BDE87040002000F036
:100970004BB8000053442043617264204572726F8B
:1009800072210D0A00000000496E69742053442052
:1009900043617264204F4B210D0A000080690840BA
:1009A00000D00120704770B505460C46C88889887C
:1009B0002A690843218922F01F0211430843286154
:1009C000686A618920F0030008436862FFF7C0FC91
:1009D0002168B0FBF1F0A86370BD0029C16802D0A6
:1009E00041F4007101E021F40071C16070470160C1
:1009F00070470029C16802D041F4807101E021F400
:100A00008071C1607047FEE72DE9F041074601465D
:100A100001220F48FFF7EAFDA0B139460DA000F012
:100A20003DF80B4D00244FF40076295D0FA000F037
:100A300035F8641CB442F8DB3946BDE8F0410CA03F
:100A400000F02CB8BDE8F0410FA000F027B800007E
:100A5000080000200D0A5669657720736563746F7E
:100A6000722025643A200D0A00000000257820003D
:100A70000D0A536563746F7220256420454E442E21
:100A80002E2E0D0A000000000D0A526561642053ED
:100A900044206661696C65642E0D0A000FB4054B35
:100AA00010B503A9044A029800F018F810BC5DF8CC
:100AB00014FB00009D0D00000400002002E008C8A7
:100AC000121F08C1002AFAD170477047002001E0C8
:100AD00001C1121F002AFBD1704700002DE9FF4F12
:100AE0008DB09B460F460446002638E1252801D0EC
:100AF0000F9959E00025641C9D49A84601222378DE
:100B0000203B02FA03F0084202D00543641CF6E7DA
:100B100020782E2817D114F8010F45F004052A2853
:100B20000ED06FF02F022078A0F1300109290AD8E9
:100B300008EB880102EB410100EB0108641CF2E7BD
:100B400057F8048B641C20786C280DD004DC4C28EA
:100B500012D06A2811D104E074280DD07A280CD163
:100B60000AE045F4001507E0617845F480158142FC
:100B700002D1641C05F58015641C2278692A46D0D0
:100B800008DC002A70D0582A69D0632A11D0642A60
:100B900008D13CE0702A69D0732A14D0752A5CD041
:100BA000782A5CD00F9910465A46904706F1010604
:100BB000D4E017F8040B8DF8000000208DF8010038
:100BC000E946012003E057F8049B4FF0FF30690726
:100BD0004FF0000501D40AE06D1C45450DDA854251
:100BE000FADB19F805100029F6D106E06D1C8542E4
:100BF000FCDB19F805100029F8D12E4404E019F89F
:100C0000010B5A460F9990476D1EF8D2A6E00A20B4
:100C10000021CDE90801C5F3025002280BD001CF15
:100C2000C11700290EDA4FF0000CD0EB0C006CEB72
:100C300001012D2309E007F1070727F00707F7E86F
:100C40000201EEE72B0504D52B238DF82830012374
:100C500030E0EB072ED02023F7E70A2000E0102039
:100C60000021CDE9080109E07DE0FFE71020002127
:100C700045F00405CDE908014FF00808C5F302501E
:100C800002281BD001CF00214FF0000A2B0712D5FC
:100C9000702A19D0DDE908C38CF0100C5CEA030C53
:100CA00009D150EA010306D030238DF828308DF8A1
:100CB000292002239A46582A10D00AE0FF1D27F067
:100CC0000707F7E80201DFE740228DF828204FF000
:100CD000010A28A20DF120090B9209E02AA2F9E7E6
:100CE000DDE90823FFF752FA0B9B9B5C09F8013DF5
:100CF00050EA0102F4D1ADEB090000F120000890A8
:100D0000680701D44FF001080899884502DDA8EB77
:100D1000010000E000208046002506E00AA85A46AF
:100D2000405D0F999047761C6D1C5545F6DB04E03D
:100D300030205A460F999047761CB8F10001A8F16F
:100D40000108F5DC05E019F8010B5A460F999047A8
:100D5000761C0899481E08900029F4DC641C207851
:100D600000287FF4C3AE11B03046BDE8F08F00001C
:100D70000928010030313233343536373839616271
:100D80006364656600000000303132333435363735
:100D9000383941424344454600000000FFF7CBBCD0
:100DA0004FF4E1314805FFF703FBFFF770FCFFF755
:100DB00071FBFFF7C3FD02A0FFF770FEFEE7000026
:100DC0004D6F756E74206661696C65640D0A000074
:100DD000F00D00000000002008000000BC0A000028
:100DE000F80D00000800002050040000CC0A0000AC
:080DF0000000000000000000FB
:0400000500000155A1
:00000001FF
