:020000040000FA
:10000000280200205501000097030000F7020000BD
:100010009503000015020000DD050000000000004F
:1000200000000000000000000000000007050000C4
:10003000F5020000000000000505000009050000B1
:100040006F0100006F0100006F0100006F010000F0
:100050006F0100006F0100006F0100006F010000E0
:100060006F0100006F0100006F0100006F010000D0
:100070006F0100006F0100006F0100006F010000C0
:100080006F0100006F0100006F0100006F010000B0
:100090006F0100006F0100006F0100006F010000A0
:1000A0006F0100006F010000000000006F01000000
:1000B0006F0100006F0100006F0100006F01000080
:1000C0006F0100006F0100006F0100006F01000070
:1000D0006F010000000000000000000000000000B0
:1000E000000000006F0100006F0100006F010000C0
:1000F0006F0100006F0100006F0100006F01000040
:100100006F0100006F0100006F0100006F0100002F
:100110006F0100006F010000000000006F0100008F
:100120006F0100006F0100006F0100006F0100000F
:100130006F0100006F0100006F010000000000006F
:1001400000000000000000000000000000000000AF
:100150006F0100000648804706480047FEE7FEE7BB
:10016000FEE7FEE7FEE7FEE7FEE7FEE7FEE7FEE767
:100170000D05000079010000DFF80CD000F006F852
:1001800000480047FD05000028020020064C074DEE
:1001900006E0E06840F0010394E807009847103457
:1001A000AC42F6D3FFF7ECFF7C0600009C06000093
:1001B0002DE9F0479146164A4FF0FF0A02EBC005C1
:1001C000002200240AFA02F02346084219D04FF018
:1001D000010C00200CFA02FC4FF00F0821FA00F687
:1001E00016EA0C0F06D0860008FA06F73C4309FA17
:1001F00006F73B43401C0828F0D32868A043184367
:1002000028602D1D0832082ADBDDBDE8F0870000DC
:1002100020200240FEE7000070B5124E0446706BCD
:10022000850F00F023F82060012D05D00E48022D27
:1002300002D0032D00D000206060316AC840A06069
:100240003168C1F3015120FA01F1E160B16AC1F3F3
:100250000241072902D0C840206170BD0621B0FBD1
:10026000F1F0F9E70080084000127A000C49D1F85B
:10027000A400002813D0086A0A48D1F8FC13012909
:100280000DD0094A9169C1F3C55101B94021926964
:10029000C2F3415301229A40B0FBF2F04843704749
:1002A0000000104300127A000080084000B585B0BD
:1002B0006846FFF7B1FF039805B000BDF0B5074FE2
:1002C0007C6AFD6A3E6B84438D43964313B10443BD
:1002D0000D4316437C62FD623E63F0BD0080084022
:1002E000884205D9C1F1FF01814201D30020704746
:1002F000012070477047FEE72DE9FE43884604461B
:1003000000264FF480410F04214D3046BC4202D1FB
:100310004FF4824103E0AC4201D14FF48441012308
:100320003246FFF7CBFFBC4202D106220C2103E08C
:10033000AC4204D1062230210020FFF739FF012012
:10034000ADF80400ADF80860CDF80080ADF80660A7
:10035000ADF80A60BC420AD16946384600F004F99B
:100360000121384600F030F9012138460BE0AC425B
:100370000BD16946284600F0F7F80121284600F025
:1003800023F90121284600F009F9BDE8FE830000A9
:1003900000000440FEE77047062801D2074A00E04B
:1003A000074A01D3A0F1060000EB8000136801FAB0
:1003B00000F143EA0103136070470000280109407F
:1003C0002C0109400A4A00EB400002EBC000D1E9D1
:1003D00004231A438B691A4302600A6842604A6820
:1003E0008260CA68098942EA0141016170470000E0
:1003F0000000094030B50024224687B010200123B8
:100400001146FFF75BFF01218D07284600F0D0F869
:100410000F486946CDE900504FF4486006906815D2
:100420000590212002900120CDE903040220FFF76E
:10043000C9FF01220921022000F038F80121022021
:1004400000F008F80121022000F048F807B030BDA4
:1004500004000020084A00EB400002EBC00000F05E
:100460007042C0F3130002EB401000F1007001B1C4
:10047000012101607047000000000940062801D2F8
:10048000084A00E0084A01D3A0F1060000EB800012
:10049000126801FA00F10A4201D0012070470020E1
:1004A000704700002001094024010940062801D2BC
:1004B000084B00E0084B01D3A0F10600002A00EB36
:1004C00080001A6801FA00F101D00A4300E08A4373
:1004D0001A6070473001094034010940084A00EBB6
:1004E000400002EBC00000F07042C0F3130002EBCA
:1004F000401000F1007001B101214160704700001F
:100500000000094070477047704700001348012100
:10051000C0F80013124AC2F8A810D2F80831002B14
:10052000FBD0002313624FF010638361C2F8A41064
:10053000D2F80431002BFBD00A4A136823F00703DA
:10054000DB1C13600162426822F00302521C42600D
:10055000426BB1EB927FFBD17047000000800840F6
:10056000000010430002084070B505460C46C888DC
:1005700089882A690843218922F01F021143084310
:100580002861686A618920F0030008436862FFF708
:100590008DFE2168B0FBF1F0A86370BD0029C16831
:1005A00002D041F4007101E021F40071C160704794
:1005B0000029416A02D041F0200101E021F0200130
:1005C00041627047016070470029C16802D041F460
:1005D000807101E021F48071C1607047FEE702E0A4
:1005E00008C8121F08C1002AFAD1704770470020BE
:1005F00001E001C1121F002AFBD170474FF4E13422
:1006000021466005FFF778FE194F21463846FFF76F
:1006100073FEFFF7EFFE174D174E0024082102204E
:10062000FFF72CFF0128F8D108210220FFF7B4FEC4
:1006300004EB440000EBC40042195078512812D159
:10064000D0783178FFF74CFE48B150793178FFF718
:1006500047FE20B1D0793178FFF742FE18B9552115
:100660003846FFF7AFFF641C032CE1DBD5E7000041
:100670000000044004000020000000209C06000050
:100680000000002004000000DE050000A0060000BD
:100690000400002024020000EE0500001C00000001
:0400000500000155A1
:00000001FF
