:020000040000FA
:100000006802002055010000FB0D00007B0D000080
:10001000F90D0000970A00000F1200000000000018
:10002000000000000000000000000000A51000001B
:10003000010C000000000000690F00001B1100000F
:100040006F0100006F0100006F0100006F010000F0
:100050006F0100006F010000050C00006F0100003F
:100060006F010000490C00006F0100006F010000EB
:100070006F0100006F0100006F010000510C0000D3
:100080006F0100006F0100006F0100006F010000B0
:100090006F0100006F0100006F0100006F010000A0
:1000A0006F0100006F010000000000006F01000000
:1000B0006F0100006F0100006F0100006F01000080
:1000C0006F0100006F0100006F0100006F01000070
:1000D0006F010000000000000000000000000000B0
:1000E000000000006F0100006F0100006F010000C0
:1000F0006F0100006F0100006F0100006F01000040
:100100006F0100006F0100006F0100006F0100002F
:100110006F0100006F010000000000006F0100008F
:100120006F0100006F0100006F0100006F0100000F
:100130006F0100006F0100006F010000000000006F
:1001400000000000000000000000000000000000AF
:100150006F0100000648804706480047FEE7FEE7BB
:10016000FEE7FEE7FEE7FEE7FEE7FEE7FEE7FEE767
:100170002111000079010000DFF80CD000F04CFBE9
:1001800000480047E91D000068020020D2B201E0EB
:1001900000F8012B491EFBD270470022F6E710B58C
:1001A00013460A4604461946FFF7F0FF204610BDE5
:1001B000F0B480EA0102D40F4200B2EB410F02D248
:1001C0000246084611464A0042D0C30DDDB2C1F3D3
:1001D000C752AD1A202D35DAC1F3160141F40002E1
:1001E00004B15242C5F1200602FA06F12A41104438
:1001F000B3EBD05F23D0C4B1012DA0EBC35009DC19
:10020000F0BC4FF0004202EAC35200F50000DBB23E
:1002100000F0CEB9400000F1807000EBC350A0F1B7
:10022000807040EAD170490009E0490841EAC07194
:10023000A0EBC35000F50000400800EBC350F0BC39
:1002400000F0ADB96142012202EB4101001BF6E76B
:10025000F0BC704781F00041AAE780F00040A7E7BA
:1002600080EA010210B502F00043400026D04A00A7
:1002700023D04FEA106101EB1261C0F35600C2F3C4
:10028000560240F4000042F40002A0FB0220A1F15B
:100290007F014FEA0040140401D000F1010050EA50
:1002A000124001D44000491EC2B20C0604EBD0102B
:1002B000401C4008802A02D003E0002010BD20F03E
:1002C0000100002900DA0020184310BD2DE9FE4F7F
:1002D00081EA030404F0004421F0004100944FF04F
:1002E000000B23F0004350EA010402D052EA030459
:1002F00004D10020014603B0BDE8F08FC3F30A54D7
:10030000C1F30A552C44A4F2F3340194A0FB025427
:10031000C1F3130141F48011C3F3130343F48013B9
:1003200001FB024400FB034E840A970A44EA81540D
:1003300047EA8357A4FB076802958D0A05FB0785EA
:100340004FEA932C04FB0C542705029D4FEA0658F4
:1003500047EA1637B5EB08056EEB070C870E920ED1
:1003600047EA811742EA8312A7FB0201B6EB0B01B1
:1003700064EB00042B0D43EA0C335E1844EB1C5075
:10038000DA465146E7FB0201C5F313044FEA0B338B
:1003900043EA14534FEA0432019C43EA0603A4F1F2
:1003A0000C040294009CCDE900B400F03BF9A2E7F4
:1003B0002DE9F04D81EA030404F0004B21F00045E3
:1003C00014464FF0000A23F0004150EA050220D005
:1003D00054EA01021DD0C5F30A570246C5F31303C0
:1003E000C1F31300C1F30A5640F4801543F480139F
:1003F000A7EB0608101BD64608F2FD3873EB050084
:1004000002D308F1010801E092185B41B8F1000F36
:1004100003DA00200146BDE8F08D00204FF4801182
:10042000064684460EE0171B73EB050705D3121B27
:1004300063EB050306434CEA010C49084FEA300020
:1004400092185B4150EA0107EDD152EA030012D045
:1004500082EA040083EA0501084303D100224FF039
:10046000004308E0101BAB4102D20122002302E04E
:100470006FF0010253101AEB06004CEB085110EB21
:100480000A0041EB0B01BDE8F04D00F0BEB870B5BD
:1004900021F0004303430CD0C1F30A550024D5EBEF
:1004A000040564EB0403D617AD1AB34102DB002048
:1004B000014670BD201841EB025170BD0EB5C10F51
:1004C00080EAE0700844CA07002140F233438DE817
:1004D0000E000A460B4600F0A5F803B000BD00F080
:1004E000004230F000400AD0C10D01F56071C0F348
:1004F000160042EA0151C20840071143704700202C
:100500000146704701F0004330B421F0004150EA49
:10051000010206D00A0DA2F56072C1F31301002A90
:1005200002DC30BC00207047440F44EAC104C10023
:10053000E01830BC00EBC25000F031B82DE9F05F9C
:100540000546002092469B46884606468146402442
:100550001BE0284641464746224600F07EF95346B6
:100560005A46C01A914110D311461846224600F04F
:1005700065F92D1A67EB01084F462246012000213C
:1005800000F05CF917EB00094E41201EA4F10104B4
:10059000DFDC484631462A464346BDE8F09F002945
:1005A000A8BF7047401C490008BF20F001007047F9
:1005B00010B4B0FA80FC00FA0CF050EA010404BF59
:1005C00010BC704749B1CCF1200421FA04F411FAAF
:1005D0000CF118BF012121430843A3EB0C01CB1DF3
:1005E0000106000A002BBEBF002010BC704700EBC4
:1005F000C35010440029A4BF10BC7047401C4900E0
:1006000008BF20F0010010BC704710B5002B08DABD
:10061000401C41F1000192185B411A4301D120F0C6
:10062000010010BD2DE9F04D92469B4611B1B1FA83
:1006300081F202E0B0FA80F22032904600F0FEF83B
:1006400004460F4640EA0A0041EA0B0153465A4667
:10065000084303D120463946BDE8F08D114653EAE0
:10066000010015D0C8F14002504600F0F6F80546EA
:100670000E4650465946424600F0E0F8084301D085
:10068000012000E00020054346EAE0762C43374392
:100690000A984FEA4453A0EB08004FEAD4240A30EA
:1006A0004FF0000244EA47544FEAD72502D5002014
:1006B0000146D1E7010510196941DDE90845001936
:1006C0006941BDE8F04DA0E72DE9FE4F804681EA83
:1006D0000300C00F0C46009021F0004123F00045BC
:1006E000B8EB0200A94105D24046214690461C467F
:1006F0000B46024623F00040104304D140462146F9
:1007000003B0BDE8F08F270DC7F30A00C3F30A5109
:100710000290401A0190402866DAC3F3130040F4B7
:10072000801B0098924620B10023D2EB030A63EBB2
:100730000B0B01985946C0F14002504600F07EF87C
:1007400006460D4650465946019A00F096F810EBC1
:1007500008006141002487EA115284EAE7731A43D2
:100760003BD0009A3AB3019A012A4FEA075210DCB3
:10077000001B61EB02014FF0004202EA0752CDE993
:100780000042001C41F5801132462B46FFF74AFF1C
:10079000B6E7001B61EB0201001C41F58013001855
:1007A0005B412018A2F5001747EB030140EAD57022
:1007B000B6196D4111E06D084FEA360645EAC0757D
:1007C0004FEA0752001B61EB0201001C41F580114A
:1007D00049084FEA30000019514132462B4603B018
:1007E000BDE8F04FFFF711BF009801224000002341
:1007F000D0EB020263EBE073009821464FEAE0740D
:10080000B8EB000061EB0401E9E783F000435BE72C
:1008100081F0004158E70000064C074D06E0E06813
:1008200040F0010394E8070098471034AC42F6D337
:10083000FFF7A6FC6820000088200000202A04DBC7
:10084000203A00FA02F1002070479140C2F12003E3
:1008500020FA03F3194390407047202A04DB203A22
:1008600021FA02F00021704721FA02F3D040C2F1D0
:1008700020029140084319467047202A06DBCB1717
:10088000203A41FA02F043EAE07306E041FA02F34B
:10089000D040C2F1200291400843194670470EB57E
:1008A00040F2334102910021CDE900110A460B4686
:1008B000FFF7B8FE03B000BD70B5C1F30A5201F0F6
:1008C00000450024C1F3130140F2FF3341F48011CD
:1008D0009A4201DA002070BD40F233439A42A2F2FC
:1008E000334203DC5242FFF7B8FF00E090402C4354
:1008F000F1D0404270BD00002DE9F0479146164A04
:100900004FF0FF0A02EBC005002200240AFA02F0B1
:100910002346084219D04FF0010C00200CFA02FCCB
:100920004FF00F0821FA00F616EA0C0F06D08600E9
:1009300008FA06F73C4309FA06F73B43401C08282F
:10094000F0D32868A043184328602D1D0832082AD8
:10095000DBDDBDE8F0870000202002402DE9F047F4
:10096000154D002000EB400101EBC00671194978DC
:10097000532904D0401C0328F4DBBDE8F0870E4F58
:100980000024DFF838906FF00E08303706EB440093
:100990002844408800B2FFF791FD4246FFF777FDFB
:1009A00000224B46FFF792FCFFF7ACFD47F824000E
:1009B000641C032CEADBE0E71400002000806640A2
:1009C0002DE9F047154D002000EB400101EBC0067A
:1009D00071194978522904D0401C0328F4DBBDE882
:1009E000F0870E4F0024DFF838906FF00E083C3788
:1009F00006EB44002844408800B2FFF75FFD424602
:100A0000FFF745FD00224B46FFF760FCFFF77AFD3C
:100A100047F82400641C032CEADBE0E71400002004
:100A200000409F402DE9F041144D002000EB4001B3
:100A300001EBC00671194978512904D0401C0328E4
:100A4000F4DBBDE8F0810D4F00246FF00E08243771
:100A500006EB44002844408800B2FFF72FFD4246D1
:100A6000FFF715FD0422FFF712FDFFF74BFD47F8D6
:100A70002400641C032CEBDBE3E7000014000020DF
:100A800010B5FFF7CFFFFFF769FFFFF799FFBDE84C
:100A9000104000F065B8FEE770B5124E0446706B6A
:100AA000850F00F023F82060012D05D00E48022D9F
:100AB00002D0032D00D000206060316AC840A060E1
:100AC0003168C1F3015120FA01F1E160B16AC1F36B
:100AD0000241072902D0C840206170BD0621B0FB49
:100AE000F1F0F9E70080084000127A000C49D1F8D3
:100AF000A400002813D0086A0A48D1F8FC13012981
:100B00000DD0094A9169C1F3C55101B940219269DB
:100B1000C2F3415301229A40B0FBF2F048437047C0
:100B20000000104300127A000080084000B585B034
:100B30006846FFF7B1FF039805B000BDF0B5074F59
:100B40007C6AFD6A3E6B84438D43964313B1044334
:100B50000D4316437C62FD623E63F0BD0080084099
:100B60002DE9F0418EB0242101A8FFF716FB0024E7
:100B700026460DF128080020414641F82060401C1F
:100B80000328FADB4FF07E571C4D41F82470009685
:100B900000233A4601A8296800F0E8F905F1180297
:100BA0000AA901A800F0C8F800963B46002201A857
:100BB000696800F0DBF90AAA05F1180101A800F044
:100BC000BBF8009700231A4601A8A96800F0CEF9E7
:100BD00005F118020AA901A800F0AEF805F1180005
:100BE0000C3D816855F82400FFF734FB45F82400DC
:100BF000641C032CBFDB0EB0BDE8F0814400002074
:100C00007047000010B5012000F070F8002810D0E7
:100C100001210022084600F075F8012000F050F88C
:100C20004FF4FA7001F0CAF8BDE8104001A000F0DE
:100C3000EFBA10BD57414B455550424F54544F4E9B
:100C40002E2E2E0A00000000012000F031B8000016
:100C500070B5072000F03EF8002824D0124C21780F
:100C6000124819B12178012913D017E00421054653
:100C700000F05EF84021284600F05CF80121217068
:100C80004021284600F056F80421284600F052F88A
:100C900004E0402100F04CF802202070BDE87040D4
:100CA000072000F00DB870BD0800002000200B40A8
:100CB0000121814001484164816470470040024045
:100CC0000121814002488165BFF34F8F70470000CA
:100CD00000400240044A01460020D26C01238B40B0
:100CE0001A4200D00120704700400240044A0146E9
:100CF0000020926D01238B401A4200D001207047E2
:100D00000040024010B50123084C8340012A02D064
:100D1000206D984305E0606D29B118436065206D32
:100D20001843206510BD9843F8E7000000400240DA
:100D300081627047416270472DE9F04700241646F2
:100D40000F468046A14646F82490002505EB450055
:100D5000011957F8250058F82110FFF781FA56F8C5
:100D60002410FFF725FA6D1C46F82400032DEDDB57
:100D7000641C032CE7DBBDE8F087FEE72DE9FE43AA
:100D80008846044600254FF480410F04194E28463A
:100D9000BC4202D14FF4824103E0B44201D14FF48E
:100DA000844101232A46FFF7C9FEBC4202D1062234
:100DB0000C2103E0B44204D1062230210020FFF7C9
:100DC0009BFD0120ADF80400ADF80850CDF800807F
:100DD000ADF80650ADF80A506946204600F0DDF93E
:100DE0000121204600F009FA0121204600F0EFF928
:100DF000BDE8FE8300000440FEE77047062801D2EC
:100E0000074A00E0074A01D3A0F1060000EB80008A
:100E1000136801FA00F143EA010313607047000010
:100E2000280109402C0109400A4A00EB400002EB6E
:100E3000C000D1E904231A438B691A4302600A688F
:100E400042604A688260CA68098942EA01410161D8
:100E5000704700000000094030B50024224687B0EA
:100E6000102001231146FFF769FE01218D07284656
:100E700000F0B7F90F486946CDE900504FF44860DB
:100E8000069068150590212002900120CDE9030409
:100E90000220FFF7C9FF01220921022000F038F8E3
:100EA0000121022000F008F80121022000F048F89A
:100EB00007B030BD14000020084A00EB400002EBF0
:100EC000C00000F07042C0F3130002EB401000F1CC
:100ED000007001B10121016070470000000009406D
:100EE000062801D2084A00E0084A01D3A0F1060012
:100EF00000EB8000126801FA00F10A4201D00120E3
:100F0000704700207047000020010940240109407B
:100F1000062801D2084B00E0084B01D3A0F10600DF
:100F2000002A00EB80001A6801FA00F101D00A43A0
:100F300000E08A431A6070473001094034010940DB
:100F4000084A00EB400002EBC00000F07042C0F322
:100F5000130002EB401000F1007001B1012141606B
:100F60007047000000000940704700002DE9FF4F66
:100F7000044681B00846FFF7B2FA00223E4BFFF765
:100F800017FA3E4A3E4BFFF7A1F9FFF7BBFAFFF70E
:100F9000A6FA0F46054600F07DFFFFF7B3FA0646B6
:100FA0002846394600F0B4FEFFF7ACFA0546014684
:100FB0004FF07E50FFF74EF900900399FFF750F97C
:100FC00007460399FFF74CF92946FFF7F1F820602F
:100FD00030460E99FFF744F98146C84638460499D1
:100FE000FFF73EF982464146FFF7E2F8606030467F
:100FF0000499FFF735F9804638460E99FFF730F926
:1010000083464146FFF726F9A06049465046FFF760
:1010100021F9E06004990098FFF722F90746049946
:10102000FFF71EF92946FFF7C3F820613046039900
:10103000FFF716F9064638460E99FFF711F90746ED
:101040003146FFF7B5F8606141465846FFF7B0F802
:10105000A06131463846FFF7FDF8E0610E9900982F
:10106000FFF7FEF80E99FFF7FBF82946FFF7A0F807
:10107000206205B0BDE8F08F008066404AD8124D6E
:10108000FB21094070B50446C1B24FF080452846A7
:1010900000F0B1F84021284600F07AF80028F9D095
:1010A000204670BD70474FF0E0210428086903D046
:1010B00020F004000861704740F00400FAE710B522
:1010C0006FF00400FFF7EFFF42F2283000F021F844
:1010D000BDE81040012000F010B84FF0E02130B121
:1010E0000128086906D020F001000861704700203F
:1010F0008861704740F00100F7E74FF0E0210028D9
:10110000086902D040F0020001E020F0020008610E
:1011100070474FF0E0214861704700F02FB80000A1
:1011200013480121C0F80013124AC2F8A810D2F8DF
:101130000831002BFBD0002313624FF01063836152
:10114000C2F8A410D2F80431002BFBD00A4A13686D
:1011500023F00703DB1C13600162426822F00302E4
:10116000521C4260426BB1EB927FFBD17047000092
:101170000080084000001043000208400348016856
:10118000002902D00168491E016070470400002058
:101190008069084000D00120704770B505460C46B4
:1011A000C88889882A690843218922F01F021143CF
:1011B00008432861686A618920F003000843686277
:1011C000FFF7B4FC2168B0FBF1F0A86370BD002903
:1011D000C16802D041F4007101E021F40071C160E6
:1011E00070470029416A02D041F0200101E021F05E
:1011F000200141627047016070470029C16802D038
:1012000041F4807101E021F48071C1607047FEE714
:101210000FB4054B10B503A9044A029800F048FB2F
:1012200010BC5DF814FB0000E51D00000C00002060
:10123000490050EAC12018BF04204A0D18BF40F0F1
:10124000010040F2FF72B2EB515F08BF40F00200B4
:10125000012808BF052070472DE9F74F144696B0C6
:101260000021C4E902111799089121F00045CA49EB
:101270008D4206DC1799C4E9000119B00020BDE8D1
:10128000F08FC649DFF818A3A9423CDD0899C54E86
:101290000029C54FC54A1799534619DDFFF7B5FA1E
:1012A000554506D0C24AC34BFFF7AFFAC4E9000167
:1012B0000AE04FF0D352BF4BFFF7A7FA32463B4646
:1012C000FFF7A3FAC4E9000119B00120BDE8F08FCF
:1012D000FFF7FAF9554506D0B54AB64BFFF7F4F9D2
:1012E000C4E900010AE04FF0D352B24BFFF7ECF92A
:1012F00032463B46FFF7E8F9C4E9000119B04FF068
:10130000FF30BDE8F08FAC49A942179978DB21F096
:1013100000488346A94AAA4B4146FEF7D7FF002260
:10132000A84BFFF7D1F9FFF7C7FA0990FFF7C6F806
:1013300006460F469D4A5346FEF7C8FF5A464346A7
:10134000FFF766FA80468A46994A9A4B30463946F4
:10135000FEF7BCFF2A0D01250B9242465346FFF7CC
:1013600057FA032DC4E9000139D00B98C1F30A5193
:10137000401A05EB45111139814230DA9248C346D3
:10138000784400EB0510CDF81CA00C90D0E90023A8
:1013900030463946FEF79AFFCDE9020102460B4678
:1013A00058460799FFF731FA80468A4602460B46AF
:1013B00058460799FFF729FADDE90223FFF725FAD6
:1013C00083460C9803913946D0E902233046FEF754
:1013D0007DFF5A46039BFFF718FA6D1CBDE708987E
:1013E0000028A2BF099819B0BDE8F08F616881F0AC
:1013F00000416160099819B04042BDE8F08FFFE7F5
:10140000C1F3130141F480110E911799C1F30A51F0
:10141000A1F2F532511102F01F08C8F12002129218
:1014200000220C920D92694A7A4402EB810101F18B
:10143000140C0DA95FF00607DCF80020DCF804505E
:1014400002FA08F3129AD1F800A025FA02F21A4320
:101450000E9BA2FB0356A2FB00329A4415449A4508
:1014600034BF4FF0010B4FF0000B51F8043C05EB7B
:101470000B0E7344954234BF012200221644BBF187
:10148000000F02D0AB4202D903E0AB4201D20122ED
:1014900000E000223244C1F800A041E90223091F04
:1014A000ACF1040C7F1EC7D10898DDE90A6500F194
:1014B0000050800F11900898099F8000FEF7FEFFF2
:1014C00080468A463846FFF7EAF96FF01D02FEF7BC
:1014D000DEFF074630460591FFF7E1F96FF03D0268
:1014E000FEF7D5FFCDE903102846FFF7D8F96FF0D6
:1014F0005D02FEF7CCFF064602460B460191DDE990
:101500000310FFF7E1F83A46059BFFF7DDF8424686
:101510005346FFF7D9F800200D468346424653460E
:10152000FFF773F93A46059BFFF76FF9DDE90332E0
:10153000FFF76BF93246019BFFF76AF9DFF89480F9
:10154000234A4346FEF7C2FE06460F46224A234B75
:1015500058462946FEF7BAFE32463B46FFF7B4F836
:101560000F4606464FF0A842434658462946FEF726
:10157000ADFE32463B46FFF7A7F8179A12F0004F30
:1015800004D0119A81F0004152421192C4E9000145
:10159000119819B0BDE8F08FFB21E93F7CD90240DA
:1015A000FB21F93F7370032E8A19A33B00004054BE
:1015B0003163621A61B4D03DFB21394183C8C96DE2
:1015C000305FE43F0000E03FF40B00007C0B0000C4
:1015D000182D4454FB21F93D3326A611460B113C2E
:1015E0002DE9FF4D21F0004807460C46B8F1795F20
:1015F00008DAFFF761F9002801BF0020324904B082
:10160000BDE8F08D3A46234610461946FEF75EFEC9
:10161000054602462D480E460B460621784400F04A
:101620005DF82A463346FEF751FEDDE90223824685
:101630008B4638462146FEF749FE04460F46524681
:101640005B4628463146FEF741FE22463B46FFF701
:10165000DCF807468A464FF0FF3228463146FEF74F
:1016600016FF1B4A90450ADA3A465346FFF7CDF873
:1016700004B00022BDE8F04D134BFFF7C9B8154A7E
:101680004245A8BFA8F500154FF00004B8BF124DA1
:1016900022462B46FFF7B9F80646884622462B46D7
:1016A00000200949FFF7B1F804460D463A46534673
:1016B00030464146FFF7A9F804B022462B46BDE864
:1016C000F04DFFF7A5B800000000F03F280900002A
:1016D0003333D33F0000E93F0000D23F2DE9F04112
:1016E0004F1E00EBC7010446D1E9000115461E4616
:1016F00037F006020DD02A463346FEF7E7FD7F1E7F
:1017000004EBC703D3E90023FEF7DEFF37F0060240
:10171000F1D1022F25D0042F13D0062F18BFBDE81A
:10172000F0812A463346FEF7D1FDD4E90A23FEF7BD
:10173000CBFF2A463346FEF7C9FDD4E90823FEF75E
:10174000C3FF2A463346FEF7C1FDD4E90623FEF760
:10175000BBFF2A463346FEF7B9FDD4E90423FEF762
:10176000B3FF2A463346FEF7B1FDD4E90223FEF764
:10177000ABFF2A463346FEF7A9FDD4E90023BDE8B6
:10178000F041FEF7A1BF00002DE9FF4D054621F015
:10179000004084B00C46B0F1795F0BDA2846FFF7C1
:1017A00047FD042808BF00F065F8284608B0214628
:1017B000BDE8F08D2A460B461046FEF787FD06462B
:1017C0000F462A462346FEF781FD804626488A4674
:1017D00032463B4605217844FFF780FF8346109848
:1017E000029160B3214A224B40465146FEF76EFDFE
:1017F000CDE900015A4640465146029BFEF766FD80
:1018000082468846DDE906014FF0FF32FEF73FFED3
:1018100052464346FEF7F9FF32463B46FEF756FD79
:10182000DDE90623FEF7F1FFDDE90023FEF7EDFF1A
:1018300008B02A462346BDE8F04DFEF7E9BF0B4647
:101840005A4630463946FEF741FD084A084BFEF736
:101850003BFF42465346FEF739FD08B02A46234671
:10186000BDE8F04DFEF730BF6608000049555555FC
:101870005555C5BF024A00201107FEF708BE0000FB
:1018800001FDFFFF02E008C8121F08C1002AFAD1BB
:1018900070477047002001E001C1121F002AFBD1F0
:1018A00070470000014908607047000010000020E8
:1018B0002DE9FF4F8DB00F4605460026DEE12528B5
:1018C00074D100246D1CF149A246A14601222B7857
:1018D000203B02FA03F0084202D004436D1CF6E7F5
:1018E00028782A2810D06FF02F022878A0F1300134
:1018F000092915D80AEB8A0102EB410144F00204E0
:1019000000EB010A6D1CF0E757F804ABBAF1000FC9
:1019100003DA44F40054CAF1000A44F002046D1CD6
:1019200028782E2817D115F8010F44F004042A282E
:101930000ED06FF02F022878A0F1300109290AD8C3
:1019400009EB890102EB410100EB01096D1CF2E793
:1019500057F8049B6D1C28786C280FD006DC4C28A7
:1019600017D068280DD06A2814D104E0742810D04C
:101970007A280FD10DE044F400140AE044F48014F6
:1019800001E044F440146978814202D16D1C04F5F1
:1019900080146D1C2A786E2A20D00DDC632A33D087
:1019A00005DC002A6FD0582A12D1A2E011E0642A87
:1019B0006AD0692A0CD167E0732A2FD004DC6F2A21
:1019C0006FD0702A04D199E0752A6BD0782A6AD03A
:1019D0001046DDE90F129047761C4EE1C4F3025029
:1019E000022806D003280AD0042801CF0AD00660B6
:1019F00043E101CF4FEAE671C0E900613DE101CF6B
:101A000006803AE1067038E117F8040B8DF8000003
:101A100000208DF80100EB46012003E057F804BBDD
:101A20004FF0FF3061074FF0000102D40DE008F1E4
:101A30000101884649450FDA8045F8DB1BF808109C
:101A40000029F4D108E008F1010188468142FADB5F
:101A50001BF808100029F6D1DDE90F23AAEB0800D6
:101A60008146214600F03BF9304400EB080604E0D3
:101A7000DDE90F121BF8010B9047B8F10108F7D20E
:101A800021464846F4E0FDE00A21C4F302534FF03A
:101A9000000B0891022B07D001CFC117032B09D0EF
:101AA0000AE034E023E024E0FF1D27F00707F7E811
:101AB000020105E000B2C117042B01D140B2C117E9
:101AC000002907DA4FF0000CD0EB0C006CEB0101A1
:101AD0002D2302E0230504D52B238DF82430012388
:101AE00003E0E30701D02023F7E7984650E00A21FE
:101AF0000EE010204FF0000B08900CE010214FF08A
:101B0000000B44F004044FF00809089103E0082199
:101B10004FF0000B0891C4F30253022B04D001CF05
:101B20000021032B06D006E0FF1D27F00707F7E88A
:101B3000020103E080B2042B00D1C0B24FF00008D4
:101B4000230725D5702A2AD0DDF820C08CF0100C90
:101B50005CEA0B0C09D150EA010306D030238DF862
:101B600024308DF8252002239846DDF820C08CF023
:101B7000080C5CEA0B0C0BD150EA010301D163079E
:101B800006D530238DF824304FF00108A9F1010962
:101B9000582A09D03EA20B9208AA0A9211E04023CB
:101BA0008DF824300123DFE73EA2F4E75B46089A74
:101BB000FEF7C4FC0B9B9B5C0A9AA2F101020A92FD
:101BC000137050EA0102F1D10A98ADEB000000F168
:101BD000200B600702D524F4803401E04FF00109A6
:101BE000D94502DDA9EB0B0000E0002000EB0B0162
:101BF00041440890AAEB010AE00306D4DDE90F2373
:101C00002146504600F06BF80644002008E009A980
:101C100011F80900DDE90F129047761C09F1010067
:101C200081464045F3DBE0030CD5DDE90F23214677
:101C3000504600F054F8064404E0DDE90F1230206D
:101C40009047761C0899481E08900029F5DC08E0AA
:101C50000A980A990078491C0A91DDE90F12904709
:101C6000761CBBF10001ABF1010BF1DC21465046C3
:101C7000DDE90F2300F020F806446D1C28780028C9
:101C80007FF41DAE11B03046BDE8F08F0928010089
:101C900030313233343536373839616263646566E2
:101CA00000000000303132333435363738394142A4
:101CB00043444546000000002DE9F041044600255C
:101CC0001E461746880405D406E039462020B04752
:101CD00005F10105641EF8D52846BDE8F0812DE91F
:101CE000F041044600251E469046C80301D5302722
:101CF00000E02027880405D506E041463846B04775
:101D000005F10105641EF8D52846BDE8F081000004
:101D100000B5284B21F0004287B09A42DCBF002278
:101D2000134631DD244B9A420DD168B94FF00100C2
:101D3000FFF7B8FD002207B01346104611465DF8C4
:101D400004EBFEF735BB06DB07B04FF001025DF890
:101D500004EBFEF79CBB02AAFFF77EFA10F003012A
:101D600004BF0DF1080CBCE80F000DD001200129C3
:101D70000ED0022914D00DF1080C0090BCE80F0021
:101D8000FFF702FD07B000BDFFF72AFC07B000BD5A
:101D90000DF1080C0090BCE80F00FFF7F5FC05E022
:101DA0000DF1080CBCE80F00FFF71AFC07B081F03A
:101DB000004100BDFB21E93F0000F07F10B5044663
:101DC0000120FFF78AF906490C6008680028FCD159
:101DD000801EFFF782F9BDE810400020FFF77DB9B3
:101DE00004000020FFF74EB9204900200870FFF7DB
:101DF00066F94FF4E13421466005FEF7BFFF1C4E43
:101E000021463046FEF7BAFFFFF726F819A0FFF784
:101E1000FFF908210220FFF763F80128F9D11B48D8
:101E2000007855281DD1FEF72BFE194FB8680146E2
:101E3000FEF716FA054678680146FEF711FA0446E1
:101E400038680146FEF70CFA2146FEF7B1F929463B
:101E5000FEF7AEF9B0F17E5F03DD55213046FFF7A6
:101E6000CAF908210220FEF7C9FFD2E700000020CE
:101E700000000440496E6974206F76373732352090
:101E8000737563636573732E0D0A000014000020E0
:101E90003800002000B5294B21F0004287B09A425B
:101EA00003DC00221346009233E0254B9A420DD109
:101EB00068B94FF00100FFF7F5FC002207B01346A8
:101EC000104611465DF804EBFEF772BA06DB07B068
:101ED0004FF001025DF804EBFEF7D9BA02AAFFF752
:101EE000BBF910F003014FF001000DD0012914D00F
:101EF00002291AD00DF1080CBCE80F00FFF770FBA7
:101F000007B081F0004100BD0DF1080C0090BCE865
:101F10000F00FFF739FC07B000BD0DF1080CBCE85D
:101F20000F00FFF75DFB07B000BD0DF1080C00903E
:101F3000BCE80F00FFF728FCE2E70000FB21E93FC7
:101F40000000F07F000000004C5555555555A53F49
:101F50007751C1166CC156BF9015CB19A001FA3E3E
:101F6000AD529C804F7E92BEC4B1B4BD9EEE213E68
:101F7000D43888BEE9FAA8BD00004054FB21F93FDF
:101F80003163621A61B4D03D0000601A61B4D03D83
:101F90007370032E8A19A33B0000002E8A19A33BFD
:101FA000C14920259A837B39000000000000000011
:101FB0006E83F9A22915444ED15727FCC0DD34F5B4
:101FC000999562DB4190433CAB6351FE61C5BBDE3A
:101FD0003A6E24B7E0D24D42EA2E49061C92D1094E
:101FE0001CEB1DFE3EA729B1F53582E88444BB2ECB
:101FF00026709CE9417E5FB439D69139F439538318
:102000008B5F849C3B28F9BDFF97F81F0F9805DE76
:102010008B112FEF1F6D0A5ACF7E366DB709CB2774
:10202000663F464F2DEA5F9EC7BA27757BF1E5EB09
:10203000F739073DEA92528AB15FFB6B085D8D1F4D
:10204000A6F810111111813FD561C119A0012ABF55
:102050007DFEB157E31DC73EEB9C2B8AE6E55ABED9
:102060007CD5CF5A3AD9E53D8820000000000020F9
:1020700014000000841800009C20000014000020C0
:10208000540200009418000000000000000000004E
:0C20900000000000000000000000000044
:0400000500000155A1
:00000001FF
