:020000040000FA
:100000003802002055010000BD0400006B04000010
:10001000BB040000DD020000830A000000000000B5
:10002000000000000000000000000000B709000010
:10003000A903000000000000BF040000B90900008F
:100040006F0100006F0100006F0100006F010000F0
:100050006F0100006F0100006F0100006F010000E0
:100060006F0100006F0100006F0100006F010000D0
:100070006F0100006F0100006F0100006F010000C0
:100080006F0100006F0100006F0100006F010000B0
:100090006F0100006F0100006F0100006F010000A0
:1000A0006F0100006F010000000000006F01000000
:1000B0006F0100006F0100006F0100006F01000080
:1000C0006F0100006F0100006F0100006F01000070
:1000D0006F010000000000000000000000000000B0
:1000E000000000006F0100006F0100006F010000C0
:1000F0006F0100006F0100006F0100006F01000040
:100100006F0100006F0100006F0100006F0100002F
:100110006F0100006F010000000000006F0100008F
:100120006F0100006F0100006F0100006F0100000F
:100130006F0100006F0100006F010000000000006F
:1001400000000000000000000000000000000000AF
:100150006F0100000648804706480047FEE7FEE7BB
:10016000FEE7FEE7FEE7FEE7FEE7FEE7FEE7FEE767
:10017000BD09000079010000DFF80CD000F04AF85A
:1001800000480047B90D000038020020D2B201E05B
:1001900000F8012B491EFBD270470022F6E710B58C
:1001A00013460A4604461946FFF7F0FF204610BDE5
:1001B0002DE9F05F0546002092469B46884606469C
:1001C000814640241BE0284641464746224600F02F
:1001D00042F853465A46C01A914110D31146184668
:1001E000224600F029F82D1A67EB01084F462246F7
:1001F0000120002100F020F817EB00094E41201EDD
:10020000A4F10104DFDC484631462A464346BDE8F6
:10021000F09F0000064C074D06E0E06840F0010347
:1002200094E8070098471034AC42F6D3FFF7A8FFD4
:10023000480E0000680E0000202A04DB203A00FA75
:1002400002F1002070479140C2F1200320FA03F32D
:10025000194390407047202A04DB203A21FA02F02B
:100260000021704721FA02F3D040C2F120029140F0
:1002700008431946704700002DE9F0479146164A99
:100280004FF0FF0A02EBC005002200240AFA02F038
:100290002346084219D04FF0010C00200CFA02FC52
:1002A0004FF00F0821FA00F616EA0C0F06D0860070
:1002B00008FA06F73C4309FA06F73B43401C0828B6
:1002C000F0D32868A043184328602D1D0832082A5F
:1002D000DBDDBDE8F087000020200240FEE70000E3
:1002E00070B5124E0446706B850F00F023F8206045
:1002F000012D05D00E48022D02D0032D00D0002084
:100300006060316AC840A0603168C1F3015120FAD1
:1003100001F1E160B16AC1F30241072902D0C8408E
:10032000206170BD0621B0FBF1F0F9E700800840C4
:1003300000127A000C49D1F8A400002813D0086AF2
:100340000A48D1F8FC1301290DD0094A9169C1F37B
:10035000C55101B940219269C2F3415301229A402B
:10036000B0FBF2F0484370470000104300127A00DF
:100370000080084000B585B06846FFF7B1FF0398DC
:1003800005B000BDF0B5074F7C6AFD6A3E6B844343
:100390008D43964313B104430D4316437C62FD62C3
:1003A0003E63F0BD00800840704742B1012A09D089
:1003B00082688A438260C2688A43C26070478268EA
:1003C0000A43F7E7C2680A43C26082688A438260D0
:1003D0007047C943C167BFF34F8F70470029016958
:1003E00002D041F0010101E021F0010101617047FB
:1003F0003EB5002001900C4800684FF4FA61B0FB54
:10040000F1F0ADF800000120ADF802000002074C49
:10041000ADF808006946204600F012F80121204698
:10042000FFF7DCFF3EBD00000400002000E00640B6
:10043000C06F084000D001207047C0F8801070479E
:100440000A88C0F888204A88C0F88420026822F40C
:1004500040320260026822F08072026002684B68DB
:100460001A430260098981677047FEE73EB50024A0
:10047000054622464FF4824101231046FFF782FFD2
:1004800006220C210020FFF7F7FE0120ADF8040042
:10049000ADF80840ADF80640ADF80A408407009575
:1004A0006946204600F0BDFA0121204600F0DFFA3F
:1004B0000121204600F0CFFA3EBDFEE770477047AD
:1004C00010B56FF010014FF0402000F06AFABDE85F
:1004D0001040FF2000F0E8B970B505464FF6FF74F4
:1004E00001E0641EA4B2FF2000F0DEF9A84202D0B1
:1004F000002CF6D102E00CB1002070BDFF2070BDD1
:100500002DE9F843382000F0F7F90024FF2000F02F
:10051000CBF9641C0A2CF9DB4E4E142400219522E1
:10052000084600F033F90546012805D02000A4F163
:100530000104A4B2F2D17EE087224FF4D5710820E5
:1005400000F024F94FF6FE78012820D00122002186
:10055000372000F01BF901220021292000F016F9B4
:10056000012850D802203070444601220021372053
:1005700000F00CF901220021292000F007F9050004
:1005800050D02000A4F10104A4B2EED14AE000242E
:100590006F46FF2000F088F93855641C042CF8DB06
:1005A0009DF80200012846D19DF80300AA2842D1F7
:1005B00044464FF0804801220021372000F0E6F841
:1005C00001224146292000F0E1F8050004D0200076
:1005D000A4F10104A4B2EED16CB3012200213A20AF
:1005E00000F0D4F838BB0024FF2000F05DF9385546
:1005F000641C042CF8DB9DF80000400601D50620A1
:1006000018E0042016E00120307044460122002149
:10061000104600F0BBF8050004D02000A4F101044E
:10062000A4B2F3D12CB101225102102000F0AEF897
:1006300008B100203070FFF743FF002000F05CF9A4
:10064000307810B10020BDE8F8830DB12846FAE7F4
:10065000AA20F8E7000000202DE9F04106461848DE
:1006600015460078062800D049024FF40077012D86
:100670004FF0010219D0122000F088F839463046B8
:1006800000F058F86D1E044606F5007615F0FF05DB
:1006900001D0012CF2D0012200210C2000F076F8CC
:1006A000FFF70EFF2046BDE8F081112000F06EF844
:1006B0000400F5D13946304600F03CF80446EFE737
:1006C0000000002070B5ADF5007D04464FF40076C3
:1006D00031466846FFF761FD012221466846FFF773
:1006E000BBFF01280FD109A000F0CCF900246D4612
:1006F0000BA0295D00F0C6F9641CA4B2B442F7D384
:1007000008A000F0BFF90DF5007D70BD53454354BE
:100710004F52203020444154413A0D0A000000005D
:10072000257820000D0A4441544120454E4445445B
:100730000D0A000070B504460D46FE20FFF7CCFE02
:1007400028B1002070BD00F0AFF804F8010B2800BC
:10075000A5F10105ADB24FF0FF00F4D100F0A4F80F
:10076000FF2000F0A1F8012070BD00F063B810B5C3
:1007700010214FF0402000F014F900F039F808B1D2
:10078000012010BDFFF79CFE002010BD70B516467D
:100790000C460546FFF794FEFFF7E9FFB8B145F0B8
:1007A000400000F081F8200E00F07EF8C4F307400E
:1007B00000F07AF8C4F3072000F076F8E0B200F019
:1007C00073F8304600F070F80C2D02D004E0FF20E2
:1007D00070BDFF2000F068F81F24FF2000F064F8CF
:1007E0000106F5D52100A4F10104E4B2F5D170BDF4
:1007F00070B500246FF07F4504E0FF2000F054F84E
:10080000FF2804D0641CAC42F7D3002070BD012047
:1008100070BD70B50446C1B24FF08045284600F067
:1008200024F94021284600F0F7F80028F9D02046A6
:1008300070BD000010B500244FF4803044F2100168
:1008400001232246FFF79EFD00224FF480711448D9
:10085000FFF7ABFD0522F0210020FFF70DFD114849
:100860004FF48041C0E900140821C0E9021404617A
:1008700044618461C46104210462C0E90941014604
:100880004FF04024204600F058F80121204600F0A7
:100890007CF82046BDE81040012100F03DB8000082
:1008A00000000B400C00002070B50646C8244FF035
:1008B000402503E0641E14F0FF041AD001212846ED
:1008C00000F034F80028F5D03146284600F067F8EB
:1008D000C82403E0641E14F0FF040AD00421284653
:1008E00000F024F80028F5D0284600F04BF8C0B2FC
:1008F00070BD002070BD000010B506494FF04024C7
:100900008862204600F019F82046BDE81040012119
:1009100000F002B80C0000200029016802D041F06C
:10092000010101E021F00101016070470246002051
:1009300052690A4200D00120704730B5D1E9054321
:10094000E4B14FF40072DA4022438C680B68234311
:10095000D1E903452C432343CC692343134343602C
:100960004B6A4A681A430B6A42EA03128261896A37
:100970004FF0FF3202EB5101C16030BD4FF4807285
:100980009A40E2E7006980B270470029016802D00E
:1009900041F0080101E021F00801016070470161A8
:1009A00070471131016802D041F0100101E021F0DF
:1009B0001001016070477047704700001348012123
:1009C000C0F80013124AC2F8A810D2F80831002B60
:1009D000FBD0002313624FF010638361C2F8A410B0
:1009E000D2F80431002BFBD00A4A136823F0070326
:1009F000DB1C13600162426822F00302521C426059
:100A0000426BB1EB927FFBD1704700000080084041
:100A100000001043000208408069084000D0012017
:100A2000704770B505460C46C88889882A6908430E
:100A3000218922F01F02114308432861686A6189F5
:100A400020F0030008436862FFF794FC2168B0FBC4
:100A5000F1F0A86370BD0029C16802D041F40071B3
:100A600001E021F40071C160704701607047002906
:100A7000C16802D041F4807101E021F48071C1604D
:100A80007047FEE70FB4054B10B503A9044A02985E
:100A900000F018F810BC5DF814FB0000B50D000064
:100AA0000800002002E008C8121F08C1002AFAD17D
:100AB00070477047002001E001C1121F002AFBD1DE
:100AC000704700002DE9FF4F8DB09B460F4604464E
:100AD000002638E1252801D00F9959E00025641C33
:100AE0009D49A84601222378203B02FA03F00842E0
:100AF00002D00543641CF6E720782E2817D114F89D
:100B0000010F45F004052A280ED06FF02F0220783F
:100B1000A0F1300109290AD808EB880102EB410154
:100B200000EB0108641CF2E757F8048B641C207882
:100B30006C280DD004DC4C2812D06A2811D104E0B6
:100B400074280DD07A280CD10AE045F4001507E08E
:100B5000617845F48015814202D1641C05F5801549
:100B6000641C2278692A46D008DC002A70D0582AF2
:100B700069D0632A11D0642A08D13CE0702A69D078
:100B8000732A14D0752A5CD0782A5CD00F9910464D
:100B90005A46904706F10106D4E017F8040B8DF889
:100BA000000000208DF80100E946012003E057F81D
:100BB000049B4FF0FF3069074FF0000501D40AE0B5
:100BC0006D1C45450DDA8542FADB19F80510002940
:100BD000F6D106E06D1C8542FCDB19F805100029F2
:100BE000F8D12E4404E019F8010B5A460F999047AA
:100BF0006D1EF8D2A6E00A200021CDE90801C5F358
:100C0000025002280BD001CFC11700290EDA4FF095
:100C1000000CD0EB0C006CEB01012D2309E007F177
:100C2000070727F00707F7E80201EEE72B0504D5D1
:100C30002B238DF82830012330E0EB072ED0202322
:100C4000F7E70A2000E010200021CDE9080109E0C3
:100C50007DE0FFE71020002145F00405CDE9080103
:100C60004FF00808C5F3025002281BD001CF002125
:100C70004FF0000A2B0712D5702A19D0DDE908C3FE
:100C80008CF0100C5CEA030C09D150EA010306D089
:100C900030238DF828308DF8292002239A46582ACF
:100CA00010D00AE0FF1D27F00707F7E80201DFE791
:100CB00040228DF828204FF0010A28A20DF12009CA
:100CC0000B9209E02AA2F9E7DDE90823FFF770FAA1
:100CD0000B9B9B5C09F8013D50EA0102F4D1ADEB9E
:100CE000090000F120000890680701D44FF00108C6
:100CF0000899884502DDA8EB010000E0002080464D
:100D0000002506E00AA85A46405D0F999047761CD8
:100D10006D1C5545F6DB04E030205A460F9990478C
:100D2000761CB8F10001A8F10108F5DC05E019F81E
:100D3000010B5A460F999047761C0899481E089057
:100D40000029F4DC641C207800287FF4C3AE11B0C5
:100D50003046BDE8F08F0000092801003031323301
:100D600034353637383961626364656600000000E7
:100D700030313233343536373839414243444546D1
:100D80000000000070B50A4D044600212846FFF718
:100D900054FBAE1509E031462846FFF71AFB3146F1
:100DA0002846FFF745FB0028F9D0641EF3D270BD3A
:100DB00000E00640FFF72DBD00204FF480720123B4
:100DC0000146FFF7DFFAFFF713FB4FF4E130FFF7BF
:100DD0004DFBFFF7CAFC0024E0B2FFF765FD0546B6
:100DE00021460DA0FFF74EFE29460EA0FFF74AFE52
:100DF000641C0A2CF0DB4FF4FA74FFF781FB30B16E
:100E00000CA0FFF73FFE2046FFF7BCFFF5E70020F0
:100E1000FFF758FCFEE7000053656E742025640D53
:100E20000A000000526563656976652025640D0A35
:100E30000000000053442043617264204572726FC9
:100E400072210D0A00000000680E00000000002062
:100E50000C000000A40A0000740E00000C0000202A
:100E60002C020000B40A00000000000000A24A04A6
:040E7000000000007E
:0400000500000155A1
:00000001FF
