:020000040000FA
:100000006809002055010000EB100000F10F00000E
:10001000E91000005B0B0000AF20000000000000B2
:10002000000000000000000000000000471F00006A
:10003000C50C00000000000051150000BD1F0000AD
:100040006F0100006F0100006F0100006F010000F0
:100050006F0100006F010000C90C00006F0100007B
:100060006F0100000D0D00006F0100006F01000026
:100070006F0100006F0100006F010000150D00000E
:100080006F0100006F0100006F0100006F010000B0
:100090006F0100006F0100006F0100006F010000A0
:1000A0006F0100006F010000000000006F01000000
:1000B0006F0100006F0100006F0100006F01000080
:1000C0006F0100006F0100006F0100006F01000070
:1000D0006F010000000000000000000000000000B0
:1000E000000000006F0100006F0100006F010000C0
:1000F0006F0100006F0100006F0100006F01000040
:100100006F0100006F0100006F0100006F0100002F
:100110006F0100006F010000000000006F0100008F
:100120006F0100006F0100006F0100006F0100000F
:100130006F0100006F0100006F010000000000006F
:1001400000000000000000000000000000000000AF
:100150006F0100000648804706480047FEE7FEE7BB
:10016000FEE7FEE7FEE7FEE7FEE7FEE7FEE7FEE767
:10017000C11F000079010000DFF80CD000F098FBEF
:10018000004800477D34000068090020D2B201E039
:1001900000F8012B491EFBD270470022F6E710B58C
:1001A00013460A4604461946FFF7F0FF204610BDE5
:1001B000F0B480EA0102D40F4200B2EB410F02D248
:1001C0000246084611464A0042D0C30DDDB2C1F3D3
:1001D000C752AD1A202D35DAC1F3160141F40002E1
:1001E00004B15242C5F1200602FA06F12A41104438
:1001F000B3EBD05F23D0C4B1012DA0EBC35009DC19
:10020000F0BC4FF0004202EAC35200F50000DBB23E
:1002100000F0EEB9400000F1807000EBC350A0F197
:10022000807040EAD170490009E0490841EAC07194
:10023000A0EBC35000F50000400800EBC350F0BC39
:1002400000F0CDB96142012202EB4101001BF6E74B
:10025000F0BC704781F00041AAE780F00040A7E7BA
:1002600080EA010210B502F00043400026D04A00A7
:1002700023D04FEA106101EB1261C0F35600C2F3C4
:10028000560240F4000042F40002A0FB0220A1F15B
:100290007F014FEA0040140401D000F1010050EA50
:1002A000124001D44000491EC2B20C0604EBD0102B
:1002B000401C4008802A02D003E0002010BD20F03E
:1002C0000100002900DA0020184310BD2DE9FE4F7F
:1002D00081EA030404F0004421F0004100944FF04F
:1002E000000B23F0004350EA010402D052EA030459
:1002F00004D10020014603B0BDE8F08FC3F30A54D7
:10030000C1F30A552C44A4F2F3340194A0FB025427
:10031000C1F3130141F48011C3F3130343F48013B9
:1003200001FB024400FB034E840A970A44EA81540D
:1003300047EA8357A4FB076802958D0A05FB0785EA
:100340004FEA932C04FB0C542705029D4FEA0658F4
:1003500047EA1637B5EB08056EEB070C870E920ED1
:1003600047EA811742EA8312A7FB0201B6EB0B01B1
:1003700064EB00042B0D43EA0C335E1844EB1C5075
:10038000DA465146E7FB0201C5F313044FEA0B338B
:1003900043EA14534FEA0432019C43EA0603A4F1F2
:1003A0000C040294009CCDE900B400F05BF9A2E7D4
:1003B0002DE9F04D81EA030404F0004B21F00045E3
:1003C00014464FF0000A23F0004150EA050220D005
:1003D00054EA01021DD0C5F30A570246C5F31303C0
:1003E000C1F31300C1F30A5640F4801543F480139F
:1003F000A7EB0608101BD64608F2FD3873EB050084
:1004000002D308F1010801E092185B41B8F1000F36
:1004100003DA00200146BDE8F08D00204FF4801182
:10042000064684460EE0171B73EB050705D3121B27
:1004300063EB050306434CEA010C49084FEA300020
:1004400092185B4150EA0107EDD152EA030012D045
:1004500082EA040083EA0501084303D100224FF039
:10046000004308E0101BAB4102D20122002302E04E
:100470006FF0010253101AEB06004CEB085110EB21
:100480000A0041EB0B01BDE8F04D00F0DEB870B59D
:1004900021F0004303430CD0C1F30A550024D5EBEF
:1004A000040564EB0403D617AD1AB34102DB002048
:1004B000014670BD201841EB025170BD0EB5C10F51
:1004C00080EAE0700844CA07002140F233438DE817
:1004D0000E000A460B4600F0C5F803B000BD00F060
:1004E000004230F000400AD0C10D01F56071C0F348
:1004F000160042EA0151C20840071143704700202C
:100500000146704701F0004330B421F0004150EA49
:10051000010206D00A0DA2F56072C1F31301002A90
:1005200002DC30BC00207047440F44EAC104C10023
:10053000E01830BC00EBC25000F051B8002801DBDD
:10054000C0F10040002901DBC1F100418842704741
:1005500030B50B46014600202022012409E021FA93
:1005600002F59D4205D303FA02F5491B04FA02F590
:100570002844151EA2F10102F1DC30BD2DE9F05F27
:100580000546002092469B46884606468146402402
:100590001BE0284641464746224600F0AAF953464A
:1005A0005A46C01A914110D311461846224600F00F
:1005B00091F92D1A67EB01084F46224601200021D0
:1005C00000F088F917EB00094E41201EA4F1010448
:1005D000DFDC484631462A464346BDE8F09F002905
:1005E000A8BF7047401C490008BF20F001007047B9
:1005F00010B4B0FA80FC00FA0CF050EA010404BF19
:1006000010BC704749B1CCF1200421FA04F411FA6E
:100610000CF118BF012121430843A3EB0C01CB1DB2
:100620000106000A002BBEBF002010BC704700EB83
:10063000C35010440029A4BF10BC7047401C49009F
:1006400008BF20F0010010BC704710B5002B08DA7D
:10065000401C41F1000192185B411A4301D120F086
:10066000010010BD2DE9F04D92469B4611B1B1FA43
:1006700081F202E0B0FA80F22032904600F02AF9CE
:1006800004460F4640EA0A0041EA0B0153465A4627
:10069000084303D120463946BDE8F08D114653EAA0
:1006A000010015D0C8F14002504600F022F905467D
:1006B0000E4650465946424600F00CF9084301D018
:1006C000012000E00020054346EAE0762C43374352
:1006D0000A984FEA4453A0EB08004FEAD4240A30AA
:1006E0004FF0000244EA47544FEAD72502D50020D4
:1006F0000146D1E7010510196941DDE908450019F6
:100700006941BDE8F04DA0E72DE9FE4F804681EA42
:100710000300C00F0C46009021F0004123F000457B
:10072000B8EB0200A94105D24046214690461C463E
:100730000B46024623F00040104304D140462146B8
:1007400003B0BDE8F08F270DC7F30A00C3F30A51C9
:100750000290401A0190402866DAC3F3130040F477
:10076000801B0098924620B10023D2EB030A63EB72
:100770000B0B01985946C0F14002504600F0AAF810
:1007800006460D4650465946019A00F0C2F810EB55
:1007900008006141002487EA115284EAE7731A4392
:1007A0003BD0009A3AB3019A012A4FEA075210DC73
:1007B000001B61EB02014FF0004202EA0752CDE953
:1007C0000042001C41F5801132462B46FFF74AFFDC
:1007D000B6E7001B61EB0201001C41F58013001815
:1007E0005B412018A2F5001747EB030140EAD570E2
:1007F000B6196D4111E06D084FEA360645EAC0753D
:100800004FEA0752001B61EB0201001C41F5801109
:1008100049084FEA30000019514132462B4603B0D7
:10082000BDE8F04FFFF711BF009801224000002300
:10083000D0EB020263EBE073009821464FEAE074CC
:10084000B8EB000061EB0401E9E783F000435BE7EC
:1008500081F0004158E7C1F30A52C1F3130140F29D
:10086000FF3341F480119A4202DA002001467047BA
:1008700040F233439A42A2F2334202DC524200F089
:1008800038B800F027B8000030B5002904DB4FF07D
:100890000044404264EB0101002B04DB4FF00044B4
:1008A000524264EB0303994208BF904230BD0000FE
:1008B000064C074D06E0E06840F0010394E80700AD
:1008C00098471034AC42F6D3FFF75AFCB439000015
:1008D000D4390000202A04DB203A00FA02F100207B
:1008E00070479140C2F1200320FA03F3194390406E
:1008F0007047202A04DB203A21FA02F000217047D9
:1009000021FA02F3D040C2F1200291400843194677
:100910007047202A06DBCB17203A41FA02F043EA5F
:10092000E07306E041FA02F3D040C2F120029140A8
:100930000843194670470EB540F233410291002139
:10094000CDE900110A460B46FFF78CFE03B000BD4F
:1009500070B5C1F30A5201F000450024C1F3130140
:1009600040F2FF3341F480119A4201DA002070BD59
:1009700040F233439A42A2F2334203DC5242FFF781
:10098000B8FF00E090402C43F1D0404270BD000021
:1009900010B50022072802D901220838C0B2064B40
:1009A00003EB8202136880000F248440A34381403C
:1009B0001943116010BD0000002002402DE9F047EE
:1009C0009146164A4FF0FF0A02EBC00500220024B0
:1009D0000AFA02F02346084219D04FF0010C002019
:1009E0000CFA02FC4FF00F0821FA00F616EA0C0F81
:1009F00006D0860008FA06F73C4309FA06F73B439F
:100A0000401C0828F0D32868A043184328602D1DF7
:100A10000832082ADBDDBDE8F08700002020024014
:100A20002DE9F047154D002000EB400101EBC00619
:100A300071194978532904D0401C0328F4DBBDE820
:100A4000F0870E4F0024DFF838906FF00E08303733
:100A500006EB44002844408800B2FFF72FFD4246D1
:100A6000FFF715FD00224B46FFF730FCFFF74AFD6C
:100A700047F82400641C032CEADBE0E710070020A1
:100A8000008066402DE9F047154D002000EB400145
:100A900001EBC00671194978522904D0401C032883
:100AA000F4DBBDE8F0870E4F0024DFF838906FF0DC
:100AB0000E083C3706EB44002844408800B2FFF79C
:100AC000FDFC4246FFF7E3FC00224B46FFF7FEFB2E
:100AD000FFF718FD47F82400641C032CEADBE0E76D
:100AE0001007002000409F402DE9F041144D0020E8
:100AF00000EB400101EBC00671194978512904D07F
:100B0000401C0328F4DBBDE8F0810D4F00246FF09A
:100B10000E08243706EB44002844408800B2FFF753
:100B2000CDFC4246FFF7B3FC0422FFF7B0FCFFF711
:100B3000E9FC47F82400641C032CEBDBE3E700002E
:100B40001007002010B5FFF7CFFFFFF769FFFFF791
:100B500099FFBDE8104000F065B8FEE770B5124E91
:100B60000446706B850F00F023F82060012D05D03E
:100B70000E48022D02D0032D00D000206060316AA3
:100B8000C840A0603168C1F3015120FA01F1E16071
:100B9000B16AC1F30241072902D0C840206170BD8B
:100BA0000621B0FBF1F0F9E70080084000127A005E
:100BB0000C49D1F8A400002813D0086A0A48D1F8DB
:100BC000FC1301290DD0094A9169C1F3C55101B93E
:100BD00040219269C2F3415301229A40B0FBF2F0E6
:100BE000484370470000104300127A00008008401C
:100BF00000B585B06846FFF7B1FF039805B000BDAA
:100C0000F0B5074F7C6AFD6A3E6B84438D43964383
:100C100013B104430D4316437C62FD623E63F0BD95
:100C2000008008402DE9F0418EB0242101A8FFF793
:100C3000B4FA002426460DF128080020414641F868
:100C40002060401C0328FADB4FF07E571C4D41F812
:100C50002470009600233A4601A8296800F07AFC27
:100C600005F118020AA901A800F043F900963B46D5
:100C7000002201A8696800F06DFC0AAA05F11801BC
:100C800001A800F036F9009700231A4601A8A968C8
:100C900000F060FC05F118020AA901A800F029F98A
:100CA00005F118000C3D816855F82400FFF7D2FAD1
:100CB00045F82400641C032CBFDB0EB0BDE8F081B6
:100CC000400700207047000010B5012000F084F8B4
:100CD000002810D001210022084600F0A5F80120CC
:100CE00000F05CF84FF4FA7002F028FABDE810400A
:100CF00001A001F0FDB910BD57414B455550424F81
:100D000054544F4E2E2E2E0A00000000012000F0F9
:100D10003DB8000070B50221072000F049F810B37B
:100D2000134C2178134819B12178012913D01AE006
:100D30000421054600F0ABF84021284600F0D2F827
:100D4000012121704021284600F0CCF804212846DA
:100D500000F0C8F807E0402100F099F80220207068
:100D600005A001F0C5F9BDE87040072000F00EB8FD
:100D70004500002000200B405069637475726520A7
:100D800064657465637465642E0D0A0001218140F9
:100D90000148416481647047004002400121814064
:100DA00002488165BFF34F8F70470000004002404A
:100DB000074B10B502465B6C00200124944023428F
:100DC00005D0044B53F822208A4200D0012010BDE8
:100DD0000040024000094842044A01460020926D4A
:100DE00001238B401A4200D001207047004002408E
:100DF0000179027BC90741EA0271826800681143E8
:100E0000014A42F82010704700400240054B012281
:100E10008240186C012902D0904318647047104337
:100E2000FBE700000040024010B50123084C83405E
:100E3000012A02D0206D984305E0606D29B1184366
:100E40006065206D1843206510BD9843F8E70000E9
:100E50000040024005490128086D03D020F0004001
:100E60000865704740F00040FAE70000004002408B
:100E700010B54FF4FA7002F061F9012211461046E4
:100E8000FFF7D2FFBDE81040012000F041BB8162B6
:100E90007047002A026801D00A4300E08A430260DA
:100EA0007047002A426801D00A4300E08A4342604A
:100EB000704742B1012A09D082688A438260C268C1
:100EC0008A43C260704782680A43F7E7C2680A43F0
:100ED000C26082688A4382607047C069084000D05F
:100EE00001207047416270470AB1416270478162D8
:100EF00070472DE9F047002416460F468046A1466C
:100F000046F82490002505EB4500011957F8250007
:100F100058F82110FFF7A4F956F82410FFF748F904
:100F20006D1C46F82400032DEDDB641C032CE7DB6D
:100F3000BDE8F0872DE9FF4104462C488846065D50
:100F4000103030F81450801D50F82670304601F0F3
:100F5000AFF826482946C01C025D3046FFF72EFD3B
:100F6000294602223846FFF7A4FF294600223846C8
:100F7000FFF78FFF294601223846FFF792FFB8F1AD
:100F8000010F2FD100250095019502954FF40041E6
:100F900001232A4628460395FFF732FE134FBF1D53
:100FA000385D00908DF804500295ECB102208DF868
:100FB0000C006846FFF71CFF3146385DFFF7E8FC80
:100FC000385D0121FFF722FF385D0121083040B272
:100FD00000F01F02914040094FF0E02202EB800038
:100FE000C0F80011BDE8FF810320E0E742380000AF
:100FF000FEE700002DE9FE438846044600254FF435
:1010000080410F04194E2846BC4202D14FF4824160
:1010100003E0B44201D14FF4844101232A46FFF793
:10102000EFFDBC4202D106220C2103E0B44204D100
:10103000062230210020FFF7C1FC0120ADF804009A
:10104000ADF80850CDF80080ADF80650ADF80A5064
:101050006946204600F0F1FF0121204601F01DF80D
:101060000121204601F003F8BDE8FE8300000440A2
:1010700070B54FF07F551A4CFFF764FD2068294684
:1010800020F00040FFF75AFA0FD36068294620F09D
:101090000040FFF753FA08D304F1180011498068A3
:1010A00020F00040FFF74AFA18D2A0680146FFF787
:1010B000D7F8054660680146FFF7D2F80646206873
:1010C0000146FFF7CDF83146FFF772F82946FFF7E2
:1010D0006FF8B0F1814F01DD012070BD002070BDBF
:1010E0003407002000004844FEE7704770B500F068
:1010F000BDFA00214FF4C02001230A46FFF780FD0E
:101100000F4C01227D212046FFF7C3FE0D4D00222A
:10111000FF212846FFF7BDFE0122FF212846FFF7E9
:10112000C8FE0122FF212846FFF7BBFE1021204602
:10113000FFF7ADFE2046BDE870404021FFF7D2BE6C
:1011400000200B4000400B40F8B500248DF8004013
:101150001CA000F0CDFF8021122000F0D7FB78B159
:101160000B220121684600F099FA58B19DF8001051
:101170001EA000F0BDFF9DF80000212806D01FE052
:101180001FA000E024A000F0B3FF19E0264DAE1E22
:1011900009E005EB4400417815F8140000F0B6FBB7
:1011A00048B1641CA4B230788442F2D31FA000F08E
:1011B0009FFF0120F8BD15F8141025A000F098FF3E
:1011C0000020F8BD6F763737323520526567697376
:1011D00074657220436F6E66696720537461727420
:1011E0002E2E2E2E2E2E0D0A0000000053656E733B
:1011F0006F7220494420697320307825780D0A00E9
:10120000736363622077726974652064617461201E
:101210006572726F720D0A007265616420696420E4
:101220006661696C640D0A00460000206F763737EE
:10123000323520526567697374657220436F6E663C
:10124000696720537563636573730D0A00000000BE
:1012500077726974652072656720257820666169F8
:101260006C640D0A0000000010B5032406E0FFF7CF
:101270006BFF012806D006A000F03AFF641E601C38
:10128000F5D110BD08A000F033FF012010BD000013
:10129000496E6974206F7637373235206572726F08
:1012A000722E0D0A00000000496E6974206F7637B7
:1012B00037323520737563636573732E0D0A000032
:1012C0007FB500244FF400362246012311463046F4
:1012D000FFF796FC164D002280212846FFF7D9FD26
:1012E000012280212846FFF7DCFD002280212846CC
:1012F000FFF7DFFD0F4BB5101D604FF44041012398
:1013000022463046FFF77CFC0720009002208DF833
:101310000C008DF8044002946846FFF769FD012136
:101320000720FFF735FB01210720FFF76FFD7FBD89
:1013300000200B4000E100E0062801D2074A00E04F
:10134000074A01D3A0F1060000EB8000136801FA00
:1013500000F143EA010313607047000028010940CF
:101360002C0109400A4A00EB400002EBC000D1E921
:1013700004231A438B691A4302600A6842604A6870
:101380008260CA68098942EA014101617047000030
:101390000000094030B50024224687B01020012308
:1013A0001146FFF72DFC124D0121284600F069FE81
:1013B00010486946CDE900504FF448600690681522
:1013C0000590212002900120CDE903040720FFF7BA
:1013D000C9FF01220921072000F03AF80121072066
:1013E00000F00AF80121072000F04AF807B030BDEC
:1013F0000000044010070020084A00EB400002EB08
:10140000C00000F07042C0F3130002EB401000F186
:10141000007001B101210160704700000000094027
:10142000062801D2084A00E0084A01D3A0F10600CC
:1014300000EB8000126801FA00F10A4201D001209D
:101440007047002070470000200109402401094036
:10145000062801D2084B00E0084B01D3A0F106009A
:10146000002A00EB80001A6801FA00F101D00A435B
:1014700000E08A431A607047300109403401094096
:10148000084A00EB400002EBC00000F07042C0F3DD
:10149000130002EB401000F1007001B10121416026
:1014A00070470000000009400F4A0E4801211160FA
:1014B0000E4903E0D1F80821272A03D0401EF9D1B4
:1014C00001207047D1F82402D1F82432C043C1F87A
:1014D0002402D1F824228242F9D1C1F8243200201A
:1014E00070470000005125020083084000A006401C
:1014F00006480121C0F80411D0F804110029FBD1DD
:10150000D0F800110029FBD17047000000A0064070
:1015100070B50C490C680B4D48352B6801220A60E8
:1015200000222A60084E326132600C6007490A6866
:1015300042F004020A6010B130BF2B6070BD20BFC2
:10154000FBE70000180610438C20D44210ED00E0A9
:10155000704700002DE9FF4F044681B00846FEF7B2
:10156000BEFF00223E4BFEF723FF3E4A3E4BFEF7F6
:10157000ADFEFEF7C7FFFEF7B2FF0F46054602F0CD
:10158000DBF8FEF7BFFF06462846394601F080FD2E
:10159000FEF7B8FF054601464FF07E50FEF75AFEB3
:1015A00000900399FEF75CFE07460399FEF758FE8C
:1015B0002946FEF7FDFD206030460E99FEF750FEED
:1015C0008146C84638460499FEF74AFE824641469F
:1015D000FEF7EEFD606030460499FEF741FE80465E
:1015E00038460E99FEF73CFE83464146FEF732FE32
:1015F000A06049465046FEF72DFEE0600499009831
:10160000FEF72EFE07460499FEF72AFE2946FEF74E
:10161000CFFD206130460399FEF722FE064638468C
:101620000E99FEF71DFE07463146FEF7C1FD6061CB
:1016300041465846FEF7BCFDA06131463846FEF7EC
:1016400009FEE0610E990098FEF70AFE0E99FEF77A
:1016500007FE2946FEF7ACFD206205B0BDE8F08F1D
:10166000008066404AD8124DFB21094010B5002188
:101670004FF4002001230A46FFF7C2FA064C01226C
:1016800030212046FFF705FC20460122BDE810402E
:101690003021FFF706BC000000600B4070B5164615
:1016A0000C46054600F0B6F800281AD0422000F09B
:1016B00083F800F0F9F888B1304600F07DF800F0CA
:1016C000F3F800F0D3F800F0A5F8002809D0432083
:1016D00000F072F800F0E8F81A4E20BB00F0C6F8EF
:1016E000002070BD00F030F82870012C4FF0100180
:1016F00030461ED0FFF7CBFB00F027F92021304603
:10170000FFF7C5FB00F021F910213046FFF7EAFB97
:1017100000F01BF910213046FFF7B9FB00F015F976
:101720006D1C641EA4B2002CDCD100F09FF80120D7
:1017300070BDFFF7ACFB00F008F920213046FFF741
:10174000D1FBDFE700600B4070B51A4E082500247E
:1017500020213046FFF7C6FB002220213046FFF74C
:1017600098FB00F0F2F814E06006040E10213046F9
:10177000FFF78DFB00F0E9F810213046FFF7B2FBD0
:1017800000F0E3F820213046FFF7A7FB08B144F052
:1017900001042800A5F10105EDB2E5D11021304684
:1017A000FFF775FB012220213046FFF772FB204630
:1017B00070BD000000600B4070B505460824144E53
:1017C00017E0FFF764FB00F0C0F828064FF0200197
:1017D000304602D5FFF786FB01E0FFF758FB6806AD
:1017E000050E00F0B2F810213046FFF77BFB00F049
:1017F000ACF82000A4F10104E4B24FF0100130462F
:10180000DFD1FFF744FBBDE8704000F09EB8000058
:1018100000600B4010B5144C20212046FFF762FBFE
:1018200000F093F810212046FFF75CFB00F08DF8E4
:1018300020212046FFF751FB00280BD02021204615
:10184000FFF725FB00F081F820212046FFF745FB3C
:1018500008B1002010BD10212046FFF718FB00F052
:1018600074F8012010BD000000600B4010B50D4C55
:1018700010212046FFF70BFB00F067F820212046DF
:10188000FFF705FB00F061F810212046FFF72AFB67
:1018900000F05BF820212046FFF724FBBDE8104054
:1018A00000F053B800600B4070B5174D102128466A
:1018B000FFF7EDFA00F049F820212846FFF712FB68
:1018C00000F043F8002220212846FFF7E2FA00F05A
:1018D0003CF810212846FFF705FB00F036F82021E0
:1018E0002846FFF7FAFA08B1002400E0012410218D
:1018F0002846FFF7CCFA00F028F8012220212846DC
:10190000FFF7C7FA204670BD00600B4070B50D466A
:101910000446FFF77FFF002812D04220FFF74CFF5C
:10192000FFF7C2FF68B1E0B2FFF746FFFFF7BCFF69
:101930002846FFF741FFFFF7B7FFFFF797FF0120AA
:1019400070BDFFF793FF002070BD4FF4C870401EBC
:101950000004000CFBD1704710B56FF010014FF080
:10196000402000F0E6FABDE81040FF2000F064BA25
:1019700070B505464FF6FF7401E0641EA4B2FF2067
:1019800000F05AFAA84202D0002CF6D102E00CB1C5
:10199000002070BDFF2070BD2DE9F8437F2000F0CE
:1019A00073FA0024FF2000F047FA641C0A2CF9DBCC
:1019B0004E4E142400219522084600F022F90546D7
:1019C000012805D02000A4F10104A4B2F2D17EE0E8
:1019D00087224FF4D571082000F013F94FF6FE78F6
:1019E000012820D001220021372000F00AF901222D
:1019F0000021292000F005F9012850D8022030707C
:101A0000444601220021372000F0FBF8012200218A
:101A1000292000F0F6F8050050D02000A4F10104C0
:101A2000A4B2EED14AE000246F46FF2000F004FA91
:101A30003855641C042CF8DB9DF80200012846D1BF
:101A40009DF80300AA2842D144464FF08048012265
:101A50000021372000F0D5F801224146292000F06E
:101A6000D0F8050004D02000A4F10104A4B2EED106
:101A70006CB3012200213A2000F0C3F838BB0024E7
:101A8000FF2000F0D9F93855641C042CF8DB9DF8D0
:101A90000000400601D5062018E0042016E00120D1
:101AA0003070444601220021104600F0AAF80500DB
:101AB00004D02000A4F10104A4B2F3D12CB101227E
:101AC0005102102000F09DF808B100203070FFF79F
:101AD00043FF032000F0D8F9307810B10020BDE8B2
:101AE000F8830DB12846FAE7AA20F8E73E00002067
:101AF0002DE9F0410646184815460078062800D022
:101B000049024FF40077012D4FF0010219D0122045
:101B100000F077F83946304600F020F86D1E044694
:101B200006F5007615F0FF0501D0012CF2D0012258
:101B300000210C2000F065F8FFF70EFF2046BDE8FD
:101B4000F081112000F05DF80400F5D139463046EF
:101B500000F004F80446EFE73E00002070B50446AC
:101B60000D46FE20FFF704FF28B1002070BD00F0F5
:101B700063F904F8010B2800A5F10105ADB24FF09F
:101B8000FF00F4D100F058F9FF2000F055F90120D2
:101B900070BD00F017B910B510214FF0402000F0D3
:101BA000C8F900F0ADF808B1012010BDFFF7D4FE70
:101BB000002010BD70B50C46054600F0A1F80028C5
:101BC0001CD0204600F038F9FD2C18D000244FF42A
:101BD0000076285D00F030F9641CA4B2B442F8D35A
:101BE000FF2000F029F9FF2000F026F9FF2000F087
:101BF00023F900F01F00052801D0002070BD01204E
:101C000070BD70B516460C460546FFF7A5FEFFF7FA
:101C1000C2FFB8B145F0400000F00EF9200E00F010
:101C20000BF9C4F3074000F007F9C4F3072000F0F4
:101C300003F9E0B200F000F9304600F0FDF80C2D99
:101C400002D004E0FF2070BDFF2000F0F5F81F2453
:101C5000FF2000F0F1F80106F5D52100A4F1010400
:101C6000E4B2F5D170BD000070B505244FF4FA75EB
:101C700005E00CA000F03CFA284601F05FFA641E73
:101C8000002C04DDFFF788FE0028F2D100E024B12B
:101C90000CA000F02DFA012070BD12A000F028FA6F
:101CA000002070BD53442043617264204572726FFE
:101CB0007221506C6561736520636865636B210DEB
:101CC0000A000000496E6974205344204361726425
:101CD000207375636365737366756C6C79210D0A87
:101CE000000000006661696C656420746F20696E95
:101CF00069742053442043617264202E0D0A000051
:101D000070B500246FF07F4504E0FF2000F094F8E8
:101D1000FF2804D0641CAC42F7D3002070BD012022
:101D200070BD000070B506461D4815460C4600788B
:101D3000062800D04C02012D13D0012809D0012221
:101D400000213720FFF75DFF012229461720FFF70A
:101D500058FF012221461920FFF753FF04000AD043
:101D60001AE0012221461820FFF74BFF040013D18F
:101D7000FE2130460DE0FC213046FFF71BFF6D1EB3
:101D800006F5007615F0FF0501D00128F3D0FD21FE
:101D90000020FFF70FFF0446FFF7DEFD204670BD71
:101DA0003E00002070B50446C1B24FF08045284681
:101DB00000F071F94021284600F03AF90028F9D0E6
:101DC000204670BD10B500244FF4002010210123DF
:101DD0002246FEF715FF00224FF400711448FFF76A
:101DE00068F805224FF4F0510320FEF7E7FD114893
:101DF0004FF48041C0E900140821C0E902140461D5
:101E000044618461C46104210462C0E9094101465E
:101E10004FF04024204600F058F80121204600F001
:101E20007CF82046BDE81040012100F03DB80000DC
:101E300000600B40E406002070B50646C8244FF051
:101E4000402503E0641E14F0FF041AD00121284647
:101E500000F034F80028F5D03146284600F067F845
:101E6000C82403E0641E14F0FF040AD004212846AD
:101E700000F024F80028F5D0284600F04BF8C0B256
:101E800070BD002070BD000010B506494FF0402421
:101E90008862204600F019F82046BDE81040012174
:101EA00000F002B8E40600200029016802D041F0E9
:101EB000010101E021F001010160704702460020AC
:101EC00052690A4200D00120704730B5D1E905437C
:101ED000E4B14FF40072DA4022438C680B6823436C
:101EE000D1E903452C432343CC6923431343436087
:101EF0004B6A4A681A430B6A42EA03128261896A92
:101F00004FF0FF3202EB5101C16030BD4FF48072DF
:101F10009A40E2E7006980B270470029016802D068
:101F200041F0080101E021F0080101607047016102
:101F300070471131016802D041F0100101E021F039
:101F400010010160704770474FF0E02104280869D4
:101F500003D020F004000861704740F00400FAE765
:101F600010B56FF00400FFF7EFFF42F2283000F0E9
:101F700021F8BDE81040012000F010B84FF0E0213A
:101F800030B10128086906D020F0010008617047CF
:101F900000208861704740F00100F7E74FF0E02132
:101FA0000028086902D040F0020001E020F00200A1
:101FB000086170474FF0E0214861704700F02EB88B
:101FC00013480121C0F80013124AC2F8A810D2F831
:101FD0000831002BFBD0002313624FF010638361A4
:101FE000C2F8A410D2F80431002BFBD00A4A1368BF
:101FF00023F00703DB1C13600162426822F0030236
:10200000521C4260426BB1EB927FFBD170470000E3
:1020100000800840000010430002084003480168A7
:10202000002902D00168491E01607047400000206D
:102030008069084000D00120704770B505460C4605
:10204000C88889882A690843218922F01F02114320
:1020500008432861686A618920F0030008436862C8
:10206000FEF7C6FD2168B0FBF1F0A86370BD002942
:10207000C16802D041F4007101E021F40071C16037
:1020800070470029416A02D041F0200101E021F0AF
:10209000200141627047016070470029C16802D089
:1020A00041F4807101E021F48071C1607047FEE766
:1020B0001CB500220092012301920DF800309DF81A
:1020C0000010104661F310409DF8011061F351407B
:1020D0009DF8021061F392409DF8031061F3D34024
:1020E0009DF8041061F314509903FEF789FD1CBD9F
:1020F0000FB4054B10B503A9044A029800F0F6FB93
:1021000010BC5DF814FB00003D340000EC00002022
:10211000490050EAC12018BF04204A0D18BF40F002
:10212000010040F2FF72B2EB515F08BF40F00200C5
:10213000012808BF052070472DE9F74F144696B0D7
:102140000021C4E902111799089121F00045CA49FC
:102150008D4206DC1799C4E9000119B00020BDE8E2
:10216000F08FC649DFF818A3A9423CDD0899C54E97
:102170000029C54FC54A1799534619DDFEF765FB7F
:10218000554506D0C24AC34BFEF75FFBC4E90001C8
:102190000AE04FF0D352BF4BFEF757FB32463B46A7
:1021A000FEF753FBC4E9000119B00120BDE8F08F30
:1021B000FEF7AAFA554506D0B54AB64BFEF7A4FA83
:1021C000C4E900010AE04FF0D352B24BFEF79CFA8B
:1021D00032463B46FEF798FAC4E9000119B04FF0C9
:1021E000FF30BDE8F08FAC49A942179978DB21F0A8
:1021F00000488346A94AAA4B4146FEF767F80022E9
:10220000A84BFEF781FAFEF7A3FB0990FEF756F9FB
:1022100006460F469D4A5346FEF758F85A4643462F
:10222000FEF716FB80468A46994A9A4B3046394655
:10223000FEF74CF82A0D01250B9242465346FEF755
:1022400007FB032DC4E9000139D00B98C1F30A51F3
:10225000401A05EB45111139814230DA9248C346E4
:10226000784400EB0510CDF81CA00C90D0E90023B9
:1022700030463946FEF72AF8CDE9020102460B4600
:1022800058460799FEF7E1FA80468A4602460B4611
:1022900058460799FEF7D9FADDE90223FEF7D5FA89
:1022A00083460C9803913946D0E902233046FEF765
:1022B0000DF85A46039BFEF7C8FA6D1CBDE7089857
:1022C0000028A2BF099819B0BDE8F08F616881F0BD
:1022D00000416160099819B04042BDE8F08FFFE706
:1022E000C1F3130141F480110E911799C1F30A5102
:1022F000A1F2F532511102F01F08C8F1200212922A
:1023000000220C920D92694A7A4402EB810101F19C
:10231000140C0DA95FF00607DCF80020DCF804506F
:1023200002FA08F3129AD1F800A025FA02F21A4331
:102330000E9BA2FB0356A2FB00329A4415449A4519
:1023400034BF4FF0010B4FF0000B51F8043C05EB8C
:102350000B0E7344954234BF012200221644BBF198
:10236000000F02D0AB4202D903E0AB4201D20122FE
:1023700000E000223244C1F800A041E90223091F15
:10238000ACF1040C7F1EC7D10898DDE90A6500F1A5
:102390000050800F11900898099F8000FEF78EF87A
:1023A00080468A463846FEF7C6FA6FF01D02FEF7F1
:1023B0006EF8074630460591FEF7BDFA6FF03D0214
:1023C000FEF765F8CDE903102846FEF7B4FA6FF082
:1023D0005D02FEF75CF8064602460B460191DDE918
:1023E0000310FEF791F93A46059BFEF78DF9424638
:1023F0005346FEF789F900200D4683464246534670
:10240000FEF723FA3A46059BFEF71FFADDE9033291
:10241000FEF71BFA3246019BFEF71AFADFF89480AA
:10242000234A4346FDF752FF06460F46224A234BF6
:1024300058462946FDF74AFF32463B46FEF764F907
:102440000F4606464FF0A842434658462946FDF738
:102450003DFF32463B46FEF757F9179A12F0004F00
:1024600004D0119A81F0004152421192C4E9000156
:10247000119819B0BDE8F08FFB21E93F7CD90240EB
:10248000FB21F93F7370032E8A19A33B00004054CF
:102490003163621A61B4D03DFB21394183C8C96DF3
:1024A000305FE43F0000E03F5C160000E4150000F0
:1024B000182D4454FB21F93D3326A611460B113C3F
:1024C0002DE9FF4D21F0004807460C46B8F1795F31
:1024D00008DAFEF73DFA002801BF0020324904B0B7
:1024E000BDE8F08D3A46234610461946FDF7EEFE4C
:1024F000054602462D480E460B460621784400F05C
:102500005DF82A463346FDF7E1FEDDE90223824607
:102510008B4638462146FDF7D9FE04460F46524603
:102520005B4628463146FDF7D1FE22463B46FEF784
:102530008CF907468A464FF0FF3228463146FDF7B0
:10254000A6FF1B4A90450ADA3A465346FEF77DF944
:1025500004B00022BDE8F04D134BFEF779B9154ADF
:102560004245A8BFA8F500154FF00004B8BF124DB2
:1025700022462B46FEF769F90646884622462B4638
:1025800000200949FEF761F904460D463A465346D4
:1025900030464146FEF759F904B022462B46BDE8C5
:1025A000F04DFEF755B900000000F03F9013000019
:1025B0003333D33F0000E93F0000D23F2DE9F04123
:1025C0004F1E00EBC7010446D1E9000115461E4627
:1025D00037F006020DD02A463346FDF777FE7F1E00
:1025E00004EBC703D3E90023FEF78EF837F00602A9
:1025F000F1D1022F25D0042F13D0062F18BFBDE82C
:10260000F0812A463346FDF761FED4E90A23FEF73E
:102610007BF82A463346FDF759FED4E90823FEF736
:1026200073F82A463346FDF751FED4E90623FEF738
:102630006BF82A463346FDF749FED4E90423FEF73A
:1026400063F82A463346FDF741FED4E90223FEF73C
:102650005BF82A463346FDF739FED4E90023BDE88E
:10266000F041FEF751B800002DE9FF4D054621F07D
:10267000004084B00C46B0F1795F0BDA2846FFF7D2
:1026800047FD042808BF00F065F8284608B0214639
:10269000BDE8F08D2A460B461046FDF717FE0646AC
:1026A0000F462A462346FDF711FE804626488A46F5
:1026B00032463B4605217844FFF780FF8346109859
:1026C000029160B3214A224B40465146FDF7FEFD80
:1026D000CDE900015A4640465146029BFDF7F6FD02
:1026E00082468846DDE906014FF0FF32FDF7CFFE56
:1026F00052464346FEF7A9F832463B46FDF7E6FD53
:10270000DDE90623FEF7A1F8DDE90023FEF79DF8D9
:1027100008B02A462346BDE8F04DFEF799B80B46AF
:102720005A4630463946FDF7D1FD084A084BFDF7B9
:10273000EBFF42465346FDF7C9FD08B02A46234643
:10274000BDE8F04DFDF7E0BFCE12000049555555EC
:102750005555C5BF024A00201107FDF798BE00007D
:1027600001FDFFFF02E008C8121F08C1002AFAD1CC
:1027700070477047002001E001C1121F002AFBD101
:10278000704700000149086070470000F000002019
:102790002DE9FF5FDDE90220010DDDF838B00243CD
:1027A00010D10F9801244CA2012808D000210098D4
:1027B0000F9BC0E90021C0E90243BDE8FF9F6FEA1B
:1027C0000B01F4E7A1F2FF3144F6105041430D1420
:1027D0000F9801280ED0A5EB0B00401C4FF0000411
:1027E0003E4EDFF8FC90B0F1000AA04605DACAF1CF
:1027F000000717E0CBF10000F0E7074612E0F8070A
:1028000007D02246334640464946FDF75FFD8046E5
:1028100089462246334610461946FDF757FD0446C1
:102820000E467F10002FEAD1DDE90201BAF1000F58
:1028300042464B4602DAFDF749FD01E0FDF7B8FDDF
:1028400004460E460022274BFEF71EF803D84FF031
:10285000FF30014607E00022234B20463146FDF7BA
:1028600053FFFDF7F8FF102409E0002C0ADB0A22D1
:102870000023FDF783FE019B30321A55641E50EA97
:102880000102F2D1641C019AC4F1110314440F9A9D
:10289000012A09D00122084301D15B450FDD4FF029
:1028A000000205F101050DE0084303D1A3EB0B0580
:1028B0006D1E09E000204FF0110B0F9088E701DA40
:1028C00000226D1E002A83D000980F99C0E90231C2
:1028D000C0E9004571E7000030000000000024401E
:1028E0000000F03F0000F0430000E03F2DE9FF4F03
:1028F00095B09B4689460646002512E2252878D1E8
:102900000024761CF94A2746012105943378203BA0
:1029100001FA03F0104202D00443761CF6E7307847
:102920002A2811D06FF02F033078A0F13002092A45
:1029300016D8059A44F0020402EB820203EB42022D
:102940001044761C0590EFE759F8042B0592002AF5
:1029500003DA504244F40054059044F00204761C1B
:1029600030782E2816D116F8010F44F004042A28D6
:102970000DD06FF02F023078A0F13003092B09D869
:1029800007EB870302EB4303C718761CF3E759F8FC
:10299000047B761C30786C280FD006DC4C2817D0CE
:1029A00068280DD06A2814D104E0742810D07A2841
:1029B0000FD10DE044F400140AE044F4801401E067
:1029C00044F440147278824202D1761C04F58014DB
:1029D000761C307866280BD013DC582877D009DCB9
:1029E000002875D04528F6D04628F4D047281AD1BB
:1029F0009FE118E0632835D0642879D0652812D18A
:102A000097E1702873D008DC6728F1D069286FD06F
:102A10006E280DD06F2806D1B5E073282CD075280C
:102A200075D0782874D05A46179990476D1C76E176
:102A3000C4F30250022809D003280DD0D9F80010A1
:102A400004280DD00D6009F1040968E1D9F80010DF
:102A5000EA17C1E90052F6E7D9F800100D80F2E755
:102A60000D70F0E719F8041B8DF8001000208DF8A8
:102A70000100EA46012003E059F804AB4FF0FF30B3
:102A800061074FF0000102D40DE008F10101884612
:102A9000B9420FDA8045F8DB1AF808100029F4D1A2
:102AA00008E008F1010188468142FADB1AF80810B3
:102AB0000029F6D105985B46A0EB08072146384669
:102AC000179A00F09EFA284400EB080507E04DE055
:102AD0002BE10DE01AF8010B5A4617999047B8F10F
:102AE0000108F7D25B4621463846179A14E142E0C6
:102AF0000A220092C4F302524FF0000A022A08D0C0
:102B000059F804CB032A4FEAEC710AD00DE029E012
:102B10002AE009F1070121F00702F2E802C191461B
:102B200009E00FFA8CFC4FEAEC71042A03D14FFA4A
:102B30008CFC4FEAEC71002907DA0A460021DCF12F
:102B4000000C61EB02012D2202E0220504D52B22AC
:102B50008DF80420012203E0E20701D02022F7E7EC
:102B6000904653E00A2102E010220DE010214FF0C0
:102B7000000A00910BE010224FF0000A44F0040418
:102B80000827009203E008224FF0000A0092C4F3E5
:102B90000252022A05D059F804CB0021032A08D09A
:102BA00009E009F1070121F00702F2E802C19146AC
:102BB00005E01FFA8CFC042A01D10CF0FF0C4FF049
:102BC0000008220722D5702827D0009B83F010032D
:102BD00053EA0A0309D15CEA010206D030228DF8DB
:102BE00004208DF8050002229046009B83F0080324
:102BF00053EA0A030AD15CEA010201D1620705D552
:102C000030228DF804204FF001087F1E582809D08B
:102C100037A003900EA8029013E040228DF8042004
:102C20000122E1E737A0F4E753466046009AFDF73A
:102C3000A5FC84460398825C0298A0F101000290F2
:102C400002705CEA0100EFD1029806A9A1EB000036
:102C500000F1200A600702D524F4803400E0012747
:102C6000574502DDA7EB0A0000E0002000EB0A0157
:102C7000009005984144A0EB01000590E00306D4C4
:102C80005B462146179A059800F0BBF905440027DA
:102C900006E001A85A46C05D179990476D1C7F1C3D
:102CA0004745F6DBE0030CD55B462146179A0598AD
:102CB00000F0A7F9054404E030205A4617999047E0
:102CC0006D1C0099481E00900029F5DC08E0029870
:102CD00002995A460078491C0291179990476D1C39
:102CE000BAF10001AAF1010AF1DC6BE10928010047
:102CF0003031323334353637383961626364656672
:102D00000000000030313233343536373839414233
:102D1000434445460000000000F060F9054406F118
:102D20000106307800287FF4E9AD19B02846BDE8E7
:102D3000F08F620700D4062709F1070222F0070C82
:102D4000FCE80223E14603F000485FEA080C02D0E9
:102D50000FF27C2C0DE05FEA045C02D50FF2742CBC
:102D600007E05FEAC47C02D00FF26C2C01E0AFF206
:102D7000700C4FF0FF3823F00043CDF850C06528A9
:102D80000CD006DC452809D046281DD047283ED166
:102D90003EE0662818D0672839D139E00021112F8C
:102DA00001DB112000E0781CCDE9000106A90EA886
:102DB000FFF7EEFCDDE90F010E9A0391002100926E
:102DC00007F1010A04914EE04FF000400097CDE971
:102DD000011006A90EA8FFF7DBFCDDE90F02039244
:102DE0000E9B11990022DDF80CA00093049219B9F2
:102DF00007F1010100EB010AB7EB0A0004D4C0F1AE
:102E0000FF3007F1010A0490AAEB0700019046E0A9
:102E1000012F00DA01270021112F01DD112000E030
:102E20003846CDE9000106A90EA8FFF7B1FCDDE99F
:102E30000F010E9A0391002104910092BA462107D6
:102E40000CD40399514500DA8A46BAF1010F05DD29
:102E5000009AAAF10101515C302908D0B84202DA87
:102E600010F1040F06DA0121CDE9011017E0AAF1F3
:102E70000101E9E7002805DC049901440491AAEB6B
:102E8000000102E0411C514500DD8A460499A0EB97
:102E9000010000F1010001904FF000400290200776
:102EA00004D40198504501DBCDF8048000208DF852
:102EB0004F0002980DF14F07B0F1004F25D02B20A5
:102EC0000E9002984FF0020800280CDA404202905F
:102ED0002D200E9007E00A210298FDF739FB3031D2
:102EE000029007F8011DB8F10001A8F10108F2DC19
:102EF00002980028EFD1791E0E980870307800F003
:102F0000200040F0450007F8020D12A8A0EB0700D2
:102F100000F107081498007800B1012000EB0A01C5
:102F2000019801EBE07105984144A0EB0100A0F18C
:102F300001000590E00306D45B462146179A0598E8
:102F400000F05FF805441498007820B15A461799AC
:102F5000904705F10105E00323D55B462146179A0A
:102F6000059800F04EF805441BE00498002807DBA4
:102F7000DDE90301884203DD0098405C179901E018
:102F8000179930205A46904704986D1C401C0490B5
:102F90000198401E019004D12E205A46179990475F
:102FA0006D1CBAF10001AAF1010ADEDC05E017F898
:102FB000010B5A46179990476D1CB8F10001A8F112
:102FC0000108F4DC5B462146179A0598A4E6000048
:102FD0002D0000002B000000200000002DE9F04132
:102FE000044600251E461746880405D406E03946E7
:102FF0002020B04705F10105641EF8D52846BDE83C
:10300000F0812DE9F041044600251E469046C80394
:1030100001D5302700E02027880405D506E0414689
:103020003846B04705F10105641EF8D52846BDE8CD
:10303000F081000010B5044600202071401EE062BF
:10304000204600F01DFB08B1032010BDB4F82E028D
:10305000A0F52A41553901D0022010BD94F8660030
:10306000B4F8671040EA01210848B0EB012F08D0FE
:1030700094F88210B4F8832041EA0221B0EB012FCA
:1030800001D1002010BD012010BD000000464154B8
:1030900000B5284B21F0004287B09A42DCBF0022E5
:1030A000134631DD244B9A420DD168B94FF001002F
:1030B000FFF768FB002207B01346104611465DF883
:1030C00004EBFDF775B906DB07B04FF001025DF8C0
:1030D00004EBFDF7DCB902AAFFF72EF810F00301AC
:1030E00004BF0DF1080CBCE80F000DD00120012930
:1030F0000ED0022914D00DF1080C0090BCE80F008E
:10310000FFF7B2FA07B000BDFFF7DAF907B000BD6C
:103110000DF1080C0090BCE80F00FFF7A5FA05E0E0
:103120000DF1080CBCE80F00FFF7CAF907B081F0F9
:10313000004100BDFB21E93F0000F07F10B50446CF
:103140000120FEF71BFF06490C6008680028FCD12F
:10315000801EFEF713FFBDE810400020FEF70EBFF3
:103160004000002010B518B9FEF716FC002800D06A
:10317000012010BD70B514460D4630B9DAB22146B3
:103180002846FEF7B5FC012801D0042070BD0020C0
:1031900070BD002800D00120704770B514460D4660
:1031A00030B9DAB221462846FEF7BCFD012801D02D
:1031B000042070BD002070BD17B581B01446029880
:1031C0000090684600F03CF9002802DA0B2004B0B9
:1031D00010BD0B4B002253F8201001B10A70019969
:1031E000002900D00A7043F8201001D0012C01D032
:1031F0000020ECE7002202A901A800F003F8E6E7AE
:10320000E80000202DE9FF474FF000090746C0F80D
:1032100000901646084600F013F9051E03DA0B204D
:1032200004B0BDE8F087824850F825408CB13C607E
:10323000207820B16078FFF7ACFFC1070BD084F88D
:103240000090E8B26070FFF78DFFC10708D003203F
:10325000E6E70C20E4E70EB1400704D40020DFE7E6
:103260001EB1400701D50A20DAE70025294620468D
:10327000FFF7E0FE012821D100206E4604EB00118B
:1032800001F5F7710A792AB10A7AD1F8091042EAF0
:10329000012100E0002146F82010401C0428EDD355
:1032A000002756F8275025B129462046FFF7C2FED1
:1032B00000E0022040B17F1C042FF2D3032801D08C
:1032C000F0BB01E00120ABE7B4F83B00B0F5007FB4
:1032D0005DD1B4F8461029B994F85400D4F85510CB
:1032E00040EA0121A16194F840C084F803C0BCF118
:1032F000010F02D0BCF1020F49D194F83D600CFBE4
:1033000001FCA670E6B1701E064240D1B4F841201F
:10331000228110073BD1B4F8430028B994F850003B
:10332000D4F8513040EA0320E38F4BB103EB0C0794
:1033300007EB1217B8422AD3C01BB0FBF6F000E02F
:1033400025E020B3012640F6F678404500D302265A
:103350004FF6F678404500D30326801C2F44A76221
:103360002B446061C4E90753032E12D07AB103EBFA
:103370000C026262022E17D000F0010200EB400046
:1033800002EB500000F2FF10B1EB502F0ED20D20D7
:1033900046E7002AFBD194F85C20D4F85D30800029
:1033A00042EA03226262EDE74000EBE74FF0FF30B4
:1033B0002061E06080206071032E30D1B4F860009D
:1033C00001282CD1691C204600F05AF938BB84F83A
:1033D0000590B4F82E02A0F52A4155391FD194F872
:1033E0003000D4F8311040EA01201249884216D149
:1033F00094F81402D4F8151240EA01200E498842CC
:103400000DD194F81802D4F8191240EA0120206175
:1034100094F81C02D4F81D1240EA0120E06004492F
:103420002670091F0888401C0880E08016E700000D
:10343000E80000205252614172724161FEF7B2BC55
:1034400010B503464FF0FF301C68002C13D0214606
:1034500000E0491C0A78212A0ED33A2AF9D114F83F
:10346000012B303A0A2A06D28C4204D1002A02D11A
:10347000491C1046196010BD002010BD86B0FEF733
:103480006FFD4FF4E13421466005FDF7B3FD2146A1
:103490005F48FDF7AFFDFDF77DFFFEF77AFBFEF716
:1034A000E3FB00F02BF9FDF721FEFDF7DDFEFDF754
:1034B00007FF0122574D540221462846FDF7E9FC3B
:1034C000002221462846FDF70FFD00F0F3F852A038
:1034D000FEF70EFEFDF7CCFCFDF75CFF4FF0010B95
:1034E00053A0FEF705FE08210720FDF799FF0128EC
:1034F0000AD154480178552913D053A0FEF7F8FD9E
:1035000008210720FDF718FF6420FFF717FE0221AE
:103510004E48FDF7E2FC0128D9D0BBF1000FE2D103
:10352000D5E7FDF7A5FD4A4C0128A668314630468F
:103530002FD0FCF795FE6568804629462846FCF7A3
:103540008FFED4F800A0074651465046FCF788FE8F
:103550003946FCF72DFE4146FCF72AFEFCF7BFFF7B
:10356000814688463046FCF7BAFF06460F46284695
:10357000FCF7B5FF04460D465046FCF7B0FFCDF80A
:1035800014808DE8F00202460B4632A0FEF7B0FD33
:10359000B6E7FCF765FE6568074629462846FCF74E
:1035A0005FFED4F800A0804651465046FCF758FE16
:1035B0004146FCF7FDFD3946FCF7FAFDFCF78FFFAD
:1035C000804689463046FCF78AFF06460F46284665
:1035D000FCF785FF04460D465046FCF780FF8DE85A
:1035E000F00302460B4620A0FEF782FD0122094DA2
:1035F000540221462846FDF777FC4FF47A70FFF716
:103600009DFD002221462846FDF76EFC78E700006C
:103610000000044000400B40456E74657220536CFE
:10362000656570204D6F64652E2E2E0A0000000027
:10363000456E746572204D61696E5F6C6F6F702EA0
:103640002E2E0A00100700202564000000800B4089
:10365000340700204E6F74212566202566202566DC
:103660002025660A000000004163636964656E748A
:103670002125662025662025662025660A00000093
:1036800070B50446C06A0E460025B0420FD02046F1
:1036900000F0AAF805000AD160780123324604F14F
:1036A0003001FFF767FD08B16E1E0125E66228466E
:1036B00070BD000010B540240020224661020123A5
:1036C000FDF79EFAFDF7F0FE00B1FEE7FDF710FFF3
:1036D00000210120FDF72EFC04210120FDF758F9FF
:1036E0000448047004480460BDE810400120FDF760
:1036F000B1BB000006E400E000E100E0074810B5BF
:10370000416801220648FFF757FD20B105A0FEF7EA
:10371000EFFC002010BD012010BD000000000020C3
:10372000F40000204D6F756E74205344206661696B
:103730006C65642E0D0A000000B5294B21F0004293
:1037400087B09A4203DC00221346009233E0254BF7
:103750009A420DD168B94FF00100FFF713F800222B
:1037600007B01346104611465DF804EBFCF720BE87
:1037700006DB07B04FF001025DF804EBFCF787BEF3
:1037800002AAFEF7D9FC10F003014FF001000DD0A2
:10379000012914D002291AD00DF1080CBCE80F0041
:1037A000FEF78EFE07B081F0004100BD0DF1080C60
:1037B0000090BCE80F00FEF757FF07B000BD0DF109
:1037C000080CBCE80F00FEF77BFE07B000BD0DF152
:1037D000080C0090BCE80F00FEF746FFE2E700008F
:1037E000FB21E93F0000F07F2DE9F041044600791C
:1037F0000027F8B1E66A04F130016078012332460F
:103800008846FFF7CAFC08B1012713E000202071A9
:10381000206AA169301A88420CD2E57808E0A069D4
:1038200001230644607832464146FFF7B6FC6D1E20
:10383000022DF4D23846BDE8F081000003030000F9
:1038400000000204040100000F01020080000001DA
:10385000000400800200040000000B4000200B4028
:1038600000400B4000600B4000800B400000004017
:1038700000000400060000000800060000100040E0
:103880000200000206000200000406000000000022
:103890004C5555555555A53F7751C1166CC156BF6E
:1038A0009015CB19A001FA3EAD529C804F7E92BE7E
:1038B000C4B1B4BD9EEE213ED43888BEE9FAA8BD9D
:1038C00000004054FB21F93F3163621A61B4D03DDE
:1038D0000000601A61B4D03D7370032E8A19A33BB7
:1038E0000000002E8A19A33BC14920259A837B3909
:1038F00000000000000000006E83F9A22915444E6C
:10390000D15727FCC0DD34F5999562DB4190433CEB
:10391000AB6351FE61C5BBDE3A6E24B7E0D24D42C7
:10392000EA2E49061C92D1091CEB1DFE3EA729B1C7
:10393000F53582E88444BB2E26709CE9417E5FB455
:1039400039D69139F43953838B5F849C3B28F9BD78
:10395000FF97F81F0F9805DE8B112FEF1F6D0A5A86
:10396000CF7E366DB709CB27663F464F2DEA5F9E67
:10397000C7BA27757BF1E5EBF739073DEA92528A22
:10398000B15FFB6B085D8D1FA6F810111111813F0F
:10399000D561C119A0012ABF7DFEB157E31DC73E05
:1039A000EB9C2B8AE6E55ABE7CD5CF5A3AD9E53D49
:1039B00000000000D439000000000020F4000000E6
:1039C00064270000C83A0000F400002074080000DA
:1039D0007427000000000000B0390000424D0000D4
:1039E0000000000000003600000028000000000079
:1039F00000000000000001001800000000000000AE
:103A000000000000000000000000000000000000B6
:103A100000000000000000004E0011001246173F99
:103A2000185019031A78320029502C782A00427F46
:103A30004D0963E064FF65206600670013F00D81A7
:103A40000FC5142122FF23012434253C26A12B007D
:103A50006BAA13FF695D900A910192019301945F33
:103A600095539611971A983D995A9A1E9B009C253A
:103A7000A765A8659E81A6067E0C7F16802A814ECA
:103A80008261836F847B8586868E879788A489AFC1
:103A90008AC58BD78CE88D20A980AA80ACFF330023
:103AA000229923034A00491347084B144C17460533
:103AB0000C503D030EF50000000000000000000067
:083AC0000000000000000000FE
:0400000500000155A1
:00000001FF
