:020000040000FA
:10000000A80400205501000057040000D703000099
:1000100055040000B90200001511000000000000A6
:10002000000000000000000000000000E70D0000DC
:10003000AD0300000000000069060000850E00000E
:100040006F0100006F0100006F0100006F010000F0
:10005000E10700006F0100006F0100006F01000068
:100060006F0100006F0100006F0100006F010000D0
:100070006F0100006F0100006F0100006F010000C0
:100080006F0100006F0100006F0100006F010000B0
:100090006F0100006F0100006F0100006F010000A0
:1000A0006F0100006F010000000000006F01000000
:1000B0006F0100006F0100006F0100006F01000080
:1000C0006F0100006F0100006F0100006F01000070
:1000D0006F010000000000000000000000000000B0
:1000E000000000006F0100006F0100006F010000C0
:1000F0006F0100006F0100006F0100006F01000040
:100100006F0100006F0100006F0100006F0100002F
:100110006F0100006F010000000000006F0100008F
:100120006F0100006F0100006F0100006F0100000F
:100130006F0100006F0100006F010000000000006F
:1001400000000000000000000000000000000000AF
:100150006F0100000648804706480047FEE7FEE7BB
:10016000FEE7FEE7FEE7FEE7FEE7FEE7FEE7FEE767
:10017000890E000079010000DFF80CD000F038F89B
:100180000048004795230000A80400202DE9F05FF7
:100190000546002092469B468846064681464024F6
:1001A0001BE0284641464746224600F042F85346A7
:1001B0005A46C01A914110D311461846224600F003
:1001C00029F82D1A67EB01084F462246012000212D
:1001D00000F020F817EB00094E41201EA4F10104A5
:1001E000DFDC484631462A464346BDE8F09F000022
:1001F000064C074D06E0E06840F0010394E8070074
:1002000098471034AC42F6D3FFF7BAFF2829000014
:1002100048290000202A04DB203A00FA02F10020DD
:1002200070479140C2F1200320FA03F31943904034
:100230007047202A04DB203A21FA02F0002170479F
:1002400021FA02F3D040C2F120029140084319463E
:10025000704700002DE9F0479146164A4FF0FF0A1B
:1002600002EBC005002200240AFA02F023460842ED
:1002700019D04FF0010C00200CFA02FC4FF00F08CF
:1002800021FA00F616EA0C0F06D0860008FA06F7E7
:100290003C4309FA06F73B43401C0828F0D3286882
:1002A000A043184328602D1D0832082ADBDDBDE875
:1002B000F087000020200240FEE700000349896823
:1002C000014201D0012070470020704700800840A3
:1002D00070B5124E0446706B850F00F023F8206055
:1002E000012D05D00E48022D02D0032D00D0002094
:1002F0006060316AC840A0603168C1F3015120FAE2
:1003000001F1E160B16AC1F30241072902D0C8409E
:10031000206170BD0621B0FBF1F0F9E700800840D4
:1003200000127A000C49D1F8A400002813D0086A02
:100330000A48D1F8FC1301290DD0094A9169C1F38B
:10034000C55101B940219269C2F3415301229A403B
:10035000B0FBF2F0484370470000104300127A00EF
:100360000080084000B585B06846FFF7B1FF0398EC
:1003700005B000BDF0B5074F7C6AFD6A3E6B844353
:100380008D43964313B104430D4316437C62FD62D3
:100390003E63F0BD00800840884205D9C1F1FF01ED
:1003A000814201D30020704701207047704742B15D
:1003B000012A09D082688A438260C2688A43C26087
:1003C000704782680A43F7E7C2680A43C2608268DE
:1003D0008A4382607047FEE72DE9FE438846044663
:1003E00000254FF480410F04194E2846BC4202D12B
:1003F0004FF4824103E0B44201D14FF48441012320
:100400002A46FFF7B7FFBC4202D106220C2103E0C7
:10041000B44204D1062230210020FFF71BFF012047
:10042000ADF80400ADF80850CDF80080ADF80650E6
:10043000ADF80A506946204600F02FFE0121204603
:1004400000F05EFE0121204600F044FEBDE8FE8380
:1004500000000440FEE77047062801D2074A00E08A
:10046000074A01D3A0F1060000EB8000136801FAEF
:1004700000F143EA010313607047000028010940BE
:100480002C0109400A4A00EB400002EBC000D1E910
:1004900004231A438B691A4302600A6842604A685F
:1004A0008260CA68098942EA01410161704700001F
:1004B0000000094030B50024224687B010200123F7
:1004C0001146FFF757FF01218D07284600F00CFE6B
:1004D0000F486946CDE900504FF448600690681512
:1004E0000590212002900120CDE903040220FFF7AE
:1004F000C9FF01220921022000F038F80121022061
:1005000000F008F80121022000F048F807B030BDE3
:1005100024000020084A00EB400002EBC00000F07D
:100520007042C0F3130002EB401000F1007001B103
:10053000012101607047000000000940062801D237
:10054000084A00E0084A01D3A0F1060000EB800051
:10055000126801FA00F10A4201D001207047002020
:10056000704700002001094024010940062801D2FB
:10057000084B00E0084B01D3A0F10600002A00EB75
:1005800080001A6801FA00F101D00A4300E08A43B2
:100590001A6070473001094034010940084A00EBF5
:1005A000400002EBC00000F07042C0F3130002EB09
:1005B000401000F1007001B101214160704700005E
:1005C000000009400F4A0E48012111600E4903E066
:1005D000D1F80821272A03D0401EF9D10120704705
:1005E000D1F82402D1F82432C043C1F82402D1F852
:1005F00024228242F9D1C1F8243200207047000041
:10060000005125020083084000A006400648012151
:10061000C0F80411D0F804110029FBD1D0F8001162
:100620000029FBD17047000000A006400448016883
:1006300001220260034AD2F80021016090B27047A3
:100640001806104300A00640024901EB8000D0F8D4
:100650000002704700A00640024A02EB8000C0F88A
:100660000012704700A00640704700000149086072
:10067000704700001001D442014908607047000033
:100680000401D44201490860704700000001D442CF
:1006900070B50020402201230146FFF76BFEFFF7F3
:1006A00091FF00B1FEE7194810210160FFF7BEFF7E
:1006B000012802D116A000F02FFD0020FFF7C4FF93
:1006C0004AF25A55A8421BD019A000F025FD00F0AF
:1006D0005DF81FA000F020FD00F01EFC044601465E
:1006E0000120FFF7B9FF2048001B00F0B5F82946AC
:1006F0000020FFF7B1FFBDE870400120FFF7C2BF47
:10070000BDE8704019A000F007BD000000E100E066
:100710000D0A0A20506F776572204F6E2052657364
:100720006574206F636375727265642E2E2E2E00C1
:100730000D0A0A20525443206E6F7420796574208C
:10074000636F6E666967757265642E2E2E2E0000CB
:100750000D0A2052544320636F6E66696775726597
:10076000642E2E2E2E000000805101000D0A204E16
:100770006F206E65656420746F20636F6E666967B5
:10078000757265205254432E2E2E2E0010B5FFF7A1
:100790003DFF012000F05AF8012000F041F8102040
:1007A000FFF78CFD0028FAD00120FFF765FF01213B
:1007B000084600F029F84FF4706000F053F8BDE8E7
:1007C00010400120FFF752BF014800687047000049
:1007D00000A006400148C068C0B2704700A00640B3
:1007E00010B5FFF7F7FF800706D5054800F034F88D
:1007F00000210120FFF730FF02490120086010BDF1
:100800008051010010000020044A0029116901D024
:10081000014300E0814311617047000000A00640E1
:10082000084A094930B10120C2F80C018868C006A5
:10083000FCD570470020C2F80C018868C006FCD4C3
:10084000704700000000D442008008400149086061
:10085000704700001401D44201494860704700000D
:1008600000A00640034A91684FF2FF03194001437C
:100870009160704700A0064010B56FF010014FF076
:10088000402000F0A6FABDE81040FF2000F024BA96
:1008900070B505464FF6FF7401E0641EA4B2FF2058
:1008A00000F01AFAA84202D0002CF6D102E00CB1F6
:1008B000002070BDFF2070BD2DE9F8437F2000F0BF
:1008C00033FA0024FF2000F007FA641C0A2CF9DB3D
:1008D0004E4E142400219522084600F022F90546C8
:1008E000012805D02000A4F10104A4B2F2D17EE0D9
:1008F00087224FF4D571082000F013F94FF6FE78E7
:10090000012820D001220021372000F00AF901221D
:100910000021292000F005F9012850D8022030706C
:10092000444601220021372000F0FBF8012200217B
:10093000292000F0F6F8050050D02000A4F10104B1
:10094000A4B2EED14AE000246F46FF2000F0C4F9C3
:100950003855641C042CF8DB9DF80200012846D1B0
:100960009DF80300AA2842D144464FF08048012256
:100970000021372000F0D5F801224146292000F05F
:10098000D0F8050004D02000A4F10104A4B2EED1F7
:100990006CB3012200213A2000F0C3F838BB0024D8
:1009A000FF2000F099F93855641C042CF8DB9DF801
:1009B0000000400601D5062018E0042016E00120C2
:1009C0003070444601220021104600F0AAF80500CC
:1009D00004D02000A4F10104A4B2F3D12CB101226F
:1009E0005102102000F09DF808B100203070FFF790
:1009F00043FF032000F098F9307810B10020BDE8E3
:100A0000F8830DB12846FAE7AA20F8E7080000208D
:100A10002DE9F0410646184815460078062800D012
:100A200049024FF40077012D4FF0010219D0122036
:100A300000F077F83946304600F020F86D1E044685
:100A400006F5007615F0FF0501D0012CF2D0012249
:100A500000210C2000F065F8FFF70EFF2046BDE8EE
:100A6000F081112000F05DF80400F5D139463046E0
:100A700000F004F80446EFE70800002070B50546D2
:100A80000C46FE20FFF704FF28B1002070BD00F0E7
:100A900023F905F8010B2000A4F10104A4B24FF0E2
:100AA000FF00F4D100F018F9FF2000F015F9012043
:100AB00070BD00F0D7B810B510214FF0402000F005
:100AC00088F900F060F808B1012010BDFFF7D4FEEE
:100AD000002010BD70B50C46054600F054F8002803
:100AE0001CD0204600F0F8F8FD2C18D000244FF45C
:100AF0000076285D00F0F0F8641CA4B2B442F8D38C
:100B0000FF2000F0E9F8FF2000F0E6F8FF2000F0F9
:100B1000E3F800F01F00052801D0002070BD01207F
:100B200070BD70B516460C460546FFF7A5FEFFF7EB
:100B3000C2FFB8B145F0400000F0CEF8200E00F042
:100B4000CBF8C4F3074000F0C7F8C4F3072000F067
:100B5000C3F8E0B200F0C0F8304600F0BDF80C2D4C
:100B600002D004E0FF2070BDFF2000F0B5F81F2484
:100B7000FF2000F0B1F80106F5D52100A4F1010431
:100B8000E4B2F5D170BD70B500246FF07F4504E08C
:100B9000FF2000F0A1F8FF2804D0641CAC42F7D37A
:100BA000002070BD012070BD70B506461D48154679
:100BB0000C460078062800D04C02012D13D00128E5
:100BC00009D0012200213720FFF7ABFF012229467F
:100BD0001720FFF7A6FF012221461920FFF7A1FFEA
:100BE00004000AD01AE0012221461820FFF799FFDD
:100BF000040013D1FE2130460DE0FC213046FFF702
:100C000069FF6D1E06F5007615F0FF0501D001287D
:100C1000F3D0FD210020FFF75DFF0446FFF72CFE17
:100C2000204670BD0800002010B54FF0804401211F
:100C3000204600F02DFA0028F9D02046BDE81040EB
:100C400000F045BA70B50446C1B24FF08045284661
:100C500000F054FA4021284600F01AFA0028F9D092
:100C6000204670BD10B500244FF400201021012350
:100C70002246FFF77FFB00224FF400711448FFF774
:100C800096FB05224FF4F0510320FFF7E3FA1148D9
:100C90004FF48041C0E900140821C0E90214046146
:100CA00044618461C46104210462C0E909410146D0
:100CB0004FF04024204600F058F80121204600F073
:100CC0007CF82046BDE81040012100F03DB800004E
:100CD00000600B407802002070B50646C8244FF033
:100CE000402503E0641E14F0FF041AD001212846B9
:100CF00000F034F80028F5D03146284600F067F8B7
:100D0000C82403E0641E14F0FF040AD0042128461E
:100D100000F024F80028F5D0284600F04BF8C0B2C7
:100D200070BD002070BD000010B506494FF0402492
:100D30008862204600F019F82046BDE810400121E5
:100D400000F002B8780200200029016802D041F0CA
:100D5000010101E021F0010101607047024600201D
:100D600052690A4200D00120704730B5D1E90543ED
:100D7000E4B14FF40072DA4022438C680B682343DD
:100D8000D1E903452C432343CC69234313434360F8
:100D90004B6A4A681A430B6A42EA03128261896A03
:100DA0004FF0FF3202EB5101C16030BD4FF4807251
:100DB0009A40E2E7006980B270470029016802D0DA
:100DC00041F0080101E021F0080101607047016174
:100DD00070471131016802D041F0100101E021F0AB
:100DE00010010160704770474FF0E0210428086946
:100DF00003D020F004000861704740F00400FAE7D7
:100E000010B56FF00400FFF7EFFF42F2283000F05A
:100E100021F8BDE81040012000F010B84FF0E021AB
:100E200030B10128086906D020F001000861704740
:100E300000208861704740F00100F7E74FF0E021A3
:100E40000028086902D040F0020001E020F0020012
:100E5000086170474FF0E0214861704710B50024E9
:100E6000074801F08BFAC1B2A1F13000092805D87A
:100E700004EB840001EB4004303CF1E7204610BD58
:100E80002000002000F0AEB813480121C0F8001384
:100E9000124AC2F8A810D2F80831002BFBD0002368
:100EA00013624FF010638361C2F8A410D2F80431CA
:100EB000002BFBD00A4A136823F00703DB1C1360E6
:100EC0000162426822F00302521C4260426BB1EBA5
:100ED000927FFBD170470000008008400000104363
:100EE000000208404FF46162B0FBF2F102FB110016
:100EF0003C23B0FBF3F203FB120301A000F00CB99A
:100F000054696D653A20253032753A253032753A8C
:100F1000253032750D00000070B51C4800F0FCF85B
:100F20001BA000F0F9F820A000F0F6F8FFF796FFFC
:100F300004461728FAD801461CA000F0EDF81DA0C1
:100F400000F0EAF818A000F0E7F8FFF787FF054681
:100F50003B28FAD8014615A000F0DEF81BA000F0EF
:100F6000DBF811A000F0D8F8FFF778FF06463B2821
:100F7000FAD801460DA000F0CFF84FF46160444369
:100F8000C5EB051004EB8000304470BD6428000000
:100F90000D0A2020506C65617365205365742048EC
:100FA0006F757273000000000D0A00003A202025C2
:100FB000750000000D0A2020506C65617365205398
:100FC0006574204D696E7574657300000D0A2020EC
:100FD000506C6561736520536574205365636F6E53
:100FE0006473000003480168002902D00168491EAB
:100FF000016070470C00002070B505244FF4FA75AD
:1010000005E00CA000F088F8284600F0DFFB641E25
:10101000002C04DDFFF750FC0028F2D100E024B1E1
:101020000CA000F079F8012070BD12A000F074F857
:10103000002070BD53442043617264204572726F7A
:101040007221506C6561736520636865636B210D67
:101050000A000000496E69742053442043617264A1
:10106000207375636365737366756C6C79210D0A03
:10107000000000006661696C656420746F20696E11
:1010800069742053442043617264202E0D0A0000CD
:101090008069084000D00120704770B505460C46B5
:1010A000C88889882A690843218922F01F021143D0
:1010B00008432861686A618920F003000843686278
:1010C000FFF750F92168B0FBF1F0A86370BD00682C
:1010D00080B270470029C16802D041F4007101E07C
:1010E00021F40071C16070470029416A02D041F0CB
:1010F000200101E021F0200141627047016070474A
:101100000029C16802D041F4807101E021F48071AE
:10111000C1607047FEE700000FB4054B10B503A98E
:10112000044A029800F018F810BC5DF814FB0000A7
:101130007B2200001C00002002E008C8121F08C12A
:10114000002AFAD170477047002001E001C1121F48
:10115000002AFBD1704700002DE9FF4F8DB00F46EC
:1011600005460026DEE1252874D100246D1CF149D6
:10117000A246A14601222B78203B02FA03F0084246
:1011800002D004436D1CF6E728782A2810D06FF0AF
:101190002F022878A0F13001092915D80AEB8A011D
:1011A00002EB410144F0020400EB010A6D1CF0E780
:1011B00057F804ABBAF1000F03DA44F40054CAF153
:1011C000000A44F002046D1C28782E2817D115F867
:1011D000010F44F004042A280ED06FF02F02287863
:1011E000A0F1300109290AD809EB890102EB41017C
:1011F00000EB01096D1CF2E757F8049B6D1C287881
:101200006C280FD006DC4C2817D068280DD06A282F
:1012100014D104E0742810D07A280FD10DE044F4E2
:1012200000140AE044F4801401E044F440146978A6
:10123000814202D16D1C04F580146D1C2A786E2A3F
:1012400020D00DDC632A33D005DC002A6FD0582A69
:1012500012D1A2E011E0642A6AD0692A0CD167E0B9
:10126000732A2FD004DC6F2A6FD0702A04D199E042
:10127000752A6BD0782A6AD01046DDE90F129047A4
:10128000761C4EE1C4F30250022806D003280AD08F
:10129000042801CF0AD0066043E101CF4FEAE6718E
:1012A000C0E900613DE101CF06803AE1067038E116
:1012B00017F8040B8DF8000000208DF80100EB46B4
:1012C000012003E057F804BB4FF0FF3061074FF0F7
:1012D000000102D40DE008F10101884649450FDA0A
:1012E0008045F8DB1BF808100029F4D108E008F16C
:1012F000010188468142FADB1BF808100029F6D16B
:10130000DDE90F23AAEB08008146214600F03BF9F6
:10131000304400EB080604E0DDE90F121BF8010B76
:101320009047B8F10108F7D221464846F4E0FDE0C5
:101330000A21C4F302534FF0000B0891022B07D08F
:1013400001CFC117032B09D00AE034E023E024E0E9
:10135000FF1D27F00707F7E8020105E000B2C117FB
:10136000042B01D140B2C117002907DA4FF0000C5D
:10137000D0EB0C006CEB01012D2302E0230504D51A
:101380002B238DF82430012303E0E30701D0202331
:10139000F7E7984650E00A210EE010204FF0000BCE
:1013A00008900CE010214FF0000B44F004044FF0C3
:1013B0000809089103E008214FF0000B0891C4F3DD
:1013C0000253022B04D001CF0021032B06D006E0EC
:1013D000FF1D27F00707F7E8020103E080B2042BA6
:1013E00000D1C0B24FF00008230725D5702A2AD0BB
:1013F000DDF820C08CF0100C5CEA0B0C09D150EA2F
:10140000010306D030238DF824308DF825200223E7
:101410009846DDF820C08CF0080C5CEA0B0C0BD170
:1014200050EA010301D1630706D530238DF824303B
:101430004FF00108A9F10109582A09D03EA20B92E8
:1014400008AA0A9211E040238DF824300123DFE737
:101450003EA2F4E75B46089AFEF798FE0B9B9B5C66
:101460000A9AA2F101020A92137050EA0102F1D124
:101470000A98ADEB000000F1200B600702D524F4C0
:10148000803401E04FF00109D94502DDA9EB0B00E2
:1014900000E0002000EB0B0141440890AAEB010A98
:1014A000E00306D4DDE90F232146504600F06BF837
:1014B0000644002008E009A911F80900DDE90F122F
:1014C0009047761C09F1010081464045F3DBE003BB
:1014D0000CD5DDE90F232146504600F054F80644B0
:1014E00004E0DDE90F1230209047761C0899481E71
:1014F00008900029F5DC08E00A980A990078491C50
:101500000A91DDE90F129047761CBBF10001ABF1A7
:10151000010BF1DC21465046DDE90F2300F020F8F5
:1015200006446D1C287800287FF41DAE11B03046AB
:10153000BDE8F08F092801003031323334353637B9
:10154000383961626364656600000000303132330F
:1015500034353637383941424344454600000000AF
:101560002DE9F041044600251E461746880405D49F
:1015700006E039462020B04705F10105641EF8D584
:101580002846BDE8F0812DE9F041044600251E46BD
:101590009046C80301D5302700E02027880405D5F0
:1015A00006E041463846B04705F10105641EF8D50E
:1015B0002846BDE8F081000010B5044600202071E7
:1015C000401EE062204600F048FF08B1032010BD35
:1015D000B4F82E02A0F52A41553901D0022010BDE1
:1015E00094F86600B4F8671040EA01210848B0EBAF
:1015F000012F08D094F88210B4F8832041EA022128
:10160000B0EB012F01D1002010BD012010BD000062
:10161000004641544269891E921E8A4201D8002028
:101620007047826A807801FB002070472DE9F04105
:101630000F00064606D000F022FE022809D2012043
:10164000BDE8F081F56815B17069A84207D8012599
:1016500005E0411CF4D071698142F1D83D462C4629
:101660007069641CA04202D80224022D0AD32146CC
:10167000304600F004FE38B1411CE1D00128DFD033
:10168000AC42EDD10020DBE76FF0704221463046DE
:1016900000F0FCFE30B957B122463946304600F022
:1016A000F5FE20B101280DD001242046C8E7F460E2
:1016B0003069411CF9D0401E3061707940F0010062
:1016C0007071F2E74FF0FF34EFE700002DE9F047CB
:1016D00089460C6800E0641C21782F29FBD05C2926
:1016E000F9D085690B222021284600F0AFFE0020AA
:1016F000024617464FF0080CE15D7F1C202934D9C3
:101700002F2932D05C2930D02E2901D060450AD350
:10171000BCF1080F36D12E2934D1082091064FF0A4
:101720000B0C0A0EE8E7802905D3234B42F0030295
:10173000194411F8801C21A300E05B1C1E7816B12F
:101740008E42FAD11EE0A1F14103192B02D842F0DA
:10175000020207E0A1F16103192B03D8203942F0FE
:101760000102C9B22954401CC6E73C44C9F80040F4
:10177000202901D8042100E0002118B12878E528AB
:1017800003D004E00620BDE8F08705202870BCF1F6
:10179000080F01D19006020E02F00300012801D1CA
:1017A00041F01001C2F38100012801D141F008018C
:1017B000E9720020E7E70000A7280000222A2B2C6E
:1017C0003A3B3C3D3E3F5B5D7C7F000010B50446EC
:1017D0000120FFF723FB06490C6008680028FCD1B4
:1017E000801EFFF71BFBBDE810400020FFF716BB73
:1017F0000C0000202DE9F041C78804467F1C380406
:101800000E46000C2CD0206950B339075AD1401C29
:101810002061E168206829B18278521E12EA171F00
:1018200004D04FE00089B8421AD94BE000F027FD00
:101830000546012819D9681C30D020684169A942A1
:101840003AD86EB1E168FFF7F1FE05000BD0012D2B
:101850000BD0681C22D0206800F0CAFFF0B906E067
:101860000420BDE8F0810720FBE70220F9E72068AB
:101870004FF400723030002100F0E8FD2946206866
:10188000FFF7C8FE216800264FF00108C8620CE08F
:1018900080F80480206800F0ABFF08B10120E0E789
:1018A0002068C16A491C761CC16220688178B142F7
:1018B000EED8C16A891BC162E56029462068FFF73E
:1018C000A9FE2061E78007F00F013022206802EBBB
:1018D0004111084460610020C3E770B50446012649
:1018E000002100F032F888B900252169206800F055
:1018F000B4FD58B961690978E5290AD049B10025D4
:1019000001212046FFF776FF0028EED0042804D0FE
:1019100004E06D1CB54201D0F2E70720050012D1AA
:101920002169206800F099FD05000CD120220021DA
:10193000606900F08BFDD4E905010B2200F07EFD0B
:10194000216801200871284670BD70B5C180836888
:101950000D460446012B34D020684169994230D9A4
:1019600023B90178032904D1436A13B180780601B1
:1019700010E00189A94224D9406A11E000F07FFCFF
:101980000346401C1BD0022B1BD3206840699842A1
:1019900017D9AD1B2068B5421946EFD2FFF73AFEC2
:1019A000E36070B100EB1510206105F00F013022EB
:1019B000206802EB411108446061002070BD0120E5
:1019C00070BD022070BD10B518B9FEF775FF002874
:1019D00000D0012010BD002800D00420704770B551
:1019E00014460D4630B9DAB221462846FFF710F802
:1019F000012801D0042070BD002070BD002800D057
:101A00000120704770B514460D4630B9DAB2214650
:101A10002846FFF7C9F8012801D0042070BD002036
:101A200070BD10B5044600F0C3F9002806D1204669
:101A300000F007FF002801D10021216010BD000047
:101A400017B581B0144602980090684600F078FC03
:101A5000002802DA0B2004B010BD0B4B002253F813
:101A6000201001B10A700199002900D00A7043F8D2
:101A7000201001D0012C01D00020ECE7002202A9A7
:101A800001A800F089FAE6E7180000202DE9F747E1
:101A90008BB006000ED04FF0000802F01F0727F0B1
:101AA00001020CA96846C6F8008000F075FA05002E
:101AB00004D08BE009200EB0BDE8F08707A806909F
:101AC00068460C9900F084FB059C050001D104B91F
:101AD000062517F01C0F50D055B1042D03D16846D0
:101AE000FFF7FBFE0546059C47F0080745B16DE092
:101AF000E07A10F0110F4AD1780701D5082565E08A
:101B000038074AD500F01AFCA073C0F30721E1732F
:101B1000C0F307422274030E6374A075E175227648
:101B2000637684F80B8084F81C8084F81D8084F828
:101B30001E8084F81F802146009800F021FC814619
:101B40000021204600F0F4FD00990120B9F1000FBA
:101B5000087120D000984946D0F82CA000F033FD41
:101B6000050033D10099A9F10100C86051460098E1
:101B700000F073FC05000CD028E03DBBE07AC10604
:101B800001D5042522E0B90703D5C00701D00725F8
:101B90001CE0380701D547F0200700982146C06AAD
:101BA000C6E90704B77186F807804746009800F039
:101BB000E7FB3061207FD4F81D1040EA0120C6E920
:101BC0000270B76100983060C088B080284672E724
:101BD0000FB42DE9F0479AB024AE02900020039094
:101BE0000DF154090490239810F8011B239000294B
:101BF00072D0252903D002A800F0C2FCF3E700252B
:101C000010F8011B2F462390302902D02D2902D035
:101C100005E0012500E0022510F8011B2390A1F149
:101C20003000092806D807EB870001EB4007303F5A
:101C30002398F1E76C2901D04C2905D1239845F070
:101C4000040510F8011B2390002945D0A1F1610083
:101C50000A46192801D8203AD2B24F2A42D006DCCF
:101C6000422A3DD0432A38D0442AC4D13CE0532AEA
:101C700009D0552A38D0582ABDD11023680701CE83
:101C8000442A33D037E056F8048B002401E004F1F5
:101C9000010418F804000028F9D1A80704D50DE0C4
:101CA000202102A800F06CFC2046641CB842F7D347
:101CB00004E008F1010802A800F062FC98F80010A6
:101CC0000029F6D103E0202102A800F059FC2046AB
:101CD000641CB84287D2F6E753E016F8041B8AE783
:101CE0000223CBE70823C9E70A23C7E7002802DA63
:101CF000404245F008050024CC460246B0FBF3F014
:101D000003FB1022D2B2092A05D9782915D04FF049
:101D100007084244D2B230320CF80420641C08B1E7
:101D2000102CEAD3280703D52D2009F80400641CE1
:101D3000A046E80704D0302003E04FF02708E8E78A
:101D40002020824603E0514602A800F019FCA807B3
:101D500004D4414608F10108B942F4D34D46641E4B
:101D600002A8295D00F00CFC002CF8D103E05146DC
:101D700002A800F005FC414608F10108B942A9D2C9
:101D8000F5E70398002810DB024601AB05A902988D
:101D900000F04AF848B901990398884205D104989F
:101DA0001AB0BDE8F0075DF814FB4FF0FF30F7E71D
:101DB00070B5044600F045FD002834D1A1798906AC
:101DC00031D5E169206800F048FB00282BD1256A55
:101DD000E87A40F02000E872207B2877A089000A8A
:101DE0006877E068000CA877E068000EE87728467E
:101DF000216900F09DFC00F0A1FAA875010AE975BF
:101E0000010C2976000E68760020A874E874A07989
:101E100020F02000A0712168012008712068BDE831
:101E2000704000F08DBC70BD2DE9F05F04460020CD
:101E300018609A4616468946204600F002FD0028A2
:101E400006D1E079002803D1A079800702D40720C9
:101E5000BDE8F09FA0684FF0010B8119814266D365
:101E600089E0A068C1055BD122689178491E01EA2A
:101E7000502111F0FF0512D108B1616902E020691B
:101E800028B900211046FFF7D1FB002876D00128A1
:101E900024D0411C54D06061216901B920612068BF
:101EA000A269C16A914202D100F0A2FCF0BB616953
:101EB0002068FFF7AFFB88B100EB0508770A22D056
:101EC0002068EA1981788A4200D94F1B40783B4646
:101ED00042464946FFF796FD40BB02E00220E07112
:101EE000B6E72068C26AA2EB0801B94209D209EB41
:101EF000412130304FF4007200F0A0FA2168002038
:101F000008717D022DE0D4E90201884206D32068E1
:101F100000F06EFC50B92168C1F82C80C4F818801C
:101F20002089C0F30800C0F5007501E008E025E055
:101F3000B54200D93546A169206800F08EFA18B183
:101F400084F807B0012083E720892168C0F30800E6
:101F5000303008442A46494600F070FA216881F87A
:101F600004B0A068A9442844A060DAF80000411930
:101F7000761BCAF80010002E7FF473AFD4E902017B
:101F8000884200D9E060A07940F02000A0710020D4
:101F90005EE7FEF749BE00002DE9FF474FF000095C
:101FA0000746C0F800901646084600F0C9F9051E1D
:101FB00003DA0B2004B0BDE8F087824850F82540D2
:101FC0008CB13C60207820B16078FFF717FDC10725
:101FD0000BD084F80090E8B26070FFF7F4FCC10702
:101FE00008D00320E6E70C20E4E70EB1400704D454
:101FF0000020DFE71EB1400701D50A20DAE70025FF
:1020000029462046FFF7D8FA012821D100206E4644
:1020100004EB001101F5F7710A792AB10A7AD1F8B7
:10202000091042EA012100E0002146F82010401C7E
:102030000428EDD3002756F8275025B1294620461D
:10204000FFF7BAFA00E0022040B17F1C042FF2D360
:10205000032801D0F0BB01E00120ABE7B4F83B005E
:10206000B0F5007F5DD1B4F8461029B994F854005A
:10207000D4F8551040EA0121A16194F840C084F8D9
:1020800003C0BCF1010F02D0BCF1020F49D194F89A
:102090003D600CFB01FCA670E6B1701E064240D10B
:1020A000B4F84120228110073BD1B4F8430028B98D
:1020B00094F85000D4F8513040EA0320E38F4BB13C
:1020C00003EB0C0707EB1217B8422AD3C01BB0FB77
:1020D000F6F000E025E020B3012640F6F678404512
:1020E00000D302264FF6F678404500D30326801C25
:1020F0002F44A7622B446061C4E90753032E12D01A
:102100007AB103EB0C026262022E17D000F00102DA
:1021100000EB400002EB500000F2FF10B1EB502F3B
:102120000ED20D2046E7002AFBD194F85C20D4F8AB
:102130005D30800042EA03226262EDE74000EBE797
:102140004FF0FF302061E06080206071032E30D1BD
:10215000B4F8600001282CD1691C204600F07DF9FC
:1021600038BB84F80590B4F82E02A0F52A41553901
:102170001FD194F83000D4F8311040EA0120124900
:10218000884216D194F81402D4F8151240EA0120BE
:102190000E4988420DD194F81802D4F8191240EA79
:1021A0000120206194F81C02D4F81D1240EA01209D
:1021B000E06004492670091F0888401C0880E08000
:1021C00016E700001800002052526141727241610E
:1021D00073B50446019908782F2801D05C2801D1F5
:1021E000491C01910025A56001980078202805D29E
:1021F00000212046FFF7A9FB65617CBD01A92046AF
:10220000FFF764FA0028F8D100212046FFF79DFB74
:10221000F8B92169206800F020F9D0B961690A781D
:1022200072B1CA7A12070ED40B25A26900236D1E63
:1022300008D311F8013B12F8016B9B1BF7D002E0A9
:10224000042006E02BB100212046FFF7D3FA002836
:10225000DFD0A169C97A28B10428CED14907CCD4EE
:1022600005207CBD4907FCD46169C87AC006F7D552
:10227000206800F085F8A060C0E7FEF7E3BC2DE918
:10228000F0410D46044602290BD36069A84208D9E3
:1022900020784FF0FF36012807D002282BD00328E2
:1022A00036D001263046BDE8F081206A05EB55079F
:1022B00000EB5721204600F0D0F80028F2D1C7F3F8
:1022C000080020447F1C90F83080206A00EB5721E2
:1022D000204600F0C2F80028E4D1C7F308002044EB
:1022E00090F8301048EA0120E90701D00609D9E743
:1022F000C0F30B06D6E7206A00EB1521204600F05C
:10230000ACF80028CED1E8B204EB4000068EC9E755
:10231000206A00EBD511204600F09FF80028C1D1BB
:1023200040F2FF1000EA8500204490F83010D0F809
:10233000310041EA002020F07046B3E700207047EA
:1023400010B503464FF0FF301C68002C13D0214617
:1023500000E0491C0A78212A0ED33A2AF9D114F850
:10236000012B303A0A2A06D28C4204D1002A02D12B
:10237000491C1046196010BD002010BDFFF709BEB2
:102380000246488B1278032A02D1898A40EA01402A
:1023900070470000FEF734FD4FF4E1314805FEF7C9
:1023A0001BF8FEF787F8FEF784FBFEF725FE00F02A
:1023B0003BF9FEF76DF91D4D1D4E1E4F00240821FF
:1023C0000220FEF7BBF8012821D108210220FEF7E8
:1023D00043F804EB440000EBC40042195078512844
:1023E00012D1D0783178FDF7D7FF48B150793178E4
:1023F000FDF7D2FF20B1D0793178FDF7CDFF18B9C4
:1024000055210D48FEF77AFE641C032CE1DB386889
:102410000128D3D1FEF7D8F904460120FEF714F9BC
:102420002044FEF75FFD00203860C7E7240000204D
:1024300000000020100000200000044003E011F81C
:10244000013B00F8013B521EF9D27047C9B201E0CE
:1024500000F8011B521EFBD2704770B50446C06ADB
:102460000E460025B0420FD0204600F0C1F905000D
:102470000AD160780123324604F13001FFF7AFFA48
:1024800008B16E1E0125E662284670BD2DE9F047B1
:1024900016460D460446022902D36069A84202D8B6
:1024A0000220BDE8F087207806F0FF084FF0010910
:1024B000012820D0022850D00328F1D1206A00EB57
:1024C000D5112046FFF7C9FF0028EAD140F2FF11DD
:1024D00001EA8501214430314FF07043D1F80120E9
:1024E00003EA022232430A70130A4B70130C8B70FA
:1024F000120ECA7041E0206A05EB550700EB572128
:102500002046FFF7AAFF0028CBD1C7F308002044DC
:1025100030307F1CE90703D0017868F31F1100E019
:102520003146017084F80490206A00EB5721204660
:10253000FFF793FF0028B4D1C7F3080121443031DD
:10254000EA0702D0C6F3071205E00A78C6F30323B0
:1025500002F0F0021A430A700FE0206A00EB152126
:102560002046FFF77AFF00289BD1E9B204EB410136
:10257000320A81F8308081F8312084F8049090E7A5
:10258000F8B50E4604460A2902D10D21FFF7F8FFDF
:102590006568002D16DB60196D1C06733D2D0DDB83
:1025A0006B462A4604F10C012068FFF73DFC0098B9
:1025B000A84201D1002501E04FF0FF356560A06819
:1025C000401CA060F8BD2DE9F0410F4604460229E9
:1025D00016D36069B84213D900261FE03946204659
:1025E000FFF74DFE05001CD0012D09D0681C09D055
:1025F000002239462046FFF749FF060011D103E0CB
:1026000002260EE001260CE02069411C05D0401C8A
:102610002061607940F0010060712F466069B84226
:10262000DCD83046BDE8F08100B5154889B00022FD
:1026300001681448FFF704FA20B113A0FEF76CFDFF
:1026400009B000BD14A0FEF767FD132218A168466B
:10265000FFF71CFA08B11AA00BE01EA0FEF75CFD04
:1026600023A16846FFF7B4FA002801DD24A000E0AA
:102670002AA0FEF751FD6846FFF7D3F9E0E7000016
:1026800004000020480000204D6F756E74206661C4
:10269000696C65640D0A00004D6F756E74205344BB
:1026A000207375636365737366756C6C790D0A00CE
:1026B0007465737466696C652E747874000000002C
:1026C0004F70656E2066696C65206661696C656433
:1026D0002E0D0A004F70656E2066696C652073755B
:1026E000636365737366756C6C792E0D0A00000068
:1026F00048656C6C6F2C576F726C64210A00000087
:10270000507574732066696C6520737563636573B7
:102710007366756C6C792E0D0A0000005075747329
:102720002066696C65206661696C65642E0D0A001F
:1027300081760A0AC2760A0C0275090E4175704745
:1027400070B5044600F054F805004FD120780328F6
:1027500045D16079012842D1420204F130000021C4
:102760000646FFF773FE552084F82E02AA2084F84F
:102770002F02522084F8300084F83100612284F85E
:102780003220412084F83300722184F8141284F836
:10279000151284F8160284F81722206984F81802AA
:1027A000010A84F81912010C84F81A12000E84F838
:1027B0001B02E06884F81C02010A84F81D12010C57
:1027C00084F81E12000E84F81F02E2690123521CD5
:1027D000E26260783146FFF715F90020607100224F
:1027E00060781146FFF7F7F800B10125284670BD63
:1027F0002DE9F041044600790027F8B1E66A04F1BA
:1028000030016078012332468846FFF7FBF808B1B3
:10281000012713E000202071206AA169301A884244
:102820000CD2E57808E0A0690123064460783246BE
:102830004146FFF7E7F86D1E022DF4D23846BDE899
:10284000F08110B560B1016851B10A7842B1CA880F
:102850008088824204D14878FFF7D0F8C00700D0C2
:10286000092010BD0D0A3D3D3D3D3D3D3D3D3D3DF9
:102870003D3D3D3D54696D652053657474696E67D7
:10288000733D3D3D3D3D3D3D3D3D3D3D3D3D3D3D42
:102890003D3D3D3D3D3D3D3D3D3D3D3D3D3D3D3D68
:1028A0003D3D3D3D3D3D00809A45418E418F8045F7
:1028B00045454949498E8F9092924F994F555559A8
:1028C000999A9B9C9D9E9F41494F55A5A5A6A7A857
:1028D000A9AAABACADAEAFB0B1B2B3B4B5B6B7B8F0
:1028E000B9BABBBCBDBEBFC0C1C2C3C4C5C6C7C8E0
:1028F000C9CACBCCCDCECFD0D1D2D3D4D5D6D7D8D0
:10290000D9DADBDCDDDEDFE0E1E2E3E4E5E6E7E8BF
:10291000E9EAEBECEDEEEFF0F1F2F3F4F5F6F7F8AF
:10292000F9FAFBFCFDFEFF00482900000000002032
:1029300024000000381100006C2900002400002051
:1029400084040000481100001C000000272900003A
:102950000000000000000000000000000000000077
:0C2960000000000000000000000000006B
:0400000500000155A1
:00000001FF
