:020000040000FA
:10000000980600205501000063040000C3030000AF
:1000100061040000B9020000AB0C00000000000009
:10002000000000000000000000000000270B00009E
:100030009903000000000000D1050000290B00001A
:100040006F0100006F0100006F0100006F010000F0
:100050006F0100006F0100006F0100006F010000E0
:100060006F0100006F0100006F0100006F010000D0
:100070006F0100006F0100006F0100006F010000C0
:100080006F0100006F0100006F0100006F010000B0
:100090006F0100006F0100006F0100006F010000A0
:1000A0006F0100006F010000000000006F01000000
:1000B0006F0100006F0100006F0100006F01000080
:1000C0006F0100006F0100006F0100006F01000070
:1000D0006F010000000000000000000000000000B0
:1000E000000000006F0100006F0100006F010000C0
:1000F0006F0100006F0100006F0100006F01000040
:100100006F0100006F0100006F0100006F0100002F
:100110006F0100006F010000000000006F0100008F
:100120006F0100006F0100006F0100006F0100000F
:100130006F0100006F0100006F010000000000006F
:1001400000000000000000000000000000000000AF
:100150006F0100000648804706480047FEE7FEE7BB
:10016000FEE7FEE7FEE7FEE7FEE7FEE7FEE7FEE767
:100170002D0B000079010000DFF80CD000F038F8FA
:1001800000480047591D0000980600202DE9F05F47
:100190000546002092469B468846064681464024F6
:1001A0001BE0284641464746224600F042F85346A7
:1001B0005A46C01A914110D311461846224600F003
:1001C00029F82D1A67EB01084F462246012000212D
:1001D00000F020F817EB00094E41201EA4F10104A5
:1001E000DFDC484631462A464346BDE8F09F000022
:1001F000064C074D06E0E06840F0010394E8070074
:1002000098471034AC42F6D3FFF7BAFF6C220000D7
:100210008C220000202A04DB203A00FA02F10020A0
:1002200070479140C2F1200320FA03F31943904034
:100230007047202A04DB203A21FA02F0002170479F
:1002400021FA02F3D040C2F120029140084319463E
:10025000704700002DE9F0479146164A4FF0FF0A1B
:1002600002EBC005002200240AFA02F023460842ED
:1002700019D04FF0010C00200CFA02FC4FF00F08CF
:1002800021FA00F616EA0C0F06D0860008FA06F7E7
:100290003C4309FA06F73B43401C0828F0D3286882
:1002A000A043184328602D1D0832082ADBDDBDE875
:1002B000F087000020200240FEE7000070B5124EDB
:1002C0000446706B850F00F023F82060012D05D0E7
:1002D0000E48022D02D0032D00D000206060316A4C
:1002E000C840A0603168C1F3015120FA01F1E1601A
:1002F000B16AC1F30241072902D0C840206170BD34
:100300000621B0FBF1F0F9E70080084000127A0006
:100310000C49D1F8A400002813D0086A0A48D1F883
:10032000FC1301290DD0094A9169C1F3C55101B9E6
:1003300040219269C2F3415301229A40B0FBF2F08E
:10034000484370470000104300127A0000800840C4
:1003500000B585B06846FFF7B1FF039805B000BD52
:10036000F0B5074F7C6AFD6A3E6B84438D4396432C
:1003700013B104430D4316437C62FD623E63F0BD3E
:1003800000800840884205D9C1F1FF01814201D3B4
:100390000020704701207047704742B1012A09D000
:1003A00082688A438260C2688A43C26070478268FA
:1003B0000A43F7E7C2680A43C26082688A438260E0
:1003C0007047FEE72DE9FE438846044600264FF4B9
:1003D00080410F04214D3046BC4202D14FF482418E
:1003E00003E0AC4201D14FF4844101233246FFF7D0
:1003F000B7FFBC4202D106220C2103E0AC4204D17B
:10040000062230210020FFF725FF0120ADF804006F
:10041000ADF80860CDF80080ADF80660ADF80A6070
:10042000BC420AD16946384600F005FC0121384635
:1004300000F031FC012138460BE0AC420BD169469B
:10044000284600F0F8FB0121284600F024FC012199
:10045000284600F00AFCBDE8FE83000000000440CE
:10046000FEE77047062801D2074A00E0074A01D399
:10047000A0F1060000EB8000136801FA00F143EAE6
:100480000103136070470000280109402C01094056
:100490000A4A00EB400002EBC000D1E904231A43F2
:1004A0008B691A4302600A6842604A688260CA68BF
:1004B000098942EA014101617047000000000940DA
:1004C00030B50024224687B0102001231146FFF7E3
:1004D00047FF01218D07284600F0D1FB0F486946F0
:1004E000CDE900504FF44860069068150590212032
:1004F00002900120CDE903040220FFF7C9FF012289
:100500000921022000F038F80121022000F008F84B
:100510000121022000F048F807B030BD1802002089
:10052000084A00EB400002EBC00000F07042C0F34C
:10053000130002EB401000F1007001B101210160D5
:100540007047000000000940062801D2084A00E078
:10055000084A01D3A0F1060000EB8000126801FAFE
:1005600000F10A4201D001207047002070470000CE
:100570002001094024010940062801D2084B00E06F
:10058000084B01D3A0F10600002A00EB80001A6896
:1005900001FA00F101D00A4300E08A431A60704773
:1005A0003001094034010940084A00EB400002EBE9
:1005B000C00000F07042C0F3130002EB401000F1E5
:1005C000007001B101214160704700000000094046
:1005D000704710B56FF010014FF0402000F099FA0D
:1005E000BDE81040FF2000F017BA70B505464FF681
:1005F000FF7401E0641EA4B2FF2000F00DFAA842CF
:1006000002D0002CF6D102E00CB1002070BDFF201A
:1006100070BD00002DE9F8437F2000F025FA00248A
:10062000FF2000F0F9F9641C0A2CF9DB4E4E14246B
:1006300000219522084600F022F90546012805D040
:100640002000A4F10104A4B2F2D17EE087224FF48D
:10065000D571082000F013F94FF6FE78012820D05C
:1006600001220021372000F00AF90122002129206F
:1006700000F005F9012850D80220307044460122CC
:100680000021372000F0FBF801220021292000F092
:10069000F6F8050050D02000A4F10104A4B2EED178
:1006A0004AE000246F46FF2000F0B6F93855641C7C
:1006B000042CF8DB9DF80200012846D19DF80300C8
:1006C000AA2842D144464FF0804801220021372019
:1006D00000F0D5F801224146292000F0D0F80500AD
:1006E00004D02000A4F10104A4B2EED16CB3012225
:1006F00000213A2000F0C3F838BB0024FF2000F0AE
:100700008BF93855641C042CF8DB9DF8000040067A
:1007100001D5062018E0042016E001203070444680
:1007200001220021104600F0AAF8050004D02000A4
:10073000A4F10104A4B2F3D12CB101225102102082
:1007400000F09DF808B100203070FFF742FF032051
:1007500000F08AF9307810B10020BDE8F8830DB1BF
:100760002846FAE7AA20F8E7080000202DE9F04122
:100770000646184815460078062800D049024FF46E
:100780000077012D4FF0010219D0122000F077F808
:100790003946304600F020F86D1E044606F5007616
:1007A00015F0FF0501D0012CF2D0012200210C2010
:1007B00000F065F8FFF70DFF2046BDE8F08111203D
:1007C00000F05DF80400F5D13946304600F004F839
:1007D0000446EFE70800002070B505460C46FE20F1
:1007E000FFF703FF28B1002070BD00F015F905F8F0
:1007F000010B2000A4F10104A4B24FF0FF00F4D1DA
:1008000000F00AF9FF2000F007F9012070BD00F0A8
:10081000C9B810B510214FF0402000F07AF900F06F
:1008200060F808B1012010BDFFF7D3FE002010BD15
:1008300070B50C46054600F054F800281CD0204640
:1008400000F0EAF8FD2C18D000244FF40076285D63
:1008500000F0E2F8641CA4B2B442F8D3FF2000F028
:10086000DBF8FF2000F0D8F8FF2000F0D5F800F00A
:100870001F00052801D0002070BD012070BD70B59B
:1008800016460C460546FFF7A4FEFFF7C2FFB8B1B7
:1008900045F0400000F0C0F8200E00F0BDF8C4F3B1
:1008A000074000F0B9F8C4F3072000F0B5F8E0B253
:1008B00000F0B2F8304600F0AFF80C2D02D004E0A2
:1008C000FF2070BDFF2000F0A7F81F24FF2000F0DC
:1008D000A3F80106F5D52100A4F10104E4B2F5D195
:1008E00070BD70B500246FF07F4504E0FF2000F07C
:1008F00093F8FF2804D0641CAC42F7D3002070BDED
:10090000012070BD70B506461D4815460C4600789E
:10091000062800D04C02012D13D0012809D0012255
:1009200000213720FFF7ABFF012229461720FFF7F0
:10093000A6FF012221461920FFF7A1FF04000AD0DB
:100940001AE0012221461820FFF799FF040013D175
:10095000FE2130460DE0FC213046FFF769FF6D1E99
:1009600006F5007615F0FF0501D00128F3D0FD2132
:100970000020FFF75DFF0446FFF72BFE204670BD09
:100980000800002070B50446C1B24FF080452846EB
:1009900000F07FF94021284600F048F90028F9D0FE
:1009A000204670BD10B500244FF4002044F2100121
:1009B00001232246FFF7D4FC00224FF400711448B3
:1009C000FFF7EBFC05224FF4F0510320FFF742FC48
:1009D00010484FF48041C0E900140821C0E9021416
:1009E000046144618461C46104210462C0E9094175
:1009F00001464FF04024204600F057F801212046E0
:100A000000F07BF82046BDE81040012100F03CB822
:100A100000600B406C04002070B50646C8244FF0FF
:100A2000402503E0641E14F0FF041AD0012128467B
:100A300000F034F80028F5D03146284600F067F879
:100A4000C82403E0641E14F0FF040AD004212846E1
:100A500000F024F80028F5D0284600F04BF8C0B28A
:100A600070BD002070BD000010B506494FF0402455
:100A70008862204600F019F82046BDE810400121A8
:100A800000F002B86C0400200029016802D041F097
:100A9000010101E021F001010160704702460020E0
:100AA00052690A4200D00120704730B5D1E90543B0
:100AB000E4B14FF40072DA4022438C680B682343A0
:100AC000D1E903452C432343CC69234313434360BB
:100AD0004B6A4A681A430B6A42EA03128261896AC6
:100AE0004FF0FF3202EB5101C16030BD4FF4807214
:100AF0009A40E2E7006980B270470029016802D09D
:100B000041F0080101E021F0080101607047016136
:100B100070471131016802D041F0100101E021F06D
:100B200010010160704770477047000013480121B1
:100B3000C0F80013124AC2F8A810D2F80831002BEE
:100B4000FBD0002313624FF010638361C2F8A4103E
:100B5000D2F80431002BFBD00A4A136823F00703B4
:100B6000DB1C13600162426822F00302521C4260E7
:100B7000426BB1EB927FFBD17047000000800840D0
:100B8000000010430002084070B505254FF6FF76BF
:100B90000AE00DA000F08AF834466E20401E0028BE
:100BA000FCDC641E002CF8DC281EA5F1010503DD29
:100BB000FFF730FD0028ECD10DB10BA000E012A032
:100BC000BDE8704000F072B8534420436172642065
:100BD0004572726F7221506C656173652063686540
:100BE000636B210D0A000000496E69742053442094
:100BF00043617264207375636365737366756C6CAF
:100C000079210D0A00000000547279696E67207422
:100C10006F20696E697420534420436172642066BA
:100C200061696C65642E0D0A00000000806908404F
:100C300000D00120704770B505460C46C8888988E9
:100C40002A690843218922F01F02114308432861C1
:100C5000686A618920F0030008436862FFF778FB47
:100C60002168B0FBF1F0A86370BD0029C16802D013
:100C700041F4007101E021F40071C1607047002966
:100C8000416A02D041F0200101E021F020014162DF
:100C90007047016070470029C16802D041F480713B
:100CA00001E021F48071C1607047FEE70FB4054B8D
:100CB00010B503A9044A029800F018F810BC5DF8BA
:100CC00014FB0000431C00001400002002E008C8D0
:100CD000121F08C1002AFAD170477047002001E0B6
:100CE00001C1121F002AFBD1704700002DE9FF4F00
:100CF0008DB09B460F460446002638E1252801D0DA
:100D00000F9959E00025641C9D49A84601222378CB
:100D1000203B02FA03F0084202D00543641CF6E7C8
:100D200020782E2817D114F8010F45F004052A2841
:100D30000ED06FF02F022078A0F1300109290AD8D7
:100D400008EB880102EB410100EB0108641CF2E7AB
:100D500057F8048B641C20786C280DD004DC4C28D8
:100D600012D06A2811D104E074280DD07A280CD151
:100D70000AE045F4001507E0617845F480158142EA
:100D800002D1641C05F58015641C2278692A46D0BE
:100D900008DC002A70D0582A69D0632A11D0642A4E
:100DA00008D13CE0702A69D0732A14D0752A5CD02F
:100DB000782A5CD00F9910465A46904706F10106F2
:100DC000D4E017F8040B8DF8000000208DF8010026
:100DD000E946012003E057F8049B4FF0FF30690714
:100DE0004FF0000501D40AE06D1C45450DDA85423F
:100DF000FADB19F805100029F6D106E06D1C8542D2
:100E0000FCDB19F805100029F8D12E4404E019F88C
:100E1000010B5A460F9990476D1EF8D2A6E00A20A2
:100E20000021CDE90801C5F3025002280BD001CF03
:100E3000C11700290EDA4FF0000CD0EB0C006CEB60
:100E400001012D2309E007F1070727F00707F7E85D
:100E50000201EEE72B0504D52B238DF82830012362
:100E600030E0EB072ED02023F7E70A2000E0102027
:100E70000021CDE9080109E07DE0FFE71020002115
:100E800045F00405CDE908014FF00808C5F302500C
:100E900002281BD001CF00214FF0000A2B0712D5EA
:100EA000702A19D0DDE908C38CF0100C5CEA030C41
:100EB00009D150EA010306D030238DF828308DF88F
:100EC000292002239A46582A10D00AE0FF1D27F055
:100ED0000707F7E80201DFE740228DF828204FF0EE
:100EE000010A28A20DF120090B9209E02AA2F9E7D4
:100EF000DDE90823FFF74AF90B9B9B5C09F8013DEC
:100F000050EA0102F4D1ADEB090000F12000089095
:100F1000680701D44FF001080899884502DDA8EB65
:100F2000010000E000208046002506E00AA85A469D
:100F3000405D0F999047761C6D1C5545F6DB04E02B
:100F400030205A460F999047761CB8F10001A8F15D
:100F50000108F5DC05E019F8010B5A460F99904796
:100F6000761C0899481E08900029F4DC641C20783F
:100F700000287FF4C3AE11B03046BDE8F08F00000A
:100F8000092801003031323334353637383961625F
:100F90006364656600000000303132333435363723
:100FA00038394142434445460000000010B504462C
:100FB00000202071401EE062204600F094FF08B13E
:100FC000032010BDB4F82E02A0F52A41553901D0F6
:100FD000022010BD94F86600B4F8671040EA0121C1
:100FE0000848B0EB012F08D094F88210B4F88320A1
:100FF00041EA0221B0EB012F01D1002010BD0120F8
:1010000010BD0000004641544269891E921E8A426A
:1010100001D800207047826A807801FB0020704769
:101020002DE9F0410F00064606D000F00CFE022824
:1010300009D20120BDE8F081F56815B17069A842B8
:1010400007D8012505E0411CF4D071698142F1D82F
:101050003D462C467069641CA04202D80224022D31
:101060000AD32146304600F0EEFD38B1411CE1D0F4
:101070000128DFD0AC42EDD10020DBE76FF07042F9
:101080002146304600F048FF30B957B12246394674
:10109000304600F041FF20B101280DD00124204648
:1010A000C8E7F4603069411CF9D0401E30617079A6
:1010B00040F001007071F2E74FF0FF34EFE70000FD
:1010C0002DE9F04789460C6800E0641C21782F293F
:1010D000FBD05C29F9D085690B222021284600F03D
:1010E000FBFE0020024617464FF0080CE15D7F1C16
:1010F000202934D92F2932D05C2930D02E2901D093
:1011000060450AD3BCF1080F36D12E2934D108200E
:1011100091064FF00B0C0A0EE8E7802905D3234B0C
:1011200042F00302194411F8801C21A300E05B1C6B
:101130001E7816B18E42FAD11EE0A1F14103192B9F
:1011400002D842F0020207E0A1F16103192B03D893
:10115000203942F00102C9B22954401CC6E73C4480
:10116000C9F80040202901D8042100E0002118B16D
:101170002878E52803D004E00620BDE8F0870520A4
:101180002870BCF1080F01D19006020E02F0030096
:10119000012801D141F01001C2F38100012801D1E1
:1011A00041F00801E9720020E7E70000E8210000B3
:1011B000222A2B2C3A3B3C3D3E3F5B5D7C7F00006E
:1011C0002DE9F041C78804467F1C38040E46000C08
:1011D0002CD0206950B339075AD1401C2061E168F6
:1011E000206829B18278521E12EA171F04D04FE0FE
:1011F0000089B8421AD94BE000F025FD05460128C8
:1012000019D9681C30D020684169A9423AD86EB11A
:10121000E168FFF705FF05000BD0012D0BD0681C1E
:1012200022D0206800F0A6FFF0B906E00420BDE857
:10123000F0810720FBE70220F9E720684FF40072F5
:101240003030002100F048FE29462068FFF7DCFE20
:10125000216800264FF00108C8620CE080F8048085
:10126000206800F087FF08B10120E0E72068C16A2C
:10127000491C761CC16220688178B142EED8C16AEF
:10128000891BC162E56029462068FFF7BDFE206129
:10129000E78007F00F013022206802EB411108447B
:1012A00060610020C3E770B504460126002100F00C
:1012B00032F888B900252169206800F014FE58B979
:1012C00061690978E5290AD049B100250121204644
:1012D000FFF776FF0028EED0042804D004E06D1C50
:1012E000B54201D0F2E70720050012D1216920683C
:1012F00000F0F9FD05000CD120220021606900F00A
:10130000EBFDD4E905010B2200F0DEFD2168012090
:101310000871284670BD70B5C18083680D460446CB
:10132000012B34D020684169994230D923B9017822
:10133000032904D1436A13B18078060110E00189C2
:10134000A94224D9406A11E000F07DFC0346401C0C
:101350001BD0022B1BD320684069984217D9AD1BC4
:101360002068B5421946EFD2FFF74EFEE36070B138
:1013700000EB1510206105F00F013022206802EB10
:10138000411108446061002070BD012070BD022041
:1013900070BD10B518B9FFF73DF9002800D0012045
:1013A00010BD002800D00420704770B514460D46CB
:1013B00030B9DAB221462846FFF7D8F9012801D022
:1013C000042070BD002070BD002800D001207047AF
:1013D00070B514460D4630B9DAB221462846FFF7FB
:1013E00091FA012801D0042070BD002070BD10B515
:1013F000044600F0C3F9002806D1204600F0E3FEC1
:10140000002801D10021216010BD000017B581B076
:10141000144602980090684600F076FC002802DA34
:101420000B2004B010BD0B4B002253F8201001B16B
:101430000A700199002900D00A7043F8201001D0E9
:10144000012C01D00020ECE7002202A901A800F045
:1014500087FAE6E7100000202DE9F7478BB0060079
:101460000ED04FF0000802F01F0727F001020CA970
:101470006846C6F8008000F073FA050004D08BE0DF
:1014800009200EB0BDE8F08707A8069068460C99C1
:1014900000F082FB059C050001D104B9062517F078
:1014A0001C0F50D055B1042D03D16846FFF7FBFE49
:1014B0000546059C47F0080745B16DE0E07A10F05D
:1014C000110F4AD1780701D5082565E038074AD5BC
:1014D00000F018FCA073C0F30721E173C0F30742CA
:1014E0002274030E6374A075E1752276637684F826
:1014F0000B8084F81C8084F81D8084F81E8084F89A
:101500001F802146009800F01DFC814600212046E6
:1015100000F0D0FD00990120B9F1000F087120D032
:1015200000984946D0F82CA000F093FD050033D177
:101530000099A9F10100C8605146009800F0D3FC61
:1015400005000CD028E03DBBE07AC10601D504259A
:1015500022E0B90703D5C00701D007251CE03807F2
:1015600001D547F0200700982146C06AC6E9070464
:10157000B77186F807804746009800F0E3FB3061BA
:10158000207FD4F81D1040EA0120C6E90270B7613F
:1015900000983060C088B080284672E70FB42DE90B
:1015A000F0479AB024AE0290002003900DF1540948
:1015B0000490239810F8011B2390002972D025294C
:1015C00003D002A800F022FDF3E7002510F8011B6C
:1015D0002F462390302902D02D2902D005E0012585
:1015E00000E0022510F8011B2390A1F1300009282A
:1015F00006D807EB870001EB4007303F2398F1E75F
:101600006C2901D04C2905D1239845F0040510F828
:10161000011B2390002945D0A1F161000A46192839
:1016200001D8203AD2B24F2A42D006DC422A3DD01D
:10163000432A38D0442AC4D13CE0532A09D0552A41
:1016400038D0582ABDD11023680701CE442A33D0A0
:1016500037E056F8048B002401E004F1010418F887
:1016600004000028F9D1A80704D50DE0202102A824
:1016700000F0CCFC2046641CB842F7D304E008F12B
:10168000010802A800F0C2FC98F800100029F6D169
:1016900003E0202102A800F0B9FC2046641CB842F7
:1016A00087D2F6E753E016F8041B8AE70223CBE75C
:1016B0000823C9E70A23C7E7002802DA404245F0B9
:1016C00008050024CC460246B0FBF3F003FB1022D1
:1016D000D2B2092A05D9782915D04FF0070842441B
:1016E000D2B230320CF80420641C08B1102CEAD3BA
:1016F000280703D52D2009F80400641CA046E8073C
:1017000004D0302003E04FF02708E8E7202082468D
:1017100003E0514602A800F079FCA80704D4414632
:1017200008F10108B942F4D34D46641E02A8295DB0
:1017300000F06CFC002CF8D103E0514602A800F048
:1017400065FC414608F10108B942A9D2F5E70398C2
:10175000002810DB024601AB05A9029800F04AF808
:1017600048B901990398884205D104981AB0BDE898
:10177000F0075DF814FB4FF0FF30F7E770B5044653
:1017800000F021FD002834D1A179890631D5E16925
:10179000206800F0A8FB00282BD1256AE87A40F0E9
:1017A0002000E872207B2877A089000A6877E0682B
:1017B000000CA877E068000EE8772846216900F061
:1017C00079FC00F09FFAA875010AE975010C2976E9
:1017D000000E68760020A874E874A07920F020003C
:1017E000A0712168012008712068BDE8704000F0F8
:1017F00069BC70BD2DE9F05F0446002018609A4670
:1018000016468946204600F0DEFC002806D1E07925
:10181000002803D1A079800702D40720BDE8F09FFB
:10182000A0684FF0010B8119814266D389E0A0685E
:10183000C1055BD122689178491E01EA502111F05F
:10184000FF0512D108B1616902E0206928B90021C1
:101850001046FFF7E5FB002876D0012824D0411C74
:1018600054D06061216901B920612068A269C16A10
:10187000914202D100F07EFCF0BB61692068FFF765
:10188000C3FB88B100EB0508770A22D02068EA196B
:1018900081788A4200D94F1B40783B4642464946F0
:1018A000FFF796FD40BB02E00220E071B6E720683A
:1018B000C26AA2EB0801B94209D209EB41213030DA
:1018C0004FF4007200F000FB2168002008717D02D7
:1018D0002DE0D4E90201884206D3206800F04AFCDA
:1018E00050B92168C1F82C80C4F818802089C0F351
:1018F0000800C0F5007501E008E025E0B54200D918
:101900003546A169206800F0EEFA18B184F807B0F6
:10191000012083E720892168C0F3080030300844A3
:101920002A46494600F0D0FA216881F804B0A06840
:10193000A9442844A060DAF800004119761BCAF8CF
:101940000010002E7FF473AFD4E90201884200D961
:10195000E060A07940F02000A07100205EE7000068
:101960002DE9FF474FF000090746C0F800901646E2
:10197000084600F0C9F9051E03DA0B2004B0BDE8E3
:10198000F087824850F825408CB13C60207820B127
:101990006078FFF719FDC1070BD084F80090E8B21A
:1019A0006070FFF7F6FCC10708D00320E6E70C20C3
:1019B000E4E70EB1400704D40020DFE71EB1400782
:1019C00001D50A20DAE7002529462046FFF7EEFA7E
:1019D000012821D100206E4604EB001101F5F771BA
:1019E0000A792AB10A7AD1F8091042EA012100E005
:1019F000002146F82010401C0428EDD3002756F89B
:101A0000275025B129462046FFF7D0FA00E00220F2
:101A100040B17F1C042FF2D3032801D0F0BB01E0BA
:101A20000120ABE7B4F83B00B0F5007F5DD1B4F81E
:101A3000461029B994F85400D4F8551040EA012111
:101A4000A16194F840C084F803C0BCF1010F02D03A
:101A5000BCF1020F49D194F83D600CFB01FCA6706B
:101A6000E6B1701E064240D1B4F841202281100731
:101A70003BD1B4F8430028B994F85000D4F8513061
:101A800040EA0320E38F4BB103EB0C0707EB12177F
:101A9000B8422AD3C01BB0FBF6F000E025E020B32B
:101AA000012640F6F678404500D302264FF6F67838
:101AB000404500D30326801C2F44A7622B4460615D
:101AC000C4E90753032E12D07AB103EB0C02626211
:101AD000022E17D000F0010200EB400002EB500094
:101AE00000F2FF10B1EB502F0ED20D2046E7002A76
:101AF000FBD194F85C20D4F85D30800042EA0322E8
:101B00006262EDE74000EBE74FF0FF302061E060FC
:101B100080206071032E30D1B4F8600001282CD1F0
:101B2000691C204600F0DFF938BB84F80590B4F852
:101B30002E02A0F52A4155391FD194F83000D4F86F
:101B4000311040EA01201249884216D194F814025B
:101B5000D4F8151240EA01200E4988420DD194F8BC
:101B60001802D4F8191240EA0120206194F81C02EE
:101B7000D4F81D1240EA0120E06004492670091FD4
:101B80000888401C0880E08016E700001000002054
:101B9000525261417272416173B5044601990878ED
:101BA0002F2801D05C2801D1491C01910025A56096
:101BB00001980078202805D200212046FFF7ABFBD2
:101BC00065617CBD01A92046FFF77AFA0028F8D1AB
:101BD00000212046FFF79FFBF8B92169206800F03B
:101BE00082F9D0B961690A7872B1CA7A12070ED443
:101BF0000B25A26900236D1E08D311F8013B12F8D2
:101C0000016B9B1BF7D002E0042006E02BB1002102
:101C10002046FFF7D5FA0028DFD0A169C97A28B19C
:101C20000428CED14907CCD405207CBD4907FCD47B
:101C30006169C87AC006F7D5206800F083F8A06013
:101C4000C0E7FEF79FBE2DE9F0410D46044602298C
:101C50000BD36069A84208D920784FF0FF360128DD
:101C600007D002282BD0032836D001263046BDE805
:101C7000F081206A05EB550700EB5721204600F064
:101C800032F90028F2D1C7F3080020447F1C90F8F5
:101C90003080206A00EB5721204600F024F900280C
:101CA000E4D1C7F30800204490F8301048EA01203E
:101CB000E90701D00609D9E7C0F30B06D6E7206A89
:101CC00000EB1521204600F00EF90028CED1E8B235
:101CD00004EB4000068EC9E7206A00EBD5112046D0
:101CE00000F001F90028C1D140F2FF1000EA8500A0
:101CF000204490F83010D0F8310041EA002020F064
:101D00007046B3E70020704710B503464FF0FF3030
:101D10001C68002C13D0214600E0491C0A78212AB7
:101D20000ED33A2AF9D114F8012B303A0A2A06D2F6
:101D30008C4204D1002A02D1491C1046196010BD02
:101D4000002010BD0246488B1278032A02D1898AEE
:101D500040EA0140704700004FF4E1318AB0480585
:101D6000FEF730FBFEF7ACFBFEF751FDFEF70CFF74
:101D7000294E002229487168FFF748FBC0B128A00E
:101D8000FEF794FF254D243D002408210220FEF794
:101D9000DBFB0128F8D108210220FEF763FB04EBEE
:101DA000440000EBC4004219507851281DD02FE0A8
:101DB0001FA0FEF77BFF132223A16846FFF74CFB11
:101DC00008B124A00BE028A0FEF770FF2DA1684603
:101DD000FFF7E4FB002801DD2EA000E034A0FEF7B1
:101DE00065FF6846FFF703FBCCE7D0783178FEF754
:101DF000C9FA48B150793178FEF7C4FA20B1D079E8
:101E00003178FEF7BFFA18B955212E48FEF741FF89
:101E1000641C032CC3DBB7E7000000203C02002059
:101E20004D6F756E74206661696C65640D0A000003
:101E30004D6F756E742053442073756363657373BF
:101E400066756C6C790D0A0066696C652E74787421
:101E5000000000004F70656E2066696C6520666149
:101E6000696C65642E0D0A004F70656E2066696CA2
:101E700065207375636365737366756C6C792E0D7D
:101E80000A00000048656C6C6F2C576F726C6421FF
:101E90000A000000507574732066696C65207375C4
:101EA000636365737366756C6C792E0D0A000000B0
:101EB000507574732066696C65206661696C656431
:101EC0002E0D0A000000044003E011F8013B00F869
:101ED000013B521EF9D27047C9B201E000F8011B64
:101EE000521EFBD2704770B50446C06A0E460025EC
:101EF000B0420FD0204600F03DF905000AD16078CD
:101F00000123324604F13001FFF74FFA08B16E1E8B
:101F10000125E662284670BD2DE9F04716460D46BC
:101F20000446022902D36069A84202D80220BDE813
:101F3000F087207806F0FF084FF00109012820D033
:101F4000022850D00328F1D1206A00EBD511204699
:101F5000FFF7C9FF0028EAD140F2FF1101EA85012D
:101F6000214430314FF07043D1F8012003EA0222BE
:101F700032430A70130A4B70130C8B70120ECA7026
:101F800041E0206A05EB550700EB57212046FFF79B
:101F9000AAFF0028CBD1C7F30800204430307F1CB3
:101FA000E90703D0017868F31F1100E031460170A2
:101FB00084F80490206A00EB57212046FFF793FF36
:101FC0000028B4D1C7F3080121443031EA0702D018
:101FD000C6F3071205E00A78C6F3032302F0F00205
:101FE0001A430A700FE0206A00EB15212046FFF724
:101FF0007AFF00289BD1E9B204EB4101320A81F853
:10200000308081F8312084F8049090E7F8B50E46CE
:1020100004460A2902D10D21FFF7F8FF6568002D5B
:1020200016DB60196D1C06733D2D0DDB6B462A46D1
:1020300004F10C012068FFF7DDFB0098A84201D1F4
:10204000002501E04FF0FF356560A068401CA060EE
:10205000F8BD2DE9F0410F460446022916D3606908
:10206000B84213D900261FE039462046FFF7EBFDA2
:1020700005001CD0012D09D0681C09D0002239466A
:102080002046FFF749FF060011D103E002260EE0CB
:1020900001260CE02069411C05D0401C20616079BC
:1020A00040F0010060712F466069B842DCD83046CC
:1020B000BDE8F08181760A0AC2760A0C0275090E23
:1020C0004175704770B5044600F054F805004FD1D3
:1020D0002078032845D16079012842D1420204F1D9
:1020E000300000210646FFF7F7FE552084F82E0247
:1020F000AA2084F82F02522084F8300084F831009E
:10210000612284F83220412084F83300722184F85F
:10211000141284F8151284F8160284F81722206924
:1021200084F81802010A84F81912010C84F81A12B2
:10213000000E84F81B02E06884F81C02010A84F88F
:102140001D12010C84F81E12000E84F81F02E269B1
:102150000123521CE26260783146FFF739F9002012
:102160006071002260781146FFF71BF900B101256C
:10217000284670BD2DE9F041044600790027F8B1EA
:10218000E66A04F130016078012332468846FFF7A1
:102190001FF908B1012713E000202071206AA1690E
:1021A000301A88420CD2E57808E0A0690123064481
:1021B000607832464146FFF70BF96D1E022DF4D2CE
:1021C0003846BDE8F08110B560B1016851B10A78B8
:1021D00042B1CA888088824204D14878FFF7F4F877
:1021E000C00700D0092010BD809A45418E418F80E4
:1021F0004545454949498E8F9092924F994F555583
:1022000059999A9B9C9D9E9F41494F55A5A5A6A76C
:10221000A8A9AAABACADAEAFB0B1B2B3B4B5B6B7C6
:10222000B8B9BABBBCBDBEBFC0C1C2C3C4C5C6C7B6
:10223000C8C9CACBCCCDCECFD0D1D2D3D4D5D6D7A6
:10224000D8D9DADBDCDDDEDFE0E1E2E3E4E5E6E796
:10225000E8E9EAEBECEDEEEFF0F1F2F3F4F5F6F786
:10226000F8F9FAFBFCFDFEFF000000008C220000E4
:102270000000002018000000CC0C0000A422000088
:102280001800002080060000DC0C00001C0000008C
:1022900068220000000000000000000000000000B4
:0422A000000000003A
:0400000500000155A1
:00000001FF
